:020000040800F2
:100000008033002099010008B12600084924000827
:10001000AD260008D10700080D2D000800000000E3
:1000200000000000000000000000000001010008C6
:10003000D507000800000000450100084D28000811
:10004000B3010008B3010008B3010008B3010008C0
:10005000B3010008B3010008B3010008B3010008B0
:10006000B3010008B3010008B3010008B3010008A0
:10007000B3010008B3010008B3010008B301000890
:10008000B3010008B3010008B3010008B301000880
:10009000B3010008B3010008B3010008B301000870
:1000A000B3010008B3010008B3010008B301000860
:1000B000B3010008B301000809290008B3010008D2
:1000C000B3010008B3010008B3010008B301000840
:1000D000B3010008ED2C0008FD2C0008B301000856
:1000E000B3010008B3010008B3010008DFF80CD029
:1000F00000F02EFB00480047B13A00088033002092
:10010000224B19680868B0E8F00F80F30988BFF344
:100110006F8F4FF0000080F311884EF00D0E704786
:100120000000000006480068006880F3088862B696
:1001300061B6BFF34F8FBFF36F8F00DF00BF00BF0B
:1001400008ED00E0EFF30980BFF36F8F0F4B1A68E3
:1001500020E9F00F106008B54FF0500080F31188CF
:10016000BFF34F8FBFF36F8F05F006F94FF000001C
:1001700080F31188BDE8084019680868B0E8F00FFE
:1001800080F30988BFF36F8F704700BF180000200D
:10019000EFF3058070470000064880470648004797
:1001A000FEE7FEE7FEE7FEE7FEE7FEE7FEE7FEE727
:1001B000FEE7FEE705290008ED0000082DE9F05FE5
:1001C0000546002092469B468846064681464024C6
:1001D0001BE0284641464746224600F020F8534699
:1001E0005A46C01A914110D311461846224600F0D3
:1001F00001FA2D1A67EB01084F4622460120002123
:1002000000F0F8F917EB00094E41201EA4F101049B
:10021000DFDC484631462A464346BDE8F09F202AA7
:1002200004DB203A21FA02F00021704721FA02F3A0
:10023000D040C2F12002914008431946704740EA7D
:1002400001039B0703D009E008C9121F08C0042A54
:10025000FAD203E011F8013B00F8013B521EF9D23B
:100260007047D2B201E000F8012B491EFBD2704763
:100270000022F6E710B513460A4604461946FFF772
:10028000F0FF204610BD30B505462A460B4612F851
:10029000010B13F8014B08B1A042F8D01CB10028A3
:1002A00002D06D1CF1E7284630BD421C10F8011B3E
:1002B0000029FBD1801A70472DE9FE4F804681EA64
:1002C0000300C00F0C46009021F0004123F00045D0
:1002D000B8EB0200A94105D24046214690461C4693
:1002E0000B46024623F00040104347D0270DC7F3CA
:1002F0000A00C3F30A510290401A019040286BDAB9
:10030000C3F3130040F4801B0098924620B10023F1
:10031000D2EB030A63EB0B0B01985946C0F1400284
:10032000504600F067F906460D4650465946019A78
:1003300000F06FF910EB08006141002487EA1152C8
:1003400084EAE7731A4340D0009A62B3019A012A03
:100350004FEA075215DC001B61EB02014FF000422F
:1003600002EA0752CDE90042001C41F580113246F5
:100370002B4600F06FF903B0BDE8F08F40462146F0
:10038000F9E7001B61EB0201001C41F58013001826
:100390005B412018A2F5001747EB030140EAD57036
:1003A000B6196D4111E06D084FEA360645EAC07591
:1003B0004FEA0752001B61EB0201001C41F580115E
:1003C00049084FEA30000019514132462B4603B02C
:1003D000BDE8F04F00F02FB9009801224000002343
:1003E000D0EB020263EBE073009821464FEAE07421
:1003F000B8EB000061EB0401E9E783F000435BE741
:1004000081F0004158E72DE9FE4F81EA030404F032
:10041000004421F0004100944FF0000B23F0004312
:1004200050EA01045ED052EA03045BD0C3F30A54DD
:10043000C1F30A552C44A4F2F3340194A0FB0254F6
:10044000C1F3130141F48011C3F3130343F4801388
:1004500001FB024400FB034E840A970A44EA8154DC
:1004600047EA8357A4FB076802958D0A05FB0785B9
:100470004FEA932C04FB0C542705029D4FEA0658C3
:1004800047EA1637B5EB08056EEB070C870E920EA0
:1004900047EA811742EA8312A7FB0201B6EB0B0180
:1004A00064EB00042B0D43EA0C335E1844EB1C5044
:1004B000DA465146E7FB0201C5F313044FEA0B335A
:1004C00043EA14534FEA0432019C43EA0603A4F1C1
:1004D0000C040294009CCDE900B400F0BBF803B01A
:1004E000BDE8F08F00200146F9E72DE9F04D81EAE3
:1004F000030404F0004B21F0004514464FF0000ABD
:1005000023F0004150EA050220D054EA01021DD038
:10051000C5F30A570246C5F31303C1F31300C1F331
:100520000A5640F4801543F48013A7EB0608101B0D
:10053000D64608F2FD3873EB050002D308F1010836
:1005400001E092185B41B8F1000F03DA0020014688
:10055000BDE8F08D00204FF48011064684460EE081
:10056000171B73EB050705D3121B63EB050306434B
:100570004CEA010C49084FEA300092185B4150EAFE
:100580000107EDD152EA030012D082EA040083EAA7
:100590000501084305D0101BAB4106D20122002300
:1005A00006E000224FF0004302E06FF0010253101A
:1005B0001AEB06004CEB085110EB0A0041EB0B0163
:1005C000BDE8F04D00F037B830B50B4601460020CD
:1005D0002022012409E021FA02F59D4205D303FA05
:1005E00002F5491B04FA02F52844151EA2F1010286
:1005F000F1DC30BD202A04DB203A00FA02F10020B1
:1006000070479140C2F1200320FA03F31943904050
:100610007047202A06DBCB17203A41FA02F043EA62
:10062000E07306E041FA02F3D040C2F120029140AB
:1006300008431946704710B5141E73F1000408DA18
:10064000401C41F1000192185B411A4301D120F096
:10065000010010BD2DE9F04D92469B4611B1B1FA53
:1006600081F202E0B0FA80F220329046FFF7C2FF3A
:1006700004460F4640EA0A0041EA0B0153465A4637
:10068000084313D0114653EA010019D0C8F14002C3
:100690005046FFF7C4FD05460E46504659464246B1
:1006A000FFF7A8FF084305D0012004E020463946A3
:1006B000BDE8F08D0020054346EAE0762C43374341
:1006C0000A986305E40AA0EB08000022FD0A44EA48
:1006D00047540A3002D500200146E9E70105101908
:1006E0006941DDE9084500196941BDE8F04DA2E71F
:1006F000C1F30A52C1F3130140F2FF3341F48011F8
:100700009A4202DA00200146704740F233439A428F
:10071000A2F2334202DC5242FFF781BDFFF76ABF0B
:1007200030B5041E71F1000404DB4FF00044404278
:1007300064EB0101141E73F1000405DB1C464FF04D
:100740000043524263EB0403994208BF904230BD1C
:10075000064C074D06E0E06840F0010394E807000E
:1007600098471034AC42F6D3FFF7C4FCA0640008ED
:10077000C064000870B5044600252068806800F059
:10078000010018B32068806820F0010021688860AB
:1007900000F0DAFB054613E000F0D6FB401B022810
:1007A0000ED92068806800F0010048B1A06A40F0CE
:1007B0001000A062E06A40F00100E062012070BD1C
:1007C0002068806800F001000028E5D10020F6E7ED
:1007D00000BFFEE7704772B600BFFEE738B50246BD
:1007E00000230020009000BF92F82400012801D1CE
:1007F000022038BD012082F8240000BF4868072885
:1008000012D21068406B0C79641E04EB84051F241F
:10081000AC40A0430D796D1E05EB85050C68AC401E
:1008200020431468606327E048680D2812D21068DE
:10083000006B0C79E41F04EB84051F24AC40A0433B
:100840000D79ED1F05EB85050C68AC40204314685D
:10085000206311E01068C06A0C790D3C04EB84053C
:100860001F24AC40A0430D790D3D05EB85050C68B8
:10087000AC4020431468E06208680A2812D310686C
:10088000C0680C780A3C04EB44050724AC40A04344
:100890000D780A3D05EB45058C68AC402043146893
:1008A000E0600FE0106800690C7804EB4405072451
:1008B000AC40A0430D7805EB45058C68AC40204367
:1008C000146820610868102802D00868112827D110
:1008D000174C1068A0421ED11068806800F4000018
:1008E000F0B91068806840F400001468A0600868DF
:1008F000102815D10F4800680F4CB0FBF4F000EB46
:1009000080004000009002E00098401E0090009897
:100910000028F9D104E0906A40F0200090620123A1
:1009200000BF002082F8240000BF184661E70000E5
:10093000002401401400002040420F002DE9F04146
:100940000446002700250026A84614B90120BDE86A
:10095000F081A06810B1207D00B100BFA06A30B95D
:100960000020E06284F82400204600F089F8204648
:10097000FFF700FF0746A06A00F01000002873D1BF
:10098000002F71D1A06A20F4885040F00200A062CC
:10099000E16960680843217B40EA41000643A068A2
:1009A000B0F5807F02D0A068012802D14FF480709A
:1009B00000E000200543207D012811D1207B38B9BB
:1009C000A069401E4FF4006141EA4030054307E052
:1009D000A06A40F02000A062E06A40F00100E062FE
:1009E0002068406820F469402843216848602068F6
:1009F000806821490840304321688860A068B0F5CC
:100A0000807F02D0A068012802D14FF4807000E0FE
:100A10000020B0F5807F03D1208A401E4FEA0058A5
:100A20002068C06A20F4700040EA08002168C862AB
:100A30002068806811490840B04208D10020E06277
:100A4000A06A20F0020040F00100A06211E0A06A5C
:100A500020F0020040F01000A062E06A40F00100C7
:100A6000E062012705E0FFE7A06A40F01000A06205
:100A7000012738466BE70000FDF7E1FFFE0E1FFF80
:100A800010B586B0044600200290039004900590B3
:100A900013492068884221D100BF1248806940F480
:100AA0000070104988610846806900F40070019068
:100AB00000BF00BF00BF0846806940F004008861A5
:100AC0000846806900F00400019000BF00BF0320C9
:100AD0000290039002A9044800F0A0F806B010BDEF
:100AE000002401400010024000080140014600229D
:100AF00091F82100022808D00420886300BF00205C
:100B000081F8200000BF012070470868006820F0CD
:100B10000E000B6818600868006820F001000B6880
:100B2000186091F8403001209840CB6B586001204C
:100B300081F8210000BF002081F8200000BF10468E
:100B4000E2E7000070B50446002594F82100022871
:100B500003D00420A063012548E02068006820F04D
:100B60000E00216808602068006820F001002168FC
:100B700008601F492068884201D1012026E01C49F5
:100B800014312068884201D110201FE01849283113
:100B90002068884201D1801518E015493C31206851
:100BA000884201D1801411E01149503120688842F7
:100BB00002D14FF4803009E00D4964312068884249
:100BC00002D14FF4801001E04FF0807008490839DD
:100BD0004860012084F8210000BF002084F8200034
:100BE00000BF606B10B12046616B8847284670BD1E
:100BF0000800024070B5044600F0A6F906462546F6
:100C0000681C10B104480078054400BF00F09CF94E
:100C1000801BA842FAD370BD100000202DE9F847D0
:100C20000346002294466EE14FF0010808FA02F4F0
:100C3000D1F8008008EA0400A0427DD1DFF8DCA2F0
:100C4000D1F80480A8EB0A09D0453AD014DCB8F1F9
:100C5000030F50D009DCB8F1000F31D0B8F1010F0B
:100C60001CD0B8F1020F49D120E0B8F1110F18D013
:100C7000B8F1120F42D11EE0B9F5881F25D006DC6D
:100C8000B9F5803F20D0B9F5801F37D11AE0B9F50A
:100C9000001F18D0B9F5041F30D117E0D1F80CC0EF
:100CA0002DE0D1F80C8008F1040C28E0D1F80C807C
:100CB00008F1080C23E0D1F80C8008F10C0C1EE0C0
:100CC00000BF00BF00BF00BF00BF00BFD1F8088059
:100CD000B8F1000F02D14FF0040C0BE0D1F80880FE
:100CE000B8F1010F03D14FF0080C1C6102E04FF086
:100CF000080C5C6103E04FF0000C00E000BF00BF97
:100D0000FF2801D8984601E003F104084646FF2871
:100D100002D84FEA820803E0A2F108084FEA8808E7
:100D20004746D6F800804FF00F0909FA07F928EA7C
:100D300009080CFA07F900E088E048EA0908C6F853
:100D40000080D1F8048008F08058B8F1805F7DD130
:100D500000BFDFF8CC81D8F8188048F00108DFF830
:100D6000C091C9F81880C846D8F8188008F0010862
:100D7000CDF8008000BF00BF4FEAB9384FEA9209B2
:100D800058F829504FEA82784FEA18794FF00F0847
:100D900008FA09F825EA0805DFF88881434502D1F9
:100DA0004FF0000816E0DFF88081434502D14FF094
:100DB00001080FE0DFF87481434502D14FF00208CB
:100DC00008E0DFF86C81434502D14FF0030801E0F1
:100DD0004FF004084FEA82794FEA197908FA09F8C6
:100DE00048EA0505DFF84C814FEA920948F8295096
:100DF000D1F8048008F48038B8F5803F0AD1DFF8D4
:100E00003881D8F8008048EA0008DFF82C91C9F84A
:100E1000008009E0DFF82081D8F8008028EA000887
:100E2000DFF81491C9F80080D1F8048008F4003884
:100E3000B8F5003F10D1DFF8008108F10408D8F8B8
:100E4000008048EA0008DFF8F09000E05AE009F17D
:100E50000409C9F800800DE0DFF8DC8008F104081F
:100E6000D8F8008028EA0008DFF8CC9009F10409DE
:100E7000C9F80080D1F8048008F48018B8F5801F04
:100E80000ED1DFF8B48008F10808D8F8008048EAED
:100E90000008DFF8A49009F10809C9F800800DE006
:100EA000DFF8948008F10808D8F8008028EA0008E4
:100EB000DFF8849009F10809C9F80080D1F80480AE
:100EC00008F40018B8F5001F0ED1DFF86C8008F1A7
:100ED0000C08D8F8008048EA0008DFF85C9009F1B7
:100EE0000C09C9F800800DE0DFF84C8008F10C080F
:100EF000D8F8008028EA0008DFF83C9009F10C09D6
:100F0000C9F80080521CD1F8008028FA02F8B8F124
:100F1000000F7FF489AEBDE8F887000000001110D3
:100F20000010024000080140000C01400010014088
:100F30000014014008000140000401400AB10161B1
:100F400001E00B040361704701480068704700002E
:100F50000800002003480068034909780844014953
:100F600008607047080000201000002010B50848F5
:100F7000006840F0100006490860032000F0E2F825
:100F80000F2000F007F800F05FF8002010BD00000F
:100F9000002002402DE9F04188B004460027B84601
:100FA000002600BF2348C06940F004002149C86101
:100FB0000846C06900F00400019000BF00BF02A90C
:100FC00003A800F031FA069F1FB900F055FA054654
:100FD00002E000F051FA45001748B5FBF0F0A0F12F
:100FE000010816481649086040F2E7311448C1600C
:100FF000C0F80480002101618160816100F04BFE36
:10100000064696B90E4800F07BFE06466EB91E20D5
:1010100000F04AF8102C07D2002221461E2000F0D2
:1010200053F80848046000E00126304608B0BDE8E7
:10103000F08100000010024040420F000008004014
:10104000000200200C00002008B500BF1448806991
:1010500040F00100124988610846806900F00100F3
:10106000009000BF00BF00BF0846C06940F080503C
:10107000C8610846C06900F08050009000BF00BF02
:1010800000220F21901E00F01FF800BF054948689C
:1010900020F0E06040F00070486000BF08BD000034
:1010A000001002400000014001460846002809DB0C
:1010B00000F01F0301229A4043099B0003F1E02343
:1010C000C3F8002100BF70472DE9F05F80460D4650
:1010D0001646002701F02CFE074639462A463346BD
:1010E00001F00700C0F1070ABAF1040F02D94FF06E
:1010F000040A01E0C0F1070AD14600F1040ABAF17E
:10110000070F02D24FF0000A01E0A0F1030AD44613
:101110004FF0010A0AFA09FAAAF1010A0AEA020AD8
:101120000AFA0CFA4FF0010B0BFA0CFBABF1010BB6
:101130000BEA030B4AEA0B042146404601F000FE8D
:10114000BDE8F09F00BF00F00702064B19684FF69C
:10115000FF031940044B0B4343EA0221014B196082
:1011600000BF70470CED00E00000FA05F8B504463A
:1011700000260025207800F0010000286BD0002711
:101180004348C06900F0805070B900BF4048C06952
:1011900040F080503E49C8610846C06900F0805068
:1011A000009000BF00BF01273A48006800F480703B
:1011B000B0B93848006840F4807036490860FFF7DD
:1011C000C3FE064606E0FFF7BFFE801B642801D978
:1011D0000320F8BD2F48006800F480700028F2D08A
:1011E0002B48006A00F440752DB3A08800F44070CD
:1011F000A84220D02648006A20F4407501202649E4
:101200000860002008602248056205F0010090B1E6
:10121000FFF79AFE064608E0FFF796FE801B41F2B4
:101220008831884201D90320D3E71948006A00F0C9
:1012300002000028F0D01648006A20F4407061686F
:10124000084313490862012F04D10846C06920F001
:101250008050C86100BF207800F00200022807D14A
:101260000B48406820F44040A168084308494860A2
:10127000207800F01000102807D10548406820F4BD
:101280008000E1680843024948600020A1E70000AF
:1012900000100240007000404004424270B5044615
:1012A0000D460CB9012070BD5A48006800F00700D7
:1012B000A8420ED25748006820F00700284355493D
:1012C00008600846006800F00700A84201D001202D
:1012D000E9E7207800F0020002281DD1207800F014
:1012E0000400042805D14C48406840F4E0604A49B5
:1012F0004860207800F00800082805D1464840687A
:1013000040F46050444948604348406820F0F00091
:10131000A168084340494860207800F0010078B394
:101320006068012806D13C48006800F4003090B99C
:101330000120B8E76068022806D13748006800F04D
:10134000007040B90120AEE73348006800F00200A9
:1013500008B90120A7E73048406820F00300616821
:1013600008432D494860FFF7EFFD064609E0FFF707
:10137000EBFD801B41F28831884202D9032092E7BD
:1013800007E02548406800F00C006168B0EB810F71
:10139000EDD12048006800F00700A8420ED91D4892
:1013A000006820F0070028431A49086008460068D2
:1013B00000F00700A84201D0012074E7207800F077
:1013C0000400042807D11448406820F4E060E16874
:1013D000084311494860207800F00800082808D127
:1013E0000D48406820F46050216940EAC1000A4974
:1013F000486000F061F808494968C1F30311074AE1
:10140000515CC8400649086006480068FFF7C2FD05
:10141000002048E700200240001002402864000835
:10142000140000200C0000200F2202600D4A5268B8
:1014300002F0030242600B4A526802F0F00282603E
:10144000084A526802F4E062C260064A526802F436
:101450006052D2080261044A126802F007020A6070
:101460007047000000100240002002400148006860
:10147000704700001400002000B5FFF7F7FF044993
:101480004968C1F30221034A515CC84000BD000015
:10149000001002403864000800B5FFF7E7FF044978
:1014A0004968C1F3C221034A515CC84000BD000035
:1014B0000010024038640008F0B585B00FF26C0CE3
:1014C0009CE8E01001A8A0E8E0101CA52D6800959C
:1014D00000210022002300240020194D696801F03A
:1014E0000C05F5B1042D02D0082D19D101E01548E5
:1014F00019E001ADC1F38346AC5D01F4803555B10F
:101500000F4D6D68C5F340451DF805200D4D654331
:10151000B5FBF2F302E00C4D04FB05F3184602E0C4
:1015200000BF084800BF00BF05B0F0BD02030405BE
:10153000060708090A0B0C0D0E0F1010010200001F
:101540000010024000127A0000093D00F8B5044680
:101550000CB90120F8BD207800F00100002878D0F7
:10156000F848406800F00C0004280CD0F5484068AA
:1015700000F00C00082811D1F248406800F48030D7
:10158000B0F5803F0AD1EF48006800F40030002831
:101590005FD0606800285CD10120DBE700BF606895
:1015A000B0F5803F06D1E748006840F48030E54957
:1015B000086028E0606858B9E248006820F480308C
:1015C000E04908600846006820F4802008601AE0BE
:1015D0006068B0F5A02F0BD1DA48006840F4802095
:1015E000D84908600846006840F4803008600AE086
:1015F000D448006820F48030D2490860084600686A
:1016000020F48020086000BF606888B1FFF79CFC70
:10161000054606E0FFF798FC401B642801D903202B
:1016200098E7C848006800F400300028F2D010E0C5
:10163000FFF78AFC054606E0FFF786FC401B64289E
:1016400001D9032086E7BF48006800F40030002875
:10165000F2D1207800F00200022857D1B948406842
:1016600000F00C0050B1B748406800F00C000828AA
:1016700018D1B448406800F4803098B9B148006887
:1016800000F0020020B12069012801D0012061E7AB
:10169000AC48006820F0F800616940EAC100A9493F
:1016A000086033E02069E8B10120A7490860FFF72E
:1016B0004BFC054606E0FFF747FC401B022801D91A
:1016C000032047E79F48006800F002000028F2D09E
:1016D0009C48006820F0F800616940EAC10099491F
:1016E000086013E0002098490860FFF72DFC0546CC
:1016F00006E0FFF729FC401B022801D9032029E757
:101700009048006800F002000028F2D1207800F034
:10171000080008282DD1A069B8B101208B490860C4
:10172000FFF712FC054606E0FFF70EFC401B0228FF
:1017300001D903200EE78348406A00F00200002828
:10174000F2D0012000F0B6FF13E000207F490860CE
:10175000FFF7FAFB054606E0FFF7F6FB401B022801
:1017600001D90320F6E67748406A00F0020000281D
:10177000F2D1207800F00400042873D100277148CA
:10178000C06900F0805070B900BF6E48C06940F079
:1017900080506C49C8610846C06900F080500090D4
:1017A00000BF00BF01276A48006800F48070B0B92C
:1017B0006748006840F4807065490860FFF7C4FB23
:1017C000054606E0FFF7C0FB401B642801D9032053
:1017D000C0E65F48006800F480700028F2D000BFC7
:1017E000E068012806D15748006A40F001005549D9
:1017F000086227E0E06858B95248006A20F001000A
:10180000504908620846006A20F00400086219E0A6
:10181000E06805280BD14B48006A40F004004949B4
:1018200008620846006A40F0010008620AE0454884
:10183000006A20F00100434908620846006A20F06F
:101840000400086200BFE068A0B1FFF77DFB054619
:1018500009E0FFF779FB401B41F28831884202D949
:10186000032077E622E03748006A00F002000028F3
:10187000EFD012E0FFF768FB054608E0FFF764FBD6
:10188000401B41F28831884201D9032062E62D488D
:10189000006A00F002000028F0D1012F05D129488C
:1018A000C06920F080502749C86100BFE069C8B313
:1018B0002448406800F00C00082860D0E069022845
:1018C00048D1002020490866FFF73EFB054606E0A8
:1018D000FFF73AFB401B022801D903203AE61948DA
:1018E000006800F000700028F2D1206AB0F5803F57
:1018F00007D11448406820F40030A168084311491A
:101900004860D4E9080108430E49496821F474117C
:1019100008430C49486001200B490866FFF714FB97
:10192000054607E03DE0FFF70FFB401B022801D909
:1019300003200FE60348006800F000700028F2D092
:101940002FE00000001002400000424280044242AA
:1019500000700040002014490866FFF7F5FA0546BC
:1019600006E0FFF7F1FA401B022801D90320F1E558
:101970000E48006800F000700028F2D111E0E06924
:10198000012800D1E6E50948466806F48031206A5E
:10199000814204D106F47011606A814201D00120B5
:1019A000D8E50020D6E500000000424200100240C9
:1019B00010B504460CB9012010BD606A38B96068E2
:1019C000B0F5827F00D105E00021E16102E0002155
:1019D000216161610021A16294F8510028B90020C1
:1019E00084F85000204600F043F8022084F85100AB
:1019F0002068006820F0400021680860A08800F49A
:101A00008270218901F404410843A18901F4006135
:101A10000843217C01F002010843217D01F001010E
:101A20000843218B01F400710843217F01F0380144
:101A300008432021095D01F080010843218D01F454
:101A400000510843216808600421A06901EA1040A0
:101A5000216848602068C06920F400602168C8617E
:101A600000206065012084F851000020A4E70000F8
:101A700010B586B0044600200290039004900590B3
:101A800015492068884224D100BF1448806940F479
:101A90008050124988610846806900F480500190A6
:101AA00000BF00BF00BF0846806940F004008861A5
:101AB0000846806900F00400019000BF00BFA0202C
:101AC0000290022003900320059002A90448FFF72A
:101AD000A5F806B010BD0000003001400010024023
:101AE000000801402DE9F84F0446884616461D4679
:101AF0004FF0000A00BF94F85000012802D10220E4
:101B0000BDE8F88F012084F8500000BFFFF71CFAF1
:101B10000746B14694F85100012802D04FF0020A5E
:101B2000ADE0B8F1000F00D016B94FF0010AA6E001
:101B3000032084F8510000206065C4F83080A68638
:101B4000E686A063A087E08760642064A068B0F5A3
:101B5000004F0BD12068006820F040002168086029
:101B60002068006840F480402168086020680068B0
:101B700000F04000402805D02068006840F0400098
:101B800021680860E068B0F5006F2FD1606810B17F
:101B9000B9F1010F09D1206B00882168C860206B62
:101BA000801C2063E08E401EE0861BE02068806879
:101BB00000F0020002280AD1206B00882168C8606A
:101BC000206B801C2063E08E401EE0860AE0FFF759
:101BD000BBF9C01BA84201D3681C00B915B94FF06E
:101BE000030A4CE0E08E0028E0D12EE0606810B1DE
:101BF000B9F1010F09D1206B007821680873206BBF
:101C0000401C2063E08E401EE0861BE02068806858
:101C100000F0020002280AD1206B007821680873C6
:101C2000206B401C2063E08E401EE0860AE0FFF738
:101C30008BF9C01BA84201D3681C00B915B94FF03D
:101C4000030A1CE0E08E0028E0D13A4629462046EF
:101C500000F044FD08B120206065A06850B900BFC5
:101C6000002000902068C068009020688068009084
:101C700000BF00BF606D08B14FF0010A00BF012036
:101C800084F8510000BF002084F8500000BF504687
:101C900036E77047704710B504460CB9012010BDF7
:101CA00094F83D0028B9002084F83C00204600F05C
:101CB00025F8022084F83D00211D206800F02CFE4C
:101CC000012084F8460000BF84F83E0001213F2037
:101CD0000155402001554120015500BF00BF0120A2
:101CE00084F8420043200155442001554520015508
:101CF00000BF012084F83D000020D0E770470000BD
:101D0000014691F83D00012801D0012070470220D2
:101D100081F83D000868C06840F001000B68D86099
:101D2000124B086898420BD00868B0F1804F07D07A
:101D30000F4B0868984203D00E4B086898420CD1AC
:101D40000868806800F00702062A0CD0086800685E
:101D500040F001000B68186005E00868006840F07A
:101D600001000B6818600020D0E70000002C014043
:101D70000004004000080040704710B50446206889
:101D80000069C0F34000D8B12068C068C0F34000CB
:101D9000B0B16FF00200216808610120207720684F
:101DA000806900F0030018B12046FFF7E5FF05E069
:101DB000204600F0ADF8204600F0ABF80020207778
:101DC00020680069C0F38000D8B12068C068C0F303
:101DD0008000B0B16FF00400216808610220207714
:101DE0002068806900F4407018B12046FFF7C4FFF6
:101DF00005E0204600F08CF8204600F08AF800202C
:101E0000207720680069C0F3C000D8B12068C0689E
:101E1000C0F3C000B0B16FF0080021680861042071
:101E200020772068C06900F0030018B12046FFF752
:101E3000A3FF05E0204600F06BF8204600F069F8AB
:101E40000020207720680069C0F30010D8B1206816
:101E5000C068C0F30010B0B16FF0100021680861D5
:101E6000082020772068C06900F4407018B120462F
:101E7000FFF782FF05E0204600F04AF8204600F018
:101E800048F8002020772068006900F0010058B170
:101E90002068C06800F0010030B16FF001002168D7
:101EA0000861204600F036F820680069C0F3C010D1
:101EB00058B12068C068C0F3C01030B16FF0800026
:101EC000216808612046FFF7E4FE20680069C0F33E
:101ED000801058B12068C068C0F3801030B16FF036
:101EE000400021680861204600F020F82068006961
:101EF000C0F3401058B12068C068C0F3401030B142
:101F00006FF02000216808612046FFF7C3FE10BD76
:101F10007047704710B5044603492068884201D1D4
:101F2000FFF718F810BD0000000800407047704728
:101F3000704700002DE9F84F0446206805682068C6
:101F4000C668206847694FF00009CA4605F00F09C6
:101F5000B9F1000F0AD105F0200038B106F02000D9
:101F600020B1204600F047FDBDE8F88FB9F1000F21
:101F700071D007F0010018B906F4907000286AD0FB
:101F800005F0010030B106F4807018B1206C40F00B
:101F90000100206405F0040030B107F0010018B121
:101FA000206C40F00200206405F0020030B107F020
:101FB000010018B1206C40F00400206405F0080016
:101FC00048B106F0200010B907F0010018B1206CEC
:101FD00040F008002064206C68B305F0200028B1B0
:101FE00006F0200010B1204600F005FD2068406991
:101FF000C0F3801A206C00F0080010B9BAF1000F8D
:1020000022D0204600F0CCFC2068406900F040005F
:10201000B0B12068406920F0400021684861A06BA1
:1020200050B15648A16B4863A06BFEF78BFD10B111
:10203000A06B416B88470CE02046FFF779FF08E072
:102040002046FFF775FF04E02046FFF771FF0020F0
:10205000206489E7FFE7206B012878D105F01000A4
:10206000002874D006F01000002870D000BF0020B7
:10207000009020680068009020684068009000BFD1
:1020800000BF2068406900F04000C0B3A06B00684A
:1020900040681FFA80F8B8F1000F2FD0A08D40459E
:1020A0002CDDA4F82E80A06B806920281FD020682A
:1020B000C06820F480702168C8602068406920F002
:1020C0000100216848612068406920F040002168D3
:1020D0004861202084F83E00002020632068C0680A
:1020E00020F010002168C860A06BFEF7FFFCA08DF7
:1020F000E28D801A81B22046FFF719FF34E7FFE72F
:10210000A08DE18D401A1FFA80F8E08DE8B1B8F19A
:10211000000F1AD02068C06820F490702168C86051
:102120002068406920F0010021684861202084F87F
:102130003E00002020632068C06820F01000216865
:10214000C86041462046FFF7F2FE0DE7FFE705F0C5
:10215000800030B106F0800018B1204600F05FFD2D
:1021600002E705F0400030B106F0400018B120460B
:1021700000F031FCF8E600BFF6E600008D2900080B
:1021800010B504460CB9012010BDA06900B100E0F3
:1021900000BF94F83D0028B9002084F83C00204698
:1021A00000F028F8242084F83D002068C06820F45E
:1021B00000502168C860204600F090FC206800694B
:1021C00020F49040216808612068406920F02A00CE
:1021D000216848612068C06840F400502168C860E8
:1021E00000202064202084F83D0084F83E00002078
:1021F000CAE7000010B586B00446002002900390A4
:10220000049005903B492068884237D100BF3A4886
:10221000806940F48040384988610846806900F44C
:102220008040019000BF00BF00BF0846806940F0B9
:10223000040088610846806900F00400019000BF36
:1022400000BF48150290022003900320059002A9C8
:102250002A48FEF7E3FC4FF48060029000200390D0
:10226000049002A92548FEF7D9FC0022052125206B
:10227000FEF72AFF2520FEF717FF39E020492068E6
:10228000884235D100BF1C48C06940F400301A496B
:10229000C8610846C06900F40030019000BF00BF6B
:1022A00000BF0846806940F00400886108468069E4
:1022B00000F00400019000BF00BF04200290022043
:1022C00003900320059002A90C48FEF7A7FC082004
:1022D000029000200390049002A90848FEF79EFC9B
:1022E000002205212620FEF7EFFE2620FEF7DCFE69
:1022F00006B010BD00380140001002400008014047
:102300000044004070B504460D46164694F83E0061
:10231000202816D105B10EB9012070BD00BF94F878
:102320003C00012801D10220F7E7012084F83C009D
:1023300000BF0020206332462946204600F04CFCB6
:10234000EBE70220E9E7000010B5044606492068E3
:10235000884208D10548007802F0B0FB0122034909
:102360000348FFF7CFFF10BD0044004004000020E9
:10237000BC0100202DE9F84F04460E461746994649
:102380004FF0000A94F83D0020285AD106B117B941
:102390000120BDE8F88F00BF94F83C00012801D16E
:1023A0000220F6E7012084F83C0000BF00202064F2
:1023B000212084F83D00FEF7C7FD8246A784E7840C
:1023C000A068B0F5805F04D1206910B90025B0463F
:1023D00002E035464FF0000800BF002084F83C00C2
:1023E00000BF1BE05346002280212046CDF800901C
:1023F00000F045FC08B10320CBE745B9B8F8000070
:10240000C0F308002168486008F1020803E028785A
:10241000216848606D1CE08C401EE084E08C002840
:10242000E0D15346002240212046CDF8009000F034
:1024300026FC08B10320ACE7202084F83D000020F2
:10244000A7E70220A5E7704700BFFEE70EB5002012
:1024500000900190029019481949086081151848A8
:102460008160002101730121017581614FF46021B8
:10247000C161002012494860022111480161FEF744
:102480005DFA08B1FEF7A7F9002000900120019045
:102490000020029069460A48FEF7A0F908B1FEF74D
:1024A0009AF9012000900220019069460448FEF745
:1024B00095F908B1FEF78FF90EBD00000024014028
:1024C000F00000201CB502F091FA094A00210948E9
:1024D00001F0A4FB084908600020182103464FF4CE
:1024E0000072CDE9001005A1084803F08DFC1CBD69
:1024F00004640008DD270008000000207072696E87
:102500007465725F7461736B00000000114A00080B
:1025100000B585B00020019002900390049000BFA8
:102520003148806940F020002F4988610846806961
:1025300000F02000009000BF00BF00BF0846806987
:1025400040F0040088610846806900F004000090B3
:1025500000BF00BF00BF0846806940F008008861E6
:102560000846806900F00800009000BF00BF00220C
:102570004FF6C3711D48FEF7E1FC00224FF40061E5
:102580001B48FEF7DBFC1020019000200290012088
:10259000039001A91648FEF741FB4FF6C370019066
:1025A00001200290002003900220049001A90F480E
:1025B000FEF734FB4FF4807001900020029002205F
:1025C000039001A90A48FEF729FB4FF4006001902F
:1025D00001200290002003900220049001A90448E9
:1025E000FEF71CFB05B000BD00100240000C0140CE
:1025F0000008014010B50F480F4908604FF4827081
:1026000048604FF400410C4881600021C1600161C5
:1026100041614FF4007181612821C1610021016293
:10262000416281620A21C162FFF7C2F908B1FEF777
:10263000D2F810BD003001402001002010B50B4839
:102640000B4908604FF4E130486000210848816080
:10265000C16001610C21416100218161C161FFF70D
:102660008FFD08B1FEF7B7F810BD0000003801403B
:102670007801002010B50B480B4908604FF4E13099
:102680004860002108488160C16001610C214161FE
:1026900000218161C161FFF773FD08B1FEF79BF86E
:1026A00010BD000000440040BC01002000BFFEE758
:1026B00000BFFEE708B508490968C9084FF47A72F7
:1026C000B1FBF2F14143009100BF00BF00994A1EE7
:1026D00000920029F9D108BD14000020F8B5044685
:1026E0000D4616462B46002280212046009600F01B
:1026F00009F828B1606D40F0200060650320F8BD46
:102700000020FCE72DE9F84F04460D4690461E4692
:10271000DDF82890FEF718FCA0EB0900371AFEF749
:1027200013FC82462C480068C0F3CB3078430090FD
:1027300045E0701C002842D0FEF706FCA0EB0A0022
:10274000B84200D2A7BB2068406820F0E0002168B2
:1027500048606068B0F5827F0DD1A068B0F5004F89
:1027600003D0A068B0F5806F05D12068006820F024
:10277000400021680860A06AB0F5005F0DD100BF7D
:102780002068006820F40050216808602068006814
:1027900040F400502168086000BF012084F8510017
:1027A00000BF002084F8500000BF0320BDE8F88F70
:1027B000FFE7009800B900270098401E00902068AD
:1027C00080682840A84201D1012000E00020404557
:1027D000AFD10020EAE700001400002000F0C6FF9F
:1027E00001F086F901F088FA00224FF400610648F2
:1027F000FEF7A4FB00BF05A000F08AFA40F6B8304F
:1028000002F054FCF7E700000008014070696E74A4
:1028100065722072756E0A0008B56A460121094882
:10282000006802F083FE0098012809D1009838B1B1
:102830004FF0805004490860BFF34F8FBFF36F8F94
:1028400008BD0000E800002004ED00E010B500BF66
:10285000502080F31188BFF34F8FBFF36F8F00BFFD
:1028600003F076FB18B14FF080500449086000BFB8
:10287000002080F3118800BF10BD000004ED00E0CF
:1028800000B593B0282109A8FDF7F2FC142104A893
:10289000FDF7EEFC002000900190029003900120D3
:1028A000099000040A9000200B9001200D90022056
:1028B0001090C10311914FF4E011129109A8FEF795
:1028C00045FE08B1FDF787FF0F2004900220059018
:1028D000002006904FF480600790002008900221AD
:1028E00004A8FEF7DBFC08B1FDF775FF022000909D
:1028F000800302906846FEF739FC08B1FDF76BFFD4
:1029000013B000BD7047000010B50248FFF735FA5C
:1029100010BD00000002002010B50268184B98425C
:1029200008D0B0F1804F05D0164B984202D0164B1C
:10293000984203D122F070024B681A43104B984220
:1029400008D0B0F1804F05D00E4B984202D00E4B0C
:10295000984203D122F44072CB681A4322F08003DC
:102960004C6943EA040202608B68C3620B688362AD
:10297000034B984201D10B6903630123436110BDEE
:10298000002C0140000400400008004070B50546DE
:102990006C6A0020E085E0842046FFF7C9FA70BD2C
:1029A0000168C96821F490710268D16001684969C1
:1029B00021F0010102685161016B012905D1016813
:1029C000C96821F010010268D160202180F83E1012
:1029D00000210163704710B504462068C06820F0EC
:1029E00040002168C860202084F83D002046FFF7A1
:1029F0002AFD002010BDF8B5044694F83E002228B8
:102A000069D1A068B0F5805F0CD1206950B900256C
:102A1000A66A20684068C0F308003080A06A801C65
:102A2000A06215E0A56A0026A068B0F5805F03D01B
:102A3000A06828B9206918B920684068287004E0A7
:102A40002068406800F07F002870A06A401CA062E7
:102A5000E08D401E80B2E085A8BB2068C06820F0F1
:102A600020002168C8602068C06820F48070216858
:102A7000C8602068406920F001002168486120207A
:102A800084F83E00206B01281ED1002020632068BE
:102A9000C06820F010002168C8602068006800F05D
:102AA000100010280AD100BF0020009020680068A4
:102AB000009020684068009000BF00BFA18D2046B4
:102AC000FFF735FA03E004E02046FFF73DFC002065
:102AD000F8BD0020FCE70220FAE7000070B50446CC
:102AE0002168096921F44051E268114322681161AB
:102AF0002269A1681143626941EA02052168C96837
:102B000041F20C62914329432268D16021684969EE
:102B100021F44071A2691143226851612D4A216854
:102B2000914202D1FEF7B8FC01E0FEF7A5FC00EBF4
:102B3000C00101EB001162689200B1FBF2F100EB01
:102B4000C00202EB001263689B00B2FBF3F2642345
:102B5000B2FBF3F202EBC20303EB0212A1EB820120
:102B6000322202EB01116422B1FBF2F101F0F0011B
:102B700000EBC00202EB001263689B00B2FBF3F2B1
:102B80006423B2FBF3F201EB021200EBC00101EB94
:102B9000001163689B00B1FBF3F100EBC00303EB92
:102BA00000136668B600B3FBF6F36426B3FBF6F3D6
:102BB00003EBC30606EB0313A1EB8301322303EB04
:102BC00001116423B1FBF3F101F00F0111442268FC
:102BD000916070BD0038014010B5034699629A8536
:102BE000DA8500201864222083F83E0000BF002010
:102BF00083F83C0000BF1868C06840F480701C680F
:102C0000E0601868406940F001001C686061186865
:102C1000C06840F020001C68E060002010BD014644
:102C200091F83D00212828D18868B0F5805F0BD14C
:102C3000086948B90A6A1088C0F308000B68586030
:102C4000086A801C086205E00B6A581C0862187844
:102C50000B685860C88C401E80B2C88458B9086898
:102C6000C06820F080000B68D8600868C06840F039
:102C700040000B68D860002070470220FCE72DE977
:102C8000F04104460D4617469846069E21E0701C0A
:102C9000F8B12EB1FEF758F9A0EB0800B04218D9F0
:102CA0002068C06820F4D0702168C860206840693E
:102CB00020F0010021684861202084F83D0084F85C
:102CC0003E0000BF002084F83C0000BF0320BDE8A8
:102CD000F081206800682840A84201D1012000E06E
:102CE0000020B842D3D00020F1E7000010B5024820
:102CF000FFF720F910BD00007801002010B5024850
:102D0000FFF718F910BD0000BC01002000BFFEE76E
:102D10000FB4054B10B503A9044A029800F0FEF861
:102D200010BC5DF814FB00004D370008EC000020DB
:102D300002480068C0F30220704700000CED00E07C
:102D400010B5002804DB0A07130E054A135406E0E9
:102D50000A07140E034A00F00F031B1FD45410BDC2
:102D600000E400E018ED00E0EFF311807047EFF3AE
:102D700005807047EFF31080704702E008C8121F0B
:102D800008C1002AFAD170477047002001E001C154
:102D9000121F002AFBD170472DE9FF5F82B000218E
:102DA000DDE90430020DDDF840B0034318D044F6ED
:102DB0001050A2F2FF3242431514119801281FD07F
:102DC000A5EB0B00401C5FEA000A4FF000064E4FD7
:102DD000DFF83891B046504615D5CAF1000413E02B
:102DE000119801244AA3012801D16FEA0B0102982E
:102DF000119AC0E90031C0E9024206B0BDE8F09F77
:102E0000CBF10000DFE704460021404A491842EBBD
:102E10000450CDE9001012E0E00707D032463B46EF
:102E200040464946FDF7EFFA8046894632463B4622
:102E300010461946FDF7E7FA06460F466410002CC7
:102E4000EAD1DDE90401DDE90023BAF1000F06DA79
:102E5000FDF7D9FA42464B46FDF7D5FA05E0FDF7F6
:102E600044FB42464B46FDF740FB04460E4600221B
:102E7000284BFDF755FC03D84FF0FF30014607E023
:102E80000022254B20463146FDF716FAFDF730FCAF
:102E9000102409E0002C0ADB0A220023FDF78EF93A
:102EA000039B30321A55641E50EA0102F2D1641CB1
:102EB000039AC4F111031444119A012A03D0012288
:102EC00008430DD10AE0084304D000204FF0110B55
:102ED000119072E7A3EB0B056D1E0DE05B4504DD61
:102EE0004FF0000205F1010504E003DA4FF00002A3
:102EF000A5F10105002AECD002981199C0E9023130
:102F0000C0E9004579E70000000014400000F03FF0
:102F1000300000000000F0430000E03F2DE9FF4FCB
:102F200095B09B468946064600250FE2252877D1B5
:102F300000242746F84A0121059400E0044316F8CE
:102F4000013F203B01FA03F01042F7D130782A28E4
:102F500011D06FF02F033078A0F13002092A16D873
:102F6000059A44F0020402EB820203EB4202104491
:102F7000761C0590EFE759F8042B0592002A03DA36
:102F8000504244F40054059044F00204761C30781A
:102F90002E2816D116F8010F44F004042A280DD06B
:102FA0006FF02F023078A0F13003092B09D807EB1E
:102FB000870302EB4303C718761CF3E759F8047B39
:102FC000761C30786C280FD006DC4C2817D0682887
:102FD0000DD06A2814D104E0742810D07A280FD1BB
:102FE0000DE044F400140AE044F4801401E044F4D9
:102FF00040147278824202D104F58014761C761C4B
:10300000307866280BD013DC582877D009DC0028EC
:1030100075D04528F6D04628F4D047281AD19DE12E
:1030200018E0632835D0642879D0652812D195E15D
:10303000702873D008DC6728F1D069286FD06E281B
:103040000DD06F2806D1B5E073282CD0752875D027
:10305000782874D05A46179990476D1C75E1C4F3CF
:103060000250022809D003280DD0D9F800100428F6
:103070000DD00D6009F1040967E1D9F80010EA17D5
:10308000C1E90052F6E7D9F800100D80F2E70D70A3
:10309000F0E719F8041B8DF8001000208DF80100EE
:1030A000EA46012003E059F804AB4FF0FF30610716
:1030B0004FF0000102D40DE008F101018846B94249
:1030C0000FDA8045F8DB1AF808100029F4D108E07F
:1030D00008F1010188468142FADB1AF8081000293C
:1030E000F6D105985B46A0EB080721463846179AAB
:1030F00000F094FA284400EB080507E04DE029E1D0
:103100000DE01AF8010B5A4617999047B8F10108DB
:10311000F7D25B4621463846179A13E142E00A226D
:103120000092C4F302524FF0000A022A08D059F864
:1031300004CB032A4FEAEC710AD00DE029E02AE023
:1031400009F1070121F00702F2E802C1914609E006
:103150000FFA8CFC4FEAEC71042A03D14FFA8CFC75
:103160004FEAEC71002907DA0A460021DCF1000C75
:1031700061EB02012D2202E0220504D52B228DF8FD
:103180000420012203E0E20701D02022F7E7904665
:1031900059E00A2102E010220DE010214FF0000A50
:1031A00000910BE010224FF0000A44F004040827BD
:1031B000009203E008224FF0000A0092C4F302528A
:1031C000022A05D059F804CB0021032A08D009E0CF
:1031D00009F1070121F00702F2E802C1914605E07A
:1031E0001FFA8CFC042A01D10CF0FF0C4FF00008F0
:1031F000220728D5702806D0009B83F0100353EADD
:103200000A0305D00EE040228DF80420012208E0D8
:103210005CEA010206D030228DF804208DF805000A
:1032200002229046009B83F0080353EA0A030AD166
:103230005CEA010201D1620705D530228DF8042035
:103240004FF001087F1E582804D034A003900EA828
:1032500002900DE036A0F9E753466046009AFCF76D
:10326000ADFF84460398825C0298401E0290027073
:103270005CEA0100F0D1029806A9081A00F1200AC0
:10328000600702D524F4803400E00127574502DDB1
:10329000A7EB0A0000E0002000EB0A01009005986F
:1032A0004144401A0590E00306D45B462146179A34
:1032B000059800F0B3F90544002706E001A85A4636
:1032C000C05D179990476D1C7F1C4745F6DBE003F6
:1032D0000CD55B462146179A059800F09FF90544E6
:1032E00004E030205A46179990476D1C0099481EFB
:1032F00000900029F5DC08E0029802995A4600780F
:10330000491C0291179990476D1CBAF10001AAF16E
:10331000010AF1DC65E10000092801003031323397
:103320003435363738396162636465660000000001
:1033300030313233343536373839414243444546EB
:103340000000000000F058F90544761C3078002891
:103350007FF4ECAD19B02846BDE8F08F620700D4C9
:10336000062709F1070222F0070CFCE80223E146D8
:1033700003F000485FEA080C02D00FF2702C0DE059
:103380005FEA045C02D50FF2682C07E05FEAC47CB8
:1033900002D00FF2602C01E0AFF2700C4FF0FF385A
:1033A00023F00043CDF850C065280CD006DC45283A
:1033B00009D046281DD047283DD13DE0662818D0C9
:1033C00067287ED138E00021112F01DB112000E0B9
:1033D000781CCDE9000106A90EA8FFF7DDFCDDE9A8
:1033E0000F010E9A03910021009207F1010A049146
:1033F0004DE04FF000400097CDE9011006A90EA85E
:10340000FFF7CAFCDDE90F0203920E9B119900221F
:10341000DDF80CA00093049211B9791C00EB010AAD
:10342000B7EB0A0004D4C0F1FF3007F1010A0490A1
:10343000AAEB0700019044E0012F00DA01270021E8
:10344000112F01DD112000E03846CDE9000106A969
:103450000EA8FFF7A1FCDDE90F010E9A03910021F0
:1034600004910092BA4621070CD40399514500DA21
:103470008A46BAF1010F05DD009AAAF10101515CFB
:10348000302908D0B84202DA10F1040F06DA01211F
:10349000CDE9011015E0AAF10101E9E7002805DCFA
:1034A000049901440491AAEB000102E0411C51453A
:1034B00000DD8A460499401A401C01904FF00040FC
:1034C0000290200704D40198504501DBCDF8048018
:1034D00000208DF84F0002980DF14F07B0F1004F1A
:1034E00025D02B200E9002984FF0020800280CDA0D
:1034F000404202902D200E9007E00A210298FDF72D
:1035000063F83031029007F8011DB8F10001A8F10D
:103510000108F2DC02980028EFD1791E0E9808709D
:10352000307800F0200040F0450007F8020D12A8A6
:10353000C01B00F107081498007800B1012000EBCF
:103540000A01019801EBE07105984144401A401EC0
:103550000590E00306D45B462146179A059800F0D3
:103560005DF805441498007818B15A4617999047A9
:103570006D1CE00324D55B462146179A059800F0A0
:103580004DF805441CE00498002807DBDDE9030141
:10359000884203DD0098405C179901E017993020BC
:1035A0005A469047049805F10105401C0490019883
:1035B000401E019004D12E205A46179990476D1C49
:1035C000BAF10001AAF1010ADDDC05E017F8010BF0
:1035D0005A46179990476D1CB8F10001A8F10108EF
:1035E000F4DC5B462146179A0598ABE62D000000F7
:1035F0002B000000200000002DE9F04104460025CA
:103600001E461746880404D405E039462020B047FA
:103610006D1C641EF9D52846BDE8F0812DE9F04106
:10362000044600251E469046C80301D5302700E019
:103630002027880404D505E041463846B0476D1C74
:10364000641EF9D52846BDE8F0810000002002493B
:103650000870024908607047B20000209400002002
:1036600070B504460D46172C06D1EAB24FF400712E
:103670000E48FDF763FC17E0162C06D1EAB24FF4B2
:1036800080710A48FDF75AFC0EE0152C05D1EAB20C
:1036900080210648FDF752FC06E0132C04D1EAB263
:1036A00040210248FDF74AFC70BD0000000C0140BB
:1036B00070B504460D461A2C06D1EAB24FF480616B
:1036C0001B48FDF73BFC32E01B2C06D1EAB24FF45D
:1036D00000611748FDF732FC29E00E2C06D1EAB252
:1036E0004FF480511248FDF729FC20E0202C05D131
:1036F000EAB221020E48FDF721FC18E0212C06D188
:10370000EAB24FF480410A48FDF718FC0FE0192C8B
:1037100006D1EAB24FF400410548FDF70FFC06E080
:103720000C2C04D1EAB202210148FDF707FC70BD60
:10373000000C014070B505460C46E2B24FF4006142
:103740000148FDF7FBFB70BD0008014038B5044699
:103750000D46E0B200904FF0FF3301226946024867
:10376000FEF708FE204638BD7801002010B5D3E0F2
:1037700075480068401C74490860C82001F096FC38
:103780007248007818B171480078012813D170A0F0
:10379000FFF7BEFA74480068FCF787FD84B24FF665
:1037A000FF732246704801687048FEF7E3FD012070
:1037B00066490870ABE065480078022803D063488A
:1037C0000078032813D16AA0FFF7A2FA73480068B3
:1037D000FCF76BFD84B24FF6FF7322466F48016819
:1037E0006248FEF7C7FD0320584908708FE057482C
:1037F0000078042803D055480078052813D168A024
:10380000FFF786FA6E480068FCF74FFD84B24FF66A
:10381000FF7322466A4801685448FEF7ABFD052055
:103820004A49087073E049480078062803D04748A1
:103830000078072813D163A0FFF76AFA6848006888
:10384000FCF733FD84B24FF6FF73224664480168EB
:103850004648FEF78FFD07203C49087057E03B487B
:103860000078082803D0394800780A2816D15DA0CE
:10387000FFF74EFA62480068FCF717FD84B24FF676
:10388000FF7322465E4801683848FEF773FD0A2040
:103890002E49087001205B49087038E02B480078F9
:1038A0000B2807D029480078092803D0274800783A
:1038B0000C2813D154A0FFF72BFA59480068FCF7E5
:1038C000F4FC84B24FF6FF7322465548016827483E
:1038D000FEF750FD0C201D49087018E01B480078C9
:1038E0000D2800D119E0194800780E280FD14DA0FD
:1038F000FFF70EFA4A480068FCF7D7FC84B24FF68F
:10390000FF732246464801681848FEF733FD0F480A
:1039100001784CA0FFF7FCF92AE700BF394800788E
:1039200018B14EA0FFF7F4F902E056A0FFF7F0F946
:103930004FF47A7001F0BAFB00205B490860642103
:103940005A48FCF795FC10BDC0000020B0000020D4
:10395000424C453AE6ADA3E8BF9BE585A54154E658
:10396000A8A1E5BC8F0A000098000020BC0100203F
:10397000424C453AE6ADA3E59CA8E8AEBEE7BDAE35
:1039800073746174757320E585B3E997ADE78AB602
:10399000E68081E698BEE7A4BA5C6E009C00002039
:1039A000424C453AE6ADA3E69FA5E8AFA2E78AB64A
:1039B000E68081E698AFE590A6E4B8BA300A000048
:1039C000A0000020424C453AE6ADA3E69FA5E8AF33
:1039D000A2E8AEBEE5A487E5908DE7A7B05C6E00D7
:1039E000A4000020424C453AE6ADA3E8AEBEE7BDD8
:1039F000AEE8AEBEE5A487E5908DE7A7B05C6E00AB
:103A0000A8000020B1000020424C453AE6ADA3E9F1
:103A10008080E587BA4154E6A8A1E5BC8F0A000082
:103A2000AC000020424C453A424C4520524553459B
:103A30005420E98080E587BA4154E6A8A1E5BC8F0F
:103A40000A000000675F626C655F696E69745F738E
:103A5000746570203D2025640A000000E9858DE72B
:103A6000BDAEE5AE8CE688902DE8AFB7E9878DE571
:103A700090AFE8AEBEE5A487E4BDBFE794A85C6E56
:103A800000000000E9858DE7BDAEE5AE8CE68890CC
:103A90002DE58FAFE4BBA5E6ADA3E5B8B8E4BDBFA7
:103AA000E794A80A00000000B40000201C2F0020AA
:103AB000FDF75CFAFEF7E4FEFEF72AFDFEF7BEFD19
:103AC000FEF7C4FCFEF7D6FDFEF794FD0122064981
:103AD0000648FEF717FC00F05FF8FEF7F3FC00F075
:103AE0007BF800BFFEE7000004000020BC010020BE
:103AF00010B500211720FFF7B3FD00211620FFF7B6
:103B0000AFFD00211520FFF7ABFD00211320FFF7CB
:103B1000A7FD10BD70B50546002625E000241FE076
:103B2000134810F824101720FFF79AFD104800EBF7
:103B3000840041781620FFF793FD0D4800EB8400C8
:103B400081781520FFF78CFD094800EB8400C178CF
:103B50001320FFF785FD0220FDF74CF8601CC4B26E
:103B6000082CDDDB701CC6B2AE42D7DB70BD000096
:103B7000C400002010B500211720FFF771FD0021BF
:103B80001620FFF76DFD00211520FFF769FD0021CC
:103B90001320FFF765FD10BD10B5FFF7E8F848B931
:103BA000FFF7E8F830B90B480068022805D1FFF7A5
:103BB000DBF810B16FF0050409E00648006820B991
:103BC000012004490860002401E04FF0FF34204642
:103BD00010BD00006800002010B5FFF7C8F848B914
:103BE000FFF7C8F830B90C480068022805D1FFF784
:103BF000BBF810B16FF005040CE00748006801281D
:103C000006D102200449086001F052FB002401E0C3
:103C10004FF0FF34204610BD680000202DE9F0472A
:103C200086B080468946144600200490FFF79FF82E
:103C300000285DD1FFF79EF8002859D12D48006873
:103C4000022803D1FFF790F8002851D1B8F1000FF6
:103C50004ED080261825002005900DF1140A471E2D
:103C600044B3206808B1D4F800A0A06900B1A569E8
:103C70002DB1382D03D8207900F0010018B10020B3
:103C800006B0BDE8F087606908B160698608A06881
:103C900040B1E0685C2805D3206918B1606908B1BB
:103CA000012708E0A06830B9E06820B9206910B9A0
:103CB000002700E00027012F0CD12169A0684B46A6
:103CC0003246CDE9005102905146404602F0CEF80E
:103CD00004900DE067B904A8B2B24B465146CDE955
:103CE0000050404602F090F8012801D000200490D6
:103CF0000498C5E76800002010B500211120FFF7E7
:103D000019FD01210C20FFF7D3FC00F01FF810BDB6
:103D100070B505463021284600F050FE0120FFF71F
:103D2000F9FE002403E0E0B200F0DCFD641C062C88
:103D3000F9DB70BD10B501210C20FFF7B9FC00F0D4
:103D400005F801211120FFF7F5FC10BD10B5002189
:103D50001A20FFF7ADFC00211B20FFF7A9FC002172
:103D60000E20FFF7A5FC00212020FFF7A1FC002179
:103D70002120FFF79DFC00211920FFF799FC10BDC1
:103D800010B501210C20FFF793FCFFF7DFFF0021A6
:103D90001120FFF7CFFC10BD2DE9F04105460E467E
:103DA0001648076816480068001D00F0D3FF681C1D
:103DB00038B936B112480168091D124801F04CF8B3
:103DC0001AE07C190E4800684460BC4207D20C48D7
:103DD0000168091D0C48006801F024F80CE008484F
:103DE0000168091D0948006801F01CF808480068CE
:103DF000844201D206480460BDE8F0812C00002016
:103E00001800002038070020200000201C0000209F
:103E10004800002010B5044601F02AF82448006844
:103E2000401C234908602348006840B921480460C9
:103E30000846006801280DD100F0F8F90AE01E4894
:103E4000006838B91B480068C06AE16A884201D836
:103E50001848046019480068401C18490860084662
:103E6000006860641649E06A0968884202D914490A
:103E7000E06A0860E16A01EB8101124A02EB81000D
:103E8000211D00F0E9FF01F01DF80B48006868B142
:103E900008480068C06AE16A884207D24FF0805043
:103EA00009490860BFF34F8FBFF36F8F10BD00004B
:103EB00028000020180000203400002044000020CA
:103EC000300000208802002004ED00E008B500F07A
:103ED000CFFF12480068E8B9114800F093FF11487D
:103EE00000F090FF0E48104908600E480F49086026
:103EF00000200F4B0F4A102100900A2001F07FFC98
:103F0000064908600846006820B10BA10348006814
:103F100001F090F800F0D6FF08BD00005C00002022
:103F20004C070020600700205400002058000020AB
:103F300074070020C4070020546D72510000000077
:103F400010B516E000F094FF0C48C068C468201D4E
:103F500000F000FF0A480068401E0949086009484F
:103F60000068401E0749086000F0ACFF204600F0E2
:103F70005EF8044800680028E4D110BD2407002042
:103F8000280000202400002070B504460D46206C57
:103F900070B1216CE0680844E0606168E0688842C4
:103FA00001D32068E0602846226CE168FCF747F9FD
:103FB00070BD2DE9F04104460F4615464FF000084C
:103FC000A66B206C40B9206860BB606802F062F8A4
:103FD00080460020606025E07DB93946226CA068EB
:103FE000FCF72DF9216CA0680844A060D4E9011009
:103FF000884217D32068A06014E03946226CE0683C
:10400000FCF71DF9216CE068401AE0602168E06867
:10401000884203D2216C6068401AE060022D01D111
:1040200006B1761E701CA0634046BDE8F08110B555
:10403000044694F8590030B9206B00F061FF204627
:1040400000F05EFF1AE094F85900012803D12046E1
:1040500000F056FF12E094F85900022801D1012027
:1040600000E0002050B900BF502080F31188BFF35A
:104070004F8FBFF36F8F00BF00BFFEE710BD000082
:104080000146084A126812680AB9012200E00022BB
:104090000A600A6822B9034A1268D268106800E010
:1040A000002070475400002030B54FF400531748EB
:1040B00000F007042CB1C01D20F00700134C041BB6
:1040C0001B1B0246124C22600024114D6C60D0185C
:1040D000083820F007000F4C206000240D4D2D689B
:1040E0006C600C4D2D682C601146441A4C60094CD4
:1040F00024680C60084D4C682C60084D4C682C609E
:104100004FF00044064D2C6030BD00001C0F002015
:104110006C000020740000207C000020780000204B
:104120008000002000BFFFF70BFF06480068012851
:10413000F9D94FF0805004490860BFF34F8FBFF3A7
:104140006F8FF0E78802002004ED00E02DE9F041D8
:1041500006460D4617469846069C0DB9246000E0B9
:104160002760E66325640121204601F0B7FB84F84F
:104170004C80BDE8F0812DE9F05F82460F46904605
:104180009B460A9E0C9C4FEA8801A522206BFCF7F7
:1041900068F8A8F10100216B01EB800929F00709FB
:1041A00009F0070008B9012000E0002050B900BF65
:1041B000502080F31188BFF34F8FBFF36F8F00BF84
:1041C00000BFFEE7002507E0795D04F134004155AA
:1041D000785D00B902E06D1C102DF5D300BF002101
:1041E00043200155382E00D33726E662E6640020CE
:1041F0002065201D00F013FE04F1180000F00FFEF2
:104200002461C6F13800A06164620020606584F812
:1042100058005A465146484600F052FB20600B9821
:1042200008B10B980460BDE8F09F000010B50024B1
:1042300007E004EB84010F4A02EB810000F0E2FD8D
:10424000641C382CF5D30C4800F0DCFD0B4800F062
:10425000D9FD0B4800F0D6FD0A4800F0D3FD0A480E
:1042600000F0D0FD04480949086004480849086086
:1042700010BD000088020020E8060020FC06002097
:104280001007002024070020380700201C00002011
:104290002000002010B50146164800E000680368C1
:1042A0008B42FBD30246436813448B4204D14368DC
:1042B0004C682344436001460A464B681344046833
:1042C000A34211D10C4C03682468A34208D04B6868
:1042D0000468646823444B6003681B680B6005E056
:1042E000054B1B680B6001E003680B60884200D03F
:1042F000016010BD6C000020740000202DE9F04129
:1043000004460D4616461F464FF0000865602461BE
:10431000B5420CD8F01BA169884202D34FF00108C6
:1043200011E0211D0948006800F07CFD0BE0BE4251
:1043300004D2BD4202D34FF0010804E0211D04481D
:10434000006800F06FFD4046BDE8F0815800002095
:104350005400002070B5054600F08AFDA86B08B92E
:10436000012400E0002400F0ADFD204670BD70B5D2
:10437000054600F07DFDA86BE96B884201D1012460
:1043800000E0002400F09EFD204670BDF8B5054613
:104390000F4616480068C068C468201D00F0DAFCAB
:1043A000E06901281DD1A06941192B463A462046F3
:1043B000FFF7A4FFA8B1002003462A46014600905B
:1043C000204601F0C3FF064656B900BF502080F3D7
:1043D0001188BFF34F8FBFF36F8F00BF00BFFEE7A1
:1043E00000BF2046616A8847F8BD000054000020E5
:1043F000F0B587B082E00398002811DA04AE56B910
:1044000000BF502080F31188BFF34F8FBFF36F8F31
:1044100000BF00BFFEE7D6E90020B168904700BFAB
:10442000039800286ADB059C606908B9012000E058
:10443000002010B9201D00F08DFC02A800F0C0F88B
:10444000054603980A2857D2DFE800F0090507312E
:10445000334F0608323400BF00BF00BF00BF0498CE
:10446000A269811803462A462046FFF747FFE8B1B4
:104470002046616A8847E069012817D10020009032
:104480000498A169421800231946204601F05EFFF6
:10449000074657B900BF502080F31188BFF34F8FF4
:1044A000BFF36F8F00BF00BFFEE700BF25E000BF76
:1044B00023E000BF0498A061A06908B1012000E0DA
:1044C000002050B900BF502080F31188BFF34F8FF8
:1044D000BFF36F8F00BF00BFFEE7A06941192B46F5
:1044E0002A462046FFF70AFF07E094F82C0010B98F
:1044F000204600F005FD00E000BF00BF002203A938
:104500000448006801F086FB00287FF474AF07B010
:10451000F0BD00005C000020F8B505460C4600F038
:1045200023FF684600F04CF80646009820BB44B9CB
:10453000B54206D801F04CFE31462846FFF726FF6B
:104540001CE03CB10E480068006808B9012000E09A
:1045500000200446A91B22460A48006800F080FD9E
:1045600001F036FE50B94FF0805007490860BFF3A4
:104570004F8FBFF36F8F01E001F02AFEF8BD0000FE
:10458000580000205C00002004ED00E00A490968A2
:10459000096809B9012100E0002121B14FF0FF3184
:1045A000064A116006E004490968C968C868034AF8
:1045B00041681160704700001C0000204800002086
:1045C00070B5044601F0BEFC054607480068854208
:1045D00004D200F00BF80120206001E000202060F0
:1045E00001480560284670BD640000202DE9F843AD
:1045F00032E024480068C068056822480068C06846
:10460000C468201D00F0A6FB2046616A8847E06967
:10461000012821D1A0694619AE4207D966602461FC
:10462000211D1848006800F0FDFB15E0002003463E
:104630002A4601460090204601F088FE074657B9F9
:1046400000BF502080F31188BFF34F8FBFF36F8FEF
:1046500000BF00BFFEE700BF0A480068006808B955
:10466000012000E000200028C3D00648D0F80080D8
:1046700005480068034908600348C0F80080BDE8A9
:10468000F883000054000020580000200E48006805
:10469000401C08B9012000E0002050B900BF5020A4
:1046A00080F31188BFF34F8FBFF36F8F00BF00BF40
:1046B000FEE700BF502080F31188BFF34F8FBFF398
:1046C0006F8F00BF00BFFEE78400002010B50346D7
:1046D000002022B903EA010434B1012004E003EA16
:1046E00001048C4200D1012010BD08B500BF68460E
:1046F000FFF7C6FC044620460099FFF70DFFFFF7C1
:1047000077FEF4E770B5044600F0B2FB94F945502B
:1047100010E0606A08B9012000E0002038B904F117
:10472000240001F009FD18B100F0FAFC00E003E0FC
:10473000681E45B2002DECDC00BFFF2084F8450068
:1047400000F0C0FB00F094FB94F9445010E02069A5
:1047500008B9012000E0002048B904F1100001F080
:10476000EBFC08B100F0DCFC681E45B200E001E0A3
:10477000002DECDC00BFFF2084F8440000F0A2FB19
:1047800070BD00002DE9F04104464FF0000800F034
:10479000EBFD4648006808B9FFF786FC444800680E
:1047A000204000286BD1D4B1083404F00700B0B128
:1047B00004F00700C0F10800044404F0070008B941
:1047C000012000E0002050B900BF502080F3118884
:1047D000BFF34F8FBFF36F8F00BF00BFFEE7002C0A
:1047E0004DD034480068844249D8334E304605687D
:1047F00001E02E462D686868A04202D22868002891
:10480000F7D12A480068854239D0306800F108089D
:10481000286830606868001B102819D92F1907F024
:10482000070008B9012000E0002050B900BF502067
:1048300080F31188BFF34F8FBFF36F8F00BF00BFAE
:10484000FEE76868001B78606C603846FFF722FD61
:10485000184968680968081A164908600846006817
:1048600016490968884203D2124800681349086053
:104870000F4968680968084368600020286001F0F3
:10488000A7FC08F0070008B9012000E0002050B99B
:1048900000BF502080F31188BFF34F8FBFF36F8F9D
:1048A00000BF00BFFEE74046BDE8F0817400002075
:1048B00080000020780000206C0000207C00002098
:1048C000001F4FF080730360001F21F0010303609D
:1048D000001F034B0360143802602038704700004B
:1048E0008D46000810B50446062C64D2DFE804F0BB
:1048F00003132333435301211920FEF7D9FE40F25D
:10490000A46000F003FA00211920FEF7D1FEC820B0
:1049100000F0FCF950E001212120FEF7C9FE40F231
:10492000A46000F0F3F900212120FEF7C1FEC820A9
:1049300000F0ECF940E001212020FEF7B9FE40F242
:10494000A46000F0E3F900212020FEF7B1FEC820AA
:1049500000F0DCF930E001210E20FEF7A9FE40F264
:10496000A46000F0D3F900210E20FEF7A1FEC820BC
:1049700000F0CCF920E001211B20FEF799FE40F267
:10498000A46000F0C3F900211B20FEF791FEC820AF
:1049900000F0BCF910E001211A20FEF789FE40F278
:1049A000A46000F0B3F900211A20FEF781FEC820B0
:1049B00000F0ACF900E000BF00BF10BD70B50446C8
:1049C0000D46AAB24FF0FF3321460748FDF78AF89B
:1049D00000210C20FEF76CFE012000F097F9012168
:1049E0000C20FEF765FE70BD2001002010B50022EE
:1049F0003021642000F0D4FE0349086000F020FD5F
:104A00000249086010BD0000E4000020E80000201A
:104A10008EB0302102A8FBF72BFC3BE04FF0FF30BB
:104A200001230022194600901B48006800F090FD09
:104A30001AA0FEF76DF9FFF77DF925E01BA0FEF740
:104A400067F94FF0FF3202A91A48006801F0E2F856
:104A5000002405E002A8015D17A0FEF759F9641CC7
:104A6000302CF7DB02A8FFF753F91248006800F07A
:104A700085F948B9FEF7EAFDFFF782F98C20FFF7C8
:104A800049F8FFF777F800E0D8E700BF4FF4FA7075
:104A900000F00CFBC2E70000E80000207072696EB5
:104AA000742073746172740A0000000064617461A0
:104AB0003A0A0000E40000202564200070B5044696
:104AC000774801680068401C754A10607548445476
:104AD0000546754800780D2879D174A12846FBF762
:104AE000D2FB10B101207449087074A12846FBF76D
:104AF000CAFB10B101207049087074A12846FBF769
:104B0000C2FB10B101206C49087065480068052897
:104B10003CD164480078A52818D162484078A5287F
:104B200014D160488078A52810D15E48C078A528A7
:104B30000CD15C480079012800D000BF0020584902
:104B4000086064215748FBF793FB70BD5548007817
:104B5000A6281BD153484078A62817D15148807801
:104B6000A62813D14F48C078A6280FD15B480078FB
:104B700020B9012059490870FDF74EFE0020484930
:104B8000086064214748FBF773FBDEE74448006890
:104B900030281ADB434800F037FC51480068401CBD
:104BA0004F49086008460068322807D94B4800780A
:104BB00020B9012049490870FDF72EFE0020384930
:104BC000086064213748FBF753FB66E0FFE745A127
:104BD0002846FBF758FB002850D0334800780128BE
:104BE00003D102203049087040E02F4800780328A4
:104BF00003D104202C49087038E02B48007807289E
:104C00000CD13AA12846FBF73EFB18B108202649F3
:104C100008702BE009202449087027E0224800781A
:104C20000A2803D10B20204908701FE01E48007895
:104C30000C2803D10D201C49087017E01A48007891
:104C40000E2803D10020184908700FE0164800789C
:104C500005280BD128A12846FBF715FB18B1062023
:104C60001149087002E003200F49087000200C4928
:104C7000086064210B48FBF7FBFA66E721A1284690
:104C8000FBF701FB10B10E200749087004480068CB
:104C9000642802D300200249086000BF55E70000E5
:104CA000B40000201C2F0020B0000020434F4E4EC7
:104CB0004543544544000000B80000204449534394
:104CC0004F4E4E454354454400000000444556496C
:104CD0004345204552524F5200000000B2000020D0
:104CE000940000204F4B0D0A0000000052462D4357
:104CF00052415A590000000041542B53544154551D
:104D0000533D30004552524F520D0A00F0B5044653
:104D10000F4A00231768FD6A04FB05F74FF47A7CFD
:104D2000B7FBFCF61768796A0FE01768786A884263
:104D30000BD0884202D9471A3B4402E06F1A07445D
:104D40003B440146B34200D300E0EEE700BFF0BDB4
:104D50000002002001460A69D1E901309860D1E9DA
:104D6000010358605068884201D188685060002073
:104D700008611068401E10601068704770B50446E6
:104D800054B900BF502080F31188BFF34F8FBFF399
:104D90006F8F00BF00BFFEE700F06AF8A56B00F060
:104DA00091F8284670BD00000549096888690449E2
:104DB0000968C96AC1F13801014A126891617047F6
:104DC00018000020034B0360034B0B60802313602B
:104DD0007047000064080020C0080020034B0360F7
:104DE000034B0B604FF4807313607047C00A0020C0
:104DF0001C0B002070B504460D462946204600F0E5
:104E00002EFB70BD00F1080141604FF0FF31816061
:104E100000F10801C16001610021016070470021BB
:104E20000161704710B502460B685C1C0CB9106933
:104E300007E002F1080000E04068446824689C42F2
:104E4000FAD944684C604C68A160886041600A618E
:104E50001468641C146010BD42684A6093688B60DB
:104E6000936859609160086103685B1C0360704738
:104E700000BF502080F31188BFF34F8FBFF36F8FB7
:104E800000BF0E480068401C0C49086008460068D6
:104E9000012812D10A480068C0B208B9012000E018
:104EA000002050B900BF502080F31188BFF34F8F0E
:104EB000BFF36F8F00BF00BFFEE770478400002084
:104EC00004ED00E00D48006850B900BF502080F3A9
:104ED0001188BFF34F8FBFF36F8F00BF00BFFEE796
:104EE00006480068401E054908600846006820B969
:104EF000002080F3118800BF00BF704784000020AD
:104F000070B506463546002E3FD0083D2C461F4959
:104F100060680968084008B1012000E0002050B92D
:104F200000BF502080F31188BFF34F8FBFF36F8F06
:104F300000BF00BFFEE7206808B9012000E00020A4
:104F400050B900BF502080F31188BFF34F8FBFF3DB
:104F50006F8F00BF00BFFEE70C496068096808401A
:104F600098B1206888B90949606809688843606019
:104F700000F0FAF9064960680968084404490860C5
:104F80002046FFF787F901F023F970BD800000206B
:104F90007800002000204FF0E02108618861064879
:104FA00000684FF47A71B0FBF1F0401E4FF0E02141
:104FB00048610720086170471400002070B5FBF7B6
:104FC000E7F80446102C16D304F1E02090F8F053D3
:104FD00015480078854201DB012000E0002050B92F
:104FE00000BF502080F31188BFF34F8FBFF36F8F46
:104FF00000BF00BFFEE70D48006800F4E0600C4908
:105000000968884201D8012000E0002050B900BFA3
:10501000502080F31188BFF34F8FBFF36F8F00BF15
:1050200000BFFEE770BD0000880000200CED00E02E
:105030008C000020024600200BE0084B53F8303073
:1050400033B9064B43F8301003EBC0035A6002E05B
:10505000401C0828F1D300BF704700004802002020
:105060002DE9F04105460E4617462C46FFF700FF96
:1050700094F94400401C10B9002084F8440094F9CD
:105080004500401C10B9002084F84500FFF71AFFC6
:10509000A06B28B93A46314604F1240000F062F8CA
:1050A0002046FFF72FFBBDE8F081000070B50446F5
:1050B0000025D4B11248006808B9012000E00020A2
:1050C00050B900BF502080F31188BFF34F8FBFF35A
:1050D0006F8F00BF00BFFEE700F046F900212046B9
:1050E000FEF75AFE01F074F805463DB94FF08050C6
:1050F00004490860BFF34F8FBFF36F8F70BD00008E
:105100005000002004ED00E00349096801600349F4
:105110000968416070470000400000202C0000201A
:1051200001200149086070473C00002070B504462A
:105130000D4654B900BF502080F31188BFF34F8F44
:10514000BFF36F8F00BF00BFFEE70548016818314D
:105150002046FFF767FE01212846FEF71DFE70BDC1
:105160001800002070B505460E46144655B900BF1C
:10517000502080F31188BFF34F8FBFF36F8F00BFB4
:1051800000BFFEE70648016818312846FFF764FEB5
:105190000CB14FF0FF3621463046FEF7FDFD70BDE5
:1051A0001800002070B504460D46164654B900BFDD
:1051B000502080F31188BFF34F8FBFF36F8F00BF74
:1051C00000BFFEE71048006808B1012000E00020A1
:1051D00050B900BF502080F31188BFF34F8FBFF349
:1051E0006F8F00BF00BFFEE745F000400749096828
:1051F00088610648016818312046FFF72DFE01211D
:105200003046FEF7C9FD70BD500000201800002098
:1052100070B505460E462148006808B1012000E03F
:10522000002050B900BF502080F31188BFF34F8F8A
:10523000BFF36F8F00BF00BFFEE746F0004028605D
:10524000EC6854B900BF502080F31188BFF34F8F32
:10525000BFF36F8F00BF00BFFEE72846FFF77AFD60
:10526000201DFFF777FD0E49E06A0968884202D9E0
:105270000B49E06A0860E16A01EB8101094A02EB2F
:105280008100211DFFF7E8FD0749E06A0968C96A46
:10529000884202D901200549086070BD50000020F5
:1052A0003000002088020020180000203C00002070
:1052B00010B586B000200590049003AA04A905A8A3
:1052C000FFF780FD0022DDE904101346CDE900213F
:1052D00002901EA11F48039A00F0C8FD1E490860F5
:1052E0000846006808B1012400E00024012C02D126
:1052F00000F0F0FF0446012C15D100BF502080F3D0
:105300001188BFF34F8FBFF36F8F00BF4FF0FF3097
:105310001249086001201249086000201149086004
:1053200000F0C2F910E0601C08B1012000E000208C
:1053300050B900BF502080F31188BFF34F8FBFF3E7
:105340006F8F00BF00BFFEE706B010BD49444C455B
:1053500000000000254100084C000020480000200B
:10536000340000202C00002002480068401C014945
:1053700008607047500000201E48006818B10120E6
:105380001D49086034E000201B4908601B48016883
:105390000CE051B900BF502080F31188BFF34F8F4C
:1053A000BFF36F8F00BF00BFFEE7491E01EB810016
:1053B000134A52F8200008B9012000E0002000281C
:1053C000E7D101EB81020E4B03EB82004268526889
:1053D000426000F108024368934202D14268526879
:1053E00042604268D268074B1A600448016000BFFF
:1053F00070470000500000203C00002030000020DA
:10540000880200201800002038B5044600236A46B0
:1054100021460948006800F081FB0098012809D165
:10542000009838B14FF0805004490860BFF34F8FA7
:10543000BFF36F8F38BD0000E400002004ED00E0F2
:1054400010B52020FFF79EF9044634B100202060FB
:10545000201DFFF7D7FC00202077204610BD2DE946
:10546000FE4F07468846002001903C46009057B901
:1054700000BF502080F31188BFF34F8FBFF36F8FB1
:1054800000BF00BFFEE708F07F4008B9012000E040
:10549000002050B900BF502080F31188BFF34F8F18
:1054A000BFF36F8F00BF00BFFEE704F1040909F1ED
:1054B00008000290FFF758FFD9F80C60206840EA16
:1054C0000800206026E0D6F804B03568002000907F
:1054D00005F07F4A25F07F450AF0806028B92068F2
:1054E000284040B10120009005E020682840A842F3
:1054F00001D101200090009858B10AF0807010B1DD
:10550000019828430190206840F000713046FFF771
:105510007FFE5E4602988642D5D120680199884375
:10552000206000F055FE2068BDE8FE8F2DE9F041B7
:1055300004460D46164633462A462146034800F0E7
:1055400047FF07463846BDE8F0810000F54D0008EA
:105550002DE9FF4F83B081460D461746DDF84080A8
:105560004C464FF0000A00200190B9F1000F0AD11B
:1055700000BF502080F31188BFF34F8FBFF36F8FB0
:1055800000BF00BFFEE705F07F4008B9012000E042
:10559000002050B900BF502080F31188BFF34F8F17
:1055A000BFF36F8F00BF00BFFEE70DB1012000E029
:1055B000002050B900BF502080F31188BFF34F8FF7
:1055C000BFF36F8F00BF00BFFEE700F0ABFC10B968
:1055D000B8F1000F01D1012000E0002050B900BF58
:1055E000502080F31188BFF34F8FBFF36F8F00BF40
:1055F00000BFFEE7FFF7B8FE206800902946069A34
:105600000098FFF763F80290029838B1009E4FF0BF
:105610000008C7B12068A843206014E0B8F1000F6B
:1056200003D1009E012001900DE00FB14AF0807A75
:10563000069808B14AF0806A45EA0A014246201DF0
:10564000FFF7B0FD002600F0C3FD8346B8F1000F60
:1056500023D0BBF1000F07D14FF0805011490860F3
:10566000BFF34F8FBFF36F8FFFF79EFB064606F029
:10567000007080B9FFF7FCFB266829463046069A81
:10568000FFF724F818B117B12068A8432060012063
:105690000190FFF717FC26F07F46304607B0BDE8C3
:1056A000F08F000004ED00E01CB538490846007892
:1056B0000190FF200A4610700846007800909DF87F
:1056C000000000F0F0009DF80020904201D1012080
:1056D00000E0002050B900BF502080F31188BFF3D4
:1056E0004F8FBFF36F8F00BF00BFFEE79DF8000034
:1056F00000F05000264A10700720264A106009E08A
:1057000024480068401E234A10609DF800004006AF
:10571000000E00909DF8000000F080008028EFD07F
:105720001C480068C0F10700042801D1012000E0F6
:10573000002050B900BF502080F31188BFF34F8F75
:10574000BFF36F8F00BF00BFFEE712480068000282
:10575000104A10601046008800F4E06010600B4AA8
:10576000019810700C48006840F470000A49086005
:105770000846006840F070400860FFF70BFC00200E
:1057800006490860FAF7CEFC00201CBD00E400E0EA
:10579000880000208C00002020ED00E08400002024
:1057A0002DE9F84305460E4690460DB1012000E074
:1057B000002050B900BF502080F31188BFF34F8FF5
:1057C000BFF36F8F00BF00BFFEE70EB9002701E0F7
:1057D00005FB06F707F15000FEF7D4FF04465CB165
:1057E00004F15009002084F8460043464A463146F9
:1057F00028460094FEF7AAFC2046BDE8F8832DE970
:10580000F84380460E4617461D46DDF82090B8F155
:10581000000F01D0012000E0002050B900BF50204F
:1058200080F31188BFF34F8FBFF36F8F00BF00BFAE
:10583000FEE70DB1012000E0002050B900BF50206C
:1058400080F31188BFF34F8FBFF36F8F00BF00BF8E
:10585000FEE707B10EB1012000E0002050B900BF03
:10586000502080F31188BFF34F8FBFF36F8F00BFBD
:1058700000BFFEE707B90EB9012000E0002050B9D3
:1058800000BF502080F31188BFF34F8FBFF36F8F9D
:1058900000BF00BFFEE7502000900098502801D1C3
:1058A000012000E0002050B900BF502080F3118893
:1058B000BFF34F8FBFF36F8F00BF00BFFEE72C46D3
:1058C0004CB1012084F846004B463A4631464046EA
:1058D0000094FEF73BFC2046BDE8F88370B5054612
:1058E0000E462C4654B900BF502080F31188BFF3F8
:1058F0004F8FBFF36F8F00BF00BFFEE7FFF7B8FA0F
:10590000D4E90F12206801FB020060600020A06350
:105910002068A060E06B401E226C216800FB021032
:10592000E060FF2084F8440084F845009EB92069B7
:1059300008B9012000E00020A8B904F1100000F02F
:10594000FBFB80B14FF0805009490860BFF34F8FD7
:10595000BFF36F8F07E004F11000FFF753FA04F173
:105960002400FFF74FFAFFF7ADFA012070BD0000E9
:1059700004ED00E02DE9FF4383B0064688461D464E
:105980004FF00009344654B900BF502080F311880D
:10599000BFF34F8FBFF36F8F00BF00BFFEE7B8F1BB
:1059A000000F01D1206C08B9012000E0002050B99F
:1059B00000BF502080F31188BFF34F8FBFF36F8F6C
:1059C00000BF00BFFEE7022D02D1E06B012801D12C
:1059D000012000E0002050B900BF502080F3118862
:1059E000BFF34F8FBFF36F8F00BF00BFFEE700F024
:1059F00099FA08B9059808B9012000E0002050B9CB
:105A000000BF502080F31188BFF34F8FBFF36F8F1B
:105A100000BF00BFFEE700BFFFF72AFAA06BE16BF3
:105A2000884201D3022D28D12A4641462046FEF75E
:105A3000C0FA0746606A08B9012000E0002068B992
:105A400004F1240000F078FB88B14FF08050324917
:105A50000860BFF34F8FBFF36F8F08E03FB14FF087
:105A600080502D490860BFF34F8FBFF36F8FFFF752
:105A700029FA012007B0BDE8F083059818B9FFF7AF
:105A800021FA0020F6E7B9F1000F04D101A8FFF7D1
:105A90003BFB4FF00109FFF715FAFFF765FCFFF735
:105AA000E7F994F94400401C10B9002084F8440040
:105AB00094F94500401C10B9002084F84500FFF718
:105AC00001FA05A901A800F059F9F0B92046FEF73E
:105AD0004EFCA0B104F110000599FFF727FB20460A
