:020000040800F2
:10000000A03D002099010008492F00081D2B000881
:10001000452F0008850A000885350008000000000B
:1000200000000000000000000000000001010008C6
:10003000890A00080000000045010008C5300008DA
:10004000B3010008B3010008B3010008B3010008C0
:10005000B3010008B3010008B3010008B3010008B0
:10006000B3010008B3010008B3010008B3010008A0
:10007000B3010008B3010008B3010008B301000890
:10008000B3010008B3010008B3010008B301000880
:10009000B3010008B3010008B3010008B301000870
:1000A000B3010008B3010008B3010008B301000860
:1000B000B3010008B301000881310008B301000852
:1000C000B3010008B3010008B3010008B301000840
:1000D000B30100086535000875350008B301000854
:1000E000B3010008B3010008B3010008DFF80CD029
:1000F00000F040FC004800479D440008A03D00205F
:10010000224B19680868B0E8F00F80F30988BFF344
:100110006F8F4FF0000080F311884EF00D0E704786
:100120000000000006480068006880F3088862B696
:1001300061B6BFF34F8FBFF36F8F00DF00BF00BF0B
:1001400008ED00E0EFF30980BFF36F8F0F4B1A68E3
:1001500020E9F00F106008B54FF0500080F31188CF
:10016000BFF34F8FBFF36F8F06F034F94FF00000ED
:1001700080F31188BDE8084019680868B0E8F00FFE
:1001800080F30988BFF36F8F704700BF1400002011
:10019000EFF3058070470000064880470648004797
:1001A000FEE7FEE7FEE7FEE7FEE7FEE7FEE7FEE727
:1001B000FEE7FEE77D310008ED000008202A04DBA1
:1001C000203A21FA02F00021704721FA02F3D040D0
:1001D000C2F12002914008431946704740EA0103EA
:1001E0009B0703D009E008C9121F08C0042AFAD2ED
:1001F00003E011F8013B00F8013B521EF9D27047B1
:10020000D2B201E000F8012B491EFBD27047002258
:10021000F6E710B513460A4604461946FFF7F0FF05
:10022000204610BD30B505462A460B4612F8010B94
:1002300013F8014B08B1A042F8D01CB1002802D03D
:100240006D1CF1E7284630BD421C10F8011B002947
:10025000FBD1801A7047034611F8012B00F8012BDF
:10026000002AF9D11846704710B54843044604F0F7
:1002700035F9002805D00021002C02D0641E01555C
:10028000FAE710BD80EA010210B502F00043400019
:1002900022D04A001FD0010E01EB1261C0F35600BC
:1002A000C2F3560240F4000042F40002A0FB022018
:1002B00000047F39140400D0401C50EA124001D4DD
:1002C0004000491EC2B20C0604EBD010401C40088E
:1002D000802A02D003E0002010BD20F00100002998
:1002E00000DA0020184310BD30B480EA010202F0A9
:1002F000004530F0004221F0004013D090B1C30D12
:10030000D40DC2F31601C0F31600E41A41F4000143
:1003100040F400027D34914201D3641C00E04900A6
:10032000002C02DA30BC002070474FF4000000239C
:10033000914201D3891A034340084FEA4101F7D1A2
:1003400051B1914202D14FF0004105E002D24FF08D
:10035000010101E06FF0010103EBC450284430BCFF
:1003600000F033BA2DE9FE4F804681EA0300C00F4A
:100370000C46009021F0004123F00045B8EB02004C
:10038000A94105D24046214690461C460B460246EE
:1003900023F00040104347D0270DC7F30A00C3F3F2
:1003A0000A510290401A019040286BDAC3F31300FF
:1003B00040F4801B0098924620B10023D2EB030A40
:1003C00063EB0B0B01985946C0F14002504600F018
:1003D000DBF906460D4650465946019A00F0E3F90E
:1003E00010EB08006141002487EA115284EAE773A8
:1003F0001A4340D0009A62B3019A012A4FEA075289
:1004000015DC001B61EB02014FF0004202EA0752CB
:10041000CDE90042001C41F5801132462B4600F028
:100420001AFA03B0BDE8F08F40462146F9E7001BF9
:1004300061EB0201001C41F5801300185B4120189C
:10044000A2F5001747EB030140EAD570B6196D41DC
:1004500011E06D084FEA360645EAC0754FEA0752CB
:10046000001B61EB0201001C41F5801149084FEAB5
:1004700030000019514132462B4603B0BDE8F04F21
:1004800000F0DAB90098012240000023D0EB02020C
:1004900063EBE073009821464FEAE074B8EB00008C
:1004A00061EB0401E9E783F000435BE781F0004181
:1004B00058E72DE9FE4F81EA030404F0004421F0DF
:1004C000004100944FF0000B23F0004350EA010478
:1004D0005ED052EA03045BD0C3F30A54C1F30A5559
:1004E0002C44A4F2F3340194A0FB0254C1F3130191
:1004F00041F48011C3F3130343F4801301FB02445E
:1005000000FB034E840A970A44EA815447EA835762
:10051000A4FB076802958D0A05FB07854FEA932C1B
:1005200004FB0C542705029D4FEA065847EA16378C
:10053000B5EB08056EEB070C870E920E47EA8117A4
:1005400042EA8312A7FB0201B6EB0B0164EB000445
:100550002B0D43EA0C335E1844EB1C50DA4651462F
:10056000E7FB0201C5F313044FEA0B3343EA1453CC
:100570004FEA0432019C43EA0603A4F10C040294FE
:10058000009CCDE900B400F066F903B0BDE8F08F3F
:1005900000200146F9E72DE9F04D81EA030404F05B
:1005A000004B21F0004514464FF0000A23F00041B3
:1005B00050EA050220D054EA01021DD0C5F30A57C3
:1005C0000246C5F31303C1F31300C1F30A5640F406
:1005D000801543F48013A7EB0608101BD64608F2DB
:1005E000FD3873EB050002D308F1010801E0921811
:1005F0005B41B8F1000F03DA00200146BDE8F08D41
:1006000000204FF48011064684460EE0171B73EB62
:10061000050705D3121B63EB050306434CEA010CE7
:1006200049084FEA300092185B4150EA0107EDD1CA
:1006300052EA030012D082EA040083EA050108436B
:1006400005D0101BAB4106D20122002306E0002298
:100650004FF0004302E06FF0010253101AEB060066
:100660004CEB085110EB0A0041EB0B01BDE8F04DDB
:1006700000F0E2B80EB540F2334102910021CDE91D
:1006800000110A460B4600F0E6F803B000BD20F06A
:100690000040C10DC0F3160040F400007F2901DACC
:1006A00000207047962903DCC1F19601C8407047CD
:1006B000963988407047C1F30A5210B5C1F313014F
:1006C00040F2FF3341F480119A4201DA002010BD5C
:1006D00040F233439A42A2F2334203DC5242FFF724
:1006E0006DFD10BD904010BD00F0004230F00040A4
:1006F0000AD0C10D01F56071C0F3160042EA015144
:10070000C20840071143704700200146704701F0BE
:10071000004330B421F0004150EA010206D00A0D36
:10072000A2F56072C1F31301002A02DC30BC002084
:100730007047440F44EAC104C100E01830BC00EB2C
:10074000C25000F042B80000002801DBC0F10040B8
:10075000002901DBC1F100418842704730B50B46EA
:10076000014600202022012409E021FA02F59D42E1
:1007700005D303FA02F5491B04FA02F52844151EB5
:10078000A2F10102F1DC30BD202A04DB203A00FA9C
:1007900002F1002070479140C2F1200320FA03F3D8
:1007A000194390407047202A06DBCB17203A41FAC4
:1007B00002F043EAE07306E041FA02F3D040C2F1EE
:1007C000200291400843194670470029A8BF70478E
:1007D000401C490008BF20F00100704710B4B0FA77
:1007E00080FC00FA0CF050EA010404BF10BC704712
:1007F00049B1CCF1200421FA04F411FA0CF118BF2C
:10080000012121430843A3EB0C01CB1D4FEA0061FA
:100810004FEA102042BF002010BC704700EBC350CD
:1008200010440029A4BF10BC7047401C490008BFF9
:1008300020F0010010BC704710B5141E73F10004C5
:1008400008DA401C41F1000192185B411A4301D1C2
:1008500020F0010010BD2DE9F04D92469B4611B1EC
:10086000B1FA81F202E0B0FA80F220329046FFF74E
:100870008BFF04460F4640EA0A0041EA0B0153464B
:100880005A46084313D0114653EA010019D0C8F163
:1008900040025046FFF792FC05460E465046594628
:1008A0004246FFF771FF084305D0012004E02046CF
:1008B0003946BDE8F08D0020054346EAE0762C433A
:1008C00037430A986305E40AA0EB08000022FD0AFA
:1008D00044EA47540A3002D500200146E9E7010501
:1008E00010196941DDE9084500196941BDE8F04D7D
:1008F000A2E770B521F0004303430CD0C1F30A55C1
:100900000024D5EB040564EB0403D617AD1AB341FC
:1009100002DB0020014670BD201841EB025170BD82
:100920000EB5C10F80EAE0700844CA07002140F20A
:1009300033438DE80E000A460B46FFF78CFF03B0E9
:1009400000BD000030B5041E71F1000404DB4FF05F
:100950000044404264EB0101141E73F1000405DB06
:100960001C464FF00043524263EB04038B4208BF26
:10097000824230BD064C074D06E0E06840F00103BE
:1009800094E8070098471034AC42F6D3FFF7B2FB67
:100990009C770008BC77000870B5044600252068E5
:1009A000806800F0010018B32068806820F0010022
:1009B0002168886000F0A6FD054613E000F0A2FD66
:1009C000401B02280ED92068806800F0010048B161
:1009D000A06A40F01000A062E06A40F00100E0620E
:1009E000012070BD2068806800F001000028E5D17A
:1009F0000020F6E738B50446002500200090206866
:100A0000806800F0010078BB2068806840F0010039
:100A100021688860194800681949B0FBF1F000901E
:100A200002E00098401E009000980028F9D100F0E4
:100A300069FD054619E000F065FD401B022814D948
:100A40002068806800F0010078B9A06A40F01000CA
:100A5000A062E06A40F00100E06200BF002084F87C
:100A6000240000BF012038BD05E02068806800F048
:100A700001000028DFD00020F5E700001000002072
:100A800040420F0000BFFEE7704772B600BFFEE7AE
:100A900038B5024600230020009000BF92F82400E1
:100AA000012801D1022038BD012082F8240000BFB6
:100AB0004868072812D21068406B0C79641E04EB5A
:100AC00084051F24AC40A0430D796D1E05EB850500
:100AD0000C68AC4020431468606327E048680D2828
:100AE00012D21068006B0C79E41F04EB84051F24FC
:100AF000AC40A0430D79ED1F05EB85050C68AC40BB
:100B000020431468206311E01068C06A0C790D3C22
:100B100004EB84051F24AC40A0430D790D3D05EB8B
:100B200085050C68AC4020431468E06208680A2818
:100B300012D31068C0680C780A3C04EB4405072403
:100B4000AC40A0430D780A3D05EB45058C68AC40F0
:100B500020431468E0600FE0106800690C7804EB33
:100B600044050724AC40A0430D7805EB45058C688F
:100B7000AC402043146820610868102802D008683F
:100B8000112827D1174C1068A0421ED11068806828
:100B900000F40000F0B91068806840F400001468A8
:100BA000A0600868102815D10F4800680F4CB0FBF2
:100BB000F4F000EB80004000009002E00098401E3E
:100BC000009000980028F9D104E0906A40F02000DD
:100BD0009062012300BF002082F8240000BF184665
:100BE00061E70000002401401000002040420F0097
:100BF00001460868C06C70472DE9F04104460027A3
:100C000000250026A84614B90120BDE8F081A0689F
:100C100010B1207D00B100BFA06A30B90020E062B1
:100C200084F82400204600F089F82046FFF7B4FE3F
:100C30000746A06A00F01000002873D1002F71D180
:100C4000A06A20F4885040F00200A062E169606868
:100C50000843217B40EA41000643A068B0F5807F4D
:100C600002D0A068012802D14FF4807000E000207B
:100C70000543207D012811D1207B38B9A069401E91
:100C80004FF4006141EA4030054307E0A06A40F0BC
:100C90002000A062E06A40F00100E0622068406845
:100CA00020F4694028432168486020688068214911
:100CB0000840304321688860A068B0F5807F02D08A
:100CC000A068012802D14FF4807000E00020B0F548
:100CD000807F03D1208A401E4FEA00582068C06AF6
:100CE00020F4700040EA08002168C862206880682B
:100CF00011490840B04208D10020E062A06A20F00B
:100D0000020040F00100A06211E0A06A20F00200A1
:100D100040F01000A062E06A40F00100E0620127AC
:100D200005E0FFE7A06A40F01000A0620127384606
:100D30006BE70000FDF7E1FFFE0E1FFF10B586B068
:100D40000446002002900390049005901349206807
:100D5000884221D100BF1248806940F400701049D8
:100D600088610846806900F40070019000BF00BFF0
:100D700000BF0846806940F0040088610846806929
:100D800000F00400019000BF00BF03200290039018
:100D900002A9044800F018FA06B010BD0024014072
:100DA0000010024000080140F8B504460D46002638
:100DB00000200090002700F0A5FB06462068806810
:100DC00000F4807050B1A06A40F02000A06200BF23
:100DD000002084F8240000BF0120F8BD206840688E
:100DE00000F4807020BB2068C06A00F47000F8B97D
:100DF00017E0681CA8B125B100F084FB801BA84255
:100E00000FD92068006800F0020050B9A06A40F0D5
:100E10000400A06200BF002084F8240000BF03206B
:100E2000DBE72068006800F002000028E1D053E012
:100E3000022000F079FC38490968B1FBF0F0216824
:100E40000969364A114091B92168C9689211114067
:100E500069B921680969324A114031B92168C96804
:100E60009211114009B9142117E0292115E02168D8
:100E700009692B4A114021B92168C96892111140B2
:100E800041B121680969274A114029B92168C96817
:100E9000114009B9542100E0FC2100FB01F718E0E2
:100EA000681C98B125B100F02DFB801BA8420DD91C
:100EB0000098B8420AD2A06A40F00400A06200BFC5
:100EC000002084F8240000BF032086E70098401C1F
:100ED00000900098B842E3D36FF0120021680860D8
:100EE000A06A40F40070A0622068806800F460206E
:100EF000B0F5602F0DD1207B58B9A06A20F4807026
:100F0000A062A06A00F4805018B9A06A40F0010005
:100F1000A062002061E70000100000202449922414
:100F2000922449124992240070B50446002500BF5E
:100F300094F82400012801D1022070BD012084F81A
:100F4000240000BF2046FFF755FD0546002D77D150
:100F5000A06A40F20121884340F48070A0623C49BD
:100F60002068884208D13B48006800F4702008B926
:100F7000012002E0002000E0012078B1A06A20F406
:100F80008010A0622068406800F4806000B3A06A0E
:100F900020F4005040F48050A06219E0A06A40F4B0
:100FA0008010A0622B49091F2068884203D028497D
:100FB0002068884204D12748006800F4806000E07F
:100FC000002028B1A06A20F4005040F48050A062B4
:100FD000A06A00F4805020B1E06A20F00600E062D0
:100FE00001E00020E06200BF002084F8240000BF80
:100FF000C01E216808602068806800F46020B0F599
:10100000602F16D112492068884208D11148006823
:1010100000F4702008B9012002E0002000E0012067
:1010200038B12068806840F4A000216888600CE036
:1010300006E02068806840F480102168886004E041
:1010400000BF002084F8240000BF284675E7000098
:10105000002801400424014070B50446002500BF6B
:1010600094F82400012801D1022070BD012084F8E9
:10107000240000BF2046FFF78FFC05462DB9A06A6B
:1010800020F4885040F00100A06200BF002084F8E6
:10109000240000BF2846E8E70146002291F821001D
:1010A000022808D00420886300BF002081F82000B7
:1010B00000BF012070470868006820F00E000B6830
:1010C00018600868006820F001000B68186091F84B
:1010D000403001209840CB6B5860012081F82100FE
:1010E00000BF002081F8200000BF1046E2E70000AA
:1010F00070B50446002594F82100022803D004208E
:10110000A063012548E02068006820F00E002168F7
:1011100008602068006820F00100216808601F490D
:101120002068884201D1012026E01C491431206842
:10113000884201D110201FE01849283120688842D8
:1011400001D1801518E015493C312068884201D151
:10115000801411E0114950312068884202D14FF4C7
:10116000803009E00D4964312068884202D14FF493
:10117000801001E04FF08070084908394860012074
:1011800084F8210000BF002084F8200000BF606BBD
:1011900010B12046616B8847284670BD08000240A8
:1011A00070B5044600F0AEF906462546681C10B13D
:1011B00004480078054400BF00F0A4F9801BA84251
:1011C000FAD370BD0C0000202DE9F8470346002239
:1011D00094466EE14FF0010808FA02F4D1F800805D
:1011E00008EA0400A0427DD1DFF8DCA2D1F8048037
:1011F000A8EB0A09D0453AD014DCB8F1030F50D05F
:1012000009DCB8F1000F31D0B8F1010F1CD0B8F1F2
:10121000020F49D120E0B8F1110F18D0B8F1120F28
:1012200042D11EE0B9F5881F25D006DCB9F5803F14
:1012300020D0B9F5801F37D11AE0B9F5001F18D0BA
:10124000B9F5041F30D117E0D1F80CC02DE0D1F86A
:101250000C8008F1040C28E0D1F80C8008F1080C8F
:1012600023E0D1F80C8008F10C0C1EE000BF00BF99
:1012700000BF00BF00BF00BFD1F80880B8F1000F69
:1012800002D14FF0040C0BE0D1F80880B8F1010F47
:1012900003D14FF0080C1C6102E04FF0080C5C61B8
:1012A00003E04FF0000C00E000BF00BFFF2801D8B2
:1012B000984601E003F104084646FF2802D84FEAA9
:1012C000820803E0A2F108084FEA88084746D6F8EA
:1012D00000804FF00F0909FA07F928EA09080CFA0B
:1012E00007F900E088E048EA0908C6F80080D1F86C
:1012F000048008F08058B8F1805F7DD100BFDFF82E
:10130000CC81D8F8188048F00108DFF8C091C9F8FE
:101310001880C846D8F8188008F00108CDF8008079
:1013200000BF00BF4FEAB9384FEA920958F8295078
:101330004FEA82784FEA18794FF00F0808FA09F857
:1013400025EA0805DFF88881434502D14FF00008FF
:1013500016E0DFF88081434502D14FF001080FE02D
:10136000DFF87481434502D14FF0020808E0DFF84E
:101370006C81434502D14FF0030801E04FF00408AF
:101380004FEA82794FEA197908FA09F848EA05051F
:10139000DFF84C814FEA920948F82950D1F80480CF
:1013A00008F48038B8F5803F0AD1DFF83881D8F8E2
:1013B000008048EA0008DFF82C91C9F8008009E0B5
:1013C000DFF82081D8F8008028EA0008DFF81491BF
:1013D000C9F80080D1F8048008F40038B8F5003F5F
:1013E00010D1DFF8008108F10408D8F8008048EA3D
:1013F0000008DFF8F09000E05AE009F10409C9F8AC
:1014000000800DE0DFF8DC8008F10408D8F80080E7
:1014100028EA0008DFF8CC9009F10409C9F8008037
:10142000D1F8048008F48018B8F5801F0ED1DFF8D9
:10143000B48008F10808D8F8008048EA0008DFF80E
:10144000A49009F10809C9F800800DE0DFF8948044
:1014500008F10808D8F8008028EA0008DFF884902E
:1014600009F10809C9F80080D1F8048008F40018CF
:10147000B8F5001F0ED1DFF86C8008F10C08D8F821
:10148000008048EA0008DFF85C9009F10C09C9F80F
:1014900000800DE0DFF84C8008F10C08D8F80080DF
:1014A00028EA0008DFF83C9009F10C09C9F800802F
:1014B000521CD1F8008028FA02F8B8F1000F7FF42E
:1014C00089AEBDE8F887000000001110001002404E
:1014D00000080140000C01400010014000140140D0
:1014E0000800014000040140024693680B400BB124
:1014F000012000E0002070470AB1016101E00B0407
:101500000361704701480068704700000400002034
:101510000348006803490978084401490860704796
:10152000040000200C00002010B50848006840F0BE
:10153000100006490860032000F0E2F80F2000F0D8
:1015400007F800F05FF8002010BD00000020024006
:101550002DE9F04188B004460027B846002600BFB8
:101560002348C06940F004002149C8610846C069A9
:1015700000F00400019000BF00BF02A903A800F022
:10158000BDFA069F1FB900F0E1FA054602E000F03F
:10159000DDFA45001748B5FBF0F0A0F10108164848
:1015A0001649086040F2E7311448C160C0F8048071
:1015B000002101618160816100F0D7FE064696B985
:1015C0000E4800F007FF06466EB91E2000F04AF8EC
:1015D000102C07D2002221461E2000F053F80848A4
:1015E000046000E00126304608B0BDE8F08100004C
:1015F0000010024040420F0000080040140200208A
:101600000800002008B500BF1448806940F00100C0
:10161000124988610846806900F00100009000BF0F
:1016200000BF00BF0846C06940F08050C86108464E
:10163000C06900F08050009000BF00BF00220F2161
:10164000901E00F01FF800BF0549486820F0E060D8
:1016500040F00070486000BF08BD0000001002406C
:101660000000014001460846002809DB00F01F0386
:1016700001229A4043099B0003F1E023C3F80021B3
:1016800000BF70472DE9F05F80460D4616460027E3
:1016900001F09EFF074639462A46334601F007000F
:1016A000C0F1070ABAF1040F02D94FF0040A01E0B1
:1016B000C0F1070AD14600F1040ABAF1070F02D2BD
:1016C0004FF0000A01E0A0F1030AD4464FF0010AEE
:1016D0000AFA09FAAAF1010A0AEA020A0AFA0CFA53
:1016E0004FF0010B0BFA0CFBABF1010B0BEA030BF8
:1016F0004AEA0B042146404601F072FFBDE8F09F24
:1017000000BF00F00702064B19684FF6FF031940AF
:10171000044B0B4343EA0221014B196000BF7047A1
:101720000CED00E00000FA052DE9F04385B0064617
:101730003BA30FCB01AC0FC43DA0006800904FF05D
:101740000008002500270024A146012E30D0022EDB
:1017500055D0102E5ED137484468006800F0807084
:1017600000B301A8C4F38341475C04F4803070B136
:1017700030484068C0F340401DF8008004F48030D9
:1017800040B12D48B0FBF8F000FB07F502E02B4814
:1017900007FB00F52748406800F48000B0F5800F93
:1017A00001D1A94603E068000321B0FBF1F932E062
:1017B0002048046A04F44070B0F5807F05D104F03D
:1017C000020010B14FF4004918E004F44070B0F585
:1017D000007F07D11748406A00F0020010B149F6B7
:1017E00040490BE004F44070B0F5407F06D1114849
:1017F000006800F4003008B14FF224490BE000F01B
:10180000B5F90C494968C1F38131491C4900B0FB65
:10181000F1F900E000BF00BF484605B0BDE8F08325
:1018200002030405060708090A0B0C0D0E0F101021
:10183000010200000010024000127A0000093D0081
:10184000F8B5044600260025207800F001000028A5
:101850006BD000274348C06900F0805070B900BFCA
:101860004048C06940F080503E49C8610846C069A0
:1018700000F08050009000BF00BF01273A48006888
:1018800000F48070B0B93848006840F48070364980
:101890000860FFF737FE064606E0FFF733FE801BC1
:1018A000642801D90320F8BD2F48006800F4807037
:1018B0000028F2D02B48006A00F440752DB3A088B0
:1018C00000F44070A84220D02648006A20F44075F9
:1018D000012026490860002008602248056205F0C2
:1018E000010090B1FFF70EFE064608E0FFF70AFE82
:1018F000801B41F28831884201D90320D3E719487F
:10190000006A00F002000028F0D01648006A20F4B7
:1019100040706168084313490862012F04D10846EA
:10192000C06920F08050C86100BF207800F002003C
:10193000022807D10B48406820F44040A1680843C2
:1019400008494860207800F01000102807D10548A9
:10195000406820F48000E1680843024948600020A4
:10196000A1E7000000100240007000404004424225
:1019700070B504460D460CB9012070BD5A48006888
:1019800000F00700A8420ED25748006820F0070078
:101990002843554908600846006800F00700A8423F
:1019A00001D00120E9E7207800F0020002281DD1D3
:1019B000207800F00400042805D14C48406840F429
:1019C000E0604A494860207800F00800082805D106
:1019D0004648406840F46050444948604348406885
:1019E00020F0F000A168084340494860207800F0EA
:1019F000010078B36068012806D13C48006800F413
:101A0000003090B90120B8E76068022806D1374855
:101A1000006800F0007040B90120AEE7334800686C
:101A200000F0020008B90120A7E73048406820F024
:101A30000300616808432D494860FFF763FD0646CF
:101A400009E0FFF75FFD801B41F28831884202D92F
:101A5000032092E707E02548406800F00C00616829
:101A6000B0EB810FEDD12048006800F00700A842DC
:101A70000ED91D48006820F0070028431A49086065
:101A80000846006800F00700A84201D0012074E772
:101A9000207800F00400042807D11448406820F49E
:101AA000E060E168084311494860207800F00800D0
:101AB000082808D10D48406820F46050216940EAA8
:101AC000C1000A49486000F061F808494968C1F35B
:101AD0000311074A515CC84006490860064800687F
:101AE000FFF736FD002048E70020024000100240CA
:101AF000EC76000810000020080000200F22026091
:101B00000D4A526802F0030242600B4A526802F02A
:101B1000F0028260084A526802F4E062C260064A3B
:101B2000526802F46052D2080261044A126802F05C
:101B300007020A60704700000010024000200240C7
:101B400001480068704700001000002000B5FFF752
:101B5000F7FF04494968C1F30221034A515CC840B8
:101B600000BD000000100240FC76000800B5FFF741
:101B7000E7FF04494968C1F3C221034A515CC840E8
:101B800000BD000000100240FC760008F0B585B0F2
:101B90000FF26C0C9CE8E01001A8A0E8E0101CA576
:101BA0002D68009500210022002300240020194DFB
:101BB000696801F00C05F5B1042D02D0082D19D18A
:101BC00001E0154819E001ADC1F38346AC5D01F4B5
:101BD000803555B10F4D6D68C5F340451DF80520A2
:101BE0000D4D6543B5FBF2F302E00C4D04FB05F32C
:101BF000184602E000BF084800BF00BF05B0F0BDB6
:101C000002030405060708090A0B0C0D0E0F10103D
:101C1000010200000010024000127A0000093D009D
:101C2000F8B504460CB90120F8BD207800F0010099
:101C3000002878D0F848406800F00C0004280CD048
:101C4000F548406800F00C00082811D1F2484068BF
:101C500000F48030B0F5803F0AD1EF48006800F40E
:101C6000003000285FD0606800285CD10120DBE7ED
:101C700000BF6068B0F5803F06D1E748006840F4D7
:101C80008030E549086028E0606858B9E24800689B
:101C900020F48030E04908600846006820F4802085
:101CA00008601AE06068B0F5A02F0BD1DA48006830
:101CB00040F48020D84908600846006840F480302D
:101CC00008600AE0D448006820F48030D2490860F7
:101CD0000846006820F48020086000BF606888B172
:101CE000FFF710FC054606E0FFF70CFC401B6428DC
:101CF00001D9032098E7C848006800F400300028A4
:101D0000F2D010E0FFF7FEFB054606E0FFF7FAFB16
:101D1000401B642801D9032086E7BF48006800F40F
:101D200000300028F2D1207800F00200022857D1BC
:101D3000B948406800F00C0050B1B748406800F066
:101D40000C00082818D1B448406800F4803098B9D5
:101D5000B148006800F0020020B12069012801D0DC
:101D6000012061E7AC48006820F0F800616940EAB2
:101D7000C100A949086033E02069E8B10120A74902
:101D80000860FFF7BFFB054606E0FFF7BBFB401B03
:101D9000022801D9032047E79F48006800F00200AD
:101DA0000028F2D09C48006820F0F800616940EA01
:101DB000C1009949086013E0002098490860FFF7C6
:101DC000A1FB054606E0FFF79DFB401B022801D959
:101DD000032029E79048006800F002000028F2D1B3
:101DE000207800F0080008282DD1A069B8B10120A2
:101DF0008B490860FFF786FB054606E0FFF782FB8C
:101E0000401B022801D903200EE78348406A00F0F6
:101E100002000028F2D0012001F0A6F813E0002013
:101E20007F490860FFF76EFB054606E0FFF76AFB97
:101E3000401B022801D90320F6E67748406A00F0EB
:101E400002000028F2D1207800F00400042873D1A9
:101E500000277148C06900F0805070B900BF6E481B
:101E6000C06940F080506C49C8610846C06900F004
:101E70008050009000BF00BF01276A48006800F44E
:101E80008070B0B96748006840F4807065490860A8
:101E9000FFF738FB054606E0FFF734FB401B6428DC
:101EA00001D90320C0E65F48006800F48070002874
:101EB000F2D000BFE068012806D15748006A40F020
:101EC00001005549086227E0E06858B95248006AA5
:101ED00020F00100504908620846006A20F0040022
:101EE000086219E0E06805280BD14B48006A40F011
:101EF0000400494908620846006A40F0010008628F
:101F00000AE04548006A20F001004349086208469B
:101F1000006A20F00400086200BFE068A0B1FFF78B
:101F2000F1FA054609E0FFF7EDFA401B41F288316E
:101F3000884202D9032077E622E03748006A00F0A1
:101F400002000028EFD012E0FFF7DCFA054608E0B7
:101F5000FFF7D8FA401B41F28831884201D90320AB
:101F600062E62D48006A00F002000028F0D1012F3F
:101F700005D12948C06920F080502749C86100BFB9
:101F8000E069C8B32448406800F00C00082860D01D
:101F9000E069022848D1002020490866FFF7B2FA1C
:101FA000054606E0FFF7AEFA401B022801D90320E0
:101FB0003AE61948006800F000700028F2D1206A63
:101FC000B0F5803F07D11448406820F40030A16884
:101FD000084311494860D4E9080108430E4949689B
:101FE00021F4741108430C49486001200B4908662C
:101FF000FFF788FA054607E03DE0FFF783FA401B4C
:10200000022801D903200FE60348006800F00070A1
:102010000028F2D02FE000000010024000004242F1
:102020008004424200700040002014490866FFF717
:1020300069FA054606E0FFF765FA401B022801D958
:102040000320F1E50E48006800F000700028F2D18E
:1020500011E0E069012800D1E6E50948466806F488
:102060008031206A814204D106F47011606A814295
:1020700001D00120D8E50020D6E500000000424252
:102080000010024010B504460CB9012010BD606A72
:1020900038B96068B0F5827F00D105E00021E161C8
:1020A00002E00021216161610021A16294F85100E8
:1020B00028B9002084F85000204600F043F80220A0
:1020C00084F851002068006820F040002168086012
:1020D000A08800F48270218901F404410843A18999
:1020E00001F400610843217C01F002010843217DD5
:1020F00001F001010843218B01F400710843217FA5
:1021000001F0380108432021095D01F080010843F6
:10211000218D01F400510843216808600421A06961
:1021200001EA1040216848602068C06920F400601E
:102130002168C86100206065012084F851000020FA
:10214000A4E7000010B586B004460020029003907A
:102150000490059015492068884224D100BF144896
:10216000806940F48050124988610846806900F413
:102170008050019000BF00BF00BF0846806940F05A
:10218000040088610846806900F00400019000BFE7
:1021900000BFA0200290022003900320059002A916
:1021A0000448FFF711F806B010BD000000300140F0
:1021B00000100240000801402DE9F84F044688460F
:1021C00016461D464FF0000A00BF94F85000012843
:1021D00002D10220BDE8F88F012084F8500000BF32
:1021E000FFF790F90746B14694F85100012802D054
:1021F0004FF0020AADE0B8F1000F00D016B94FF071
:10220000010AA6E0032084F8510000206065C4F8AC
:102210003080A686E686A063A087E087606420649D
:10222000A068B0F5004F0BD12068006820F0400096
:10223000216808602068006840F4804021680860D8
:102240002068006800F04000402805D02068006841
:1022500040F0400021680860E068B0F5006F2FD1C1
:10226000606810B1B9F1010F09D1206B00882168B5
:10227000C860206B801C2063E08E401EE0861BE05F
:102280002068806800F0020002280AD1206B0088D4
:102290002168C860206B801C2063E08E401EE086B1
:1022A0000AE0FFF72FF9C01BA84201D3681C00B950
:1022B00015B94FF0030A4CE0E08E0028E0D12EE083
:1022C000606810B1B9F1010F09D1206B0078216865
:1022D0000873206B401C2063E08E401EE0861BE0EC
:1022E0002068806800F0020002280AD1206B007884
:1022F00021680873206B401C2063E08E401EE0863E
:102300000AE0FFF7FFF8C01BA84201D3681C00B920
:1023100015B94FF0030A1CE0E08E0028E0D13A46E0
:102320002946204600F034FE08B120206065A068F0
:1023300050B900BF002000902068C068009020685D
:102340008068009000BF00BF606D08B14FF0010AC7
:1023500000BF012084F8510000BF002084F8500025
:1023600000BF504636E77047704710B504460CB9B9
:10237000012010BD94F83D0028B9002084F83C00ED
:10238000204600F025F8022084F83D00211D206839
:1023900000F0FEFE012084F8460000BF84F83E00F5
:1023A00001213F200155402001554120015500BF2A
:1023B00000BF012084F8420043200155442001550C
:1023C0004520015500BF012084F83D000020D0E7E2
:1023D00070470000014691F83D00012801D001201E
:1023E0007047022081F83D000868C06840F0010095
:1023F0000B68D860124B086898420BD00868B0F19F
:10240000804F07D00F4B0868984203D00E4B0868E6
:1024100098420CD10868806800F00702062A0CD0A8
:102420000868006840F001000B68186005E0086863
:10243000006840F001000B6818600020D0E7000041
:10244000002C01400004004000080040704710B517
:10245000044620680069C0F34000D8B12068C06815
:10246000C0F34000B0B16FF00200216808610120A4
:1024700020772068806900F0030018B12046FFF73C
:10248000E5FF05E0204600F0ADF8204600F0ABF88F
:102490000020207720680069C0F38000D8B1206850
:1024A000C068C0F38000B0B16FF00400216808611B
:1024B000022020772068806900F4407018B120461F
:1024C000FFF7C4FF05E0204600F08CF8204600F03E
:1024D0008AF80020207720680069C0F3C000D8B1D6
:1024E0002068C068C0F3C000B0B16FF00800216878
:1024F0000861042020772068C06900F0030018B14B
:102500002046FFF7A3FF05E0204600F06BF82046C9
:1025100000F069F80020207720680069C0F30010FF
:10252000D8B12068C068C0F30010B0B16FF01000DF
:1025300021680861082020772068C06900F4407095
:1025400018B12046FFF782FF05E0204600F04AF868
:10255000204600F048F8002020772068006900F04D
:10256000010058B12068C06800F0010030B16FF080
:10257000010021680861204600F036F820680069F3
:10258000C0F3C01058B12068C068C0F3C01030B1AB
:102590006FF08000216808612046FFF7E4FE2068A4
:1025A0000069C0F3801058B12068C068C0F3801083
:1025B00030B16FF0400021680861204600F020F83B
:1025C00020680069C0F3401058B12068C068C0F3AB
:1025D000401030B16FF02000216808612046FFF7FD
:1025E000C3FE10BD7047704710B50446034920680C
:1025F000884201D1FEF78CFF10BD000000080040AA
:1026000070477047704700002DE9F84F0446206876
:1026100005682068C668206847694FF00009CA4607
:1026200005F00F09B9F1000F0AD105F0200038B10B
:1026300006F0200020B1204600F019FEBDE8F88F1A
:10264000B9F1000F71D007F0010018B906F49070CD
:1026500000286AD005F0010030B106F4807018B18E
:10266000206C40F00100206405F0040030B107F058
:10267000010018B1206C40F00200206405F0020057
:1026800030B107F0010018B1206C40F00400206464
:1026900005F0080048B106F0200010B907F001006D
:1026A00018B1206C40F008002064206C68B305F07D
:1026B000200028B106F0200010B1204600F0D7FD20
:1026C00020684069C0F3801A206C00F0080010B93F
:1026D000BAF1000F22D0204600F09EFD206840692C
:1026E00000F04000B0B12068406920F0400021684F
:1026F0004861A06B50B15648A16B4863A06BFEF7D0
:10270000F7FC10B1A06B416B88470CE02046FFF747
:1027100079FF08E02046FFF775FF04E02046FFF749
:1027200071FF0020206489E7FFE7206B012878D142
:1027300005F01000002874D006F01000002870D0BA
:1027400000BF00200090206800680090206840686A
:10275000009000BF00BF2068406900F04000C0B397
:10276000A06B006840681FFA80F8B8F1000F2FD006
:10277000A08D40452CDDA4F82E80A06B8069202818
:102780001FD02068C06820F480702168C86020686D
:10279000406920F00100216848612068406920F00C
:1027A000400021684861202084F83E00002020631A
:1027B0002068C06820F010002168C860A06BFEF798
:1027C0006BFCA08DE28D801A81B22046FFF719FFC5
:1027D00034E7FFE7A08DE18D401A1FFA80F8E08D05
:1027E000E8B1B8F1000F1AD02068C06820F49070EA
:1027F0002168C8602068406920F0010021684861B4
:10280000202084F83E00002020632068C06820F06B
:1028100010002168C86041462046FFF7F2FE0DE730
:10282000FFE705F0800030B106F0800018B12046C7
:1028300000F031FE02E705F0400030B106F0400044
:1028400018B1204600F003FDF8E600BFF6E60000F0
:102850000532000810B504460CB9012010BDA0696E
:1028600000B100E000BF94F83D0028B9002084F8D2
:102870003C00204600F028F8242084F83D00206821
:10288000C06820F400502168C860204600F062FD56
:102890002068006920F49040216808612068406940
:1028A00020F02A00216848612068C06840F4005088
:1028B0002168C86000202064202084F83D0084F84E
:1028C0003E000020CAE7000010B586B00446002094
:1028D00002900390049005903B492068884237D1CC
:1028E00000BF3A48806940F4804038498861084612
:1028F000806900F48040019000BF00BF00BF08461F
:10290000806940F0040088610846806900F0040096
:10291000019000BF00BF48150290022003900320E1
:10292000059002A92A48FEF74FFC4FF48060029000
:1029300000200390049002A92548FEF745FC0022E0
:1029400005212520FEF79EFE2520FEF78BFE39E0AF
:1029500020492068884235D100BF1C48C06940F436
:1029600000301A49C8610846C06900F4003001907F
:1029700000BF00BF00BF0846806940F004008861C6
:102980000846806900F00400019000BF00BF0420E9
:102990000290022003900320059002A90C48FEF744
:1029A00013FC0820029000200390049002A908481C
:1029B000FEF70AFC002205212620FEF763FE2620F2
:1029C000FEF750FE06B010BD003801400010024076
:1029D000000801400044004070B504460D4616460C
:1029E00094F83E00202816D105B10EB9012070BD23
:1029F00000BF94F83C00012801D10220F7E7012034
:102A000084F83C0000BF002020633246294620465F
:102A100000F01EFDEBE70220E9E7000010B50446D8
:102A200006492068884208D10548007802F00AFF6C
:102A3000012203490348FFF7CFFF10BD00440040C7
:102A400000000020D00100202DE9F84F04460E467A
:102A5000174699464FF0000A94F83D0020285AD1B5
:102A600006B117B90120BDE8F88F00BF94F83C000B
:102A7000012801D10220F6E7012084F83C0000BFC4
:102A800000202064212084F83D00FEF73BFD8246B3
:102A9000A784E784A068B0F5805F04D1206910B9ED
:102AA0000025B04602E035464FF0000800BF002088
:102AB00084F83C0000BF1BE05346002280212046E2
:102AC000CDF8009000F017FD08B10320CBE745B921
:102AD000B8F80000C0F308002168486008F1020857
:102AE00003E02878216848606D1CE08C401EE0847B
:102AF000E08C0028E0D15346002240212046CDF84A
:102B0000009000F0F8FC08B10320ACE7202084F826
:102B10003D000020A7E70220A5E7704700BFFEE7C1
:102B200010B51F48007898B910211E48FEF7DCFC4C
:102B300070B90A20FEF734FB10211A48FEF7D4FCC6
:102B400030B9012016490870FEF7DCFC1649086010
:102B500013480078012821D110211248FEF7C4FC47
:102B6000012811D1FEF7CEFC0F490968401AB0F5D3
:102B70007A7F04D900200A490870032010BD002084
:102B8000074908700120F9E7FEF7BCFC064909680F
:102B9000401AB0F57A7F01D90220EFE70020EDE777
:102BA0008C000020000801409000002010B500209B
:102BB00000F002F810BD000010B5044634B1012C3D
:102BC0000AD0022C0ED0032C15D110E001221146A0
:102BD0000A48FEF791FC0FE0002201210748FEF7AA
:102BE0008BFC09E04FF4FA7000F00AF804E064206E
:102BF00000F006F800E000BF00BF10BD000C01406F
:102C000010B50446002201210F48FEF775FC20464E
:102C100003F060F9012211460B48FEF76DFC2046D7
:102C200003F058F9002201210748FEF765FC204611
:102C300003F050F9012211460348FEF75DFC2046DF
:102C400003F048F910BD0000000C01400EB5002053
:102C500000900190029019481949086081151848A0
:102C60008160002101730121017581614FF46021B0
:102C7000C161002012494860022111480161FDF73D
:102C8000BBFF08B1FDF701FF00200090012001907B
:102C90000020029069460A48FDF7FAFE08B1FDF7E8
:102CA000F4FE012000900220019069460448FDF7DF
:102CB000EFFE08B1FDF7E9FE0EBD00000024014063
:102CC000040100201CB5FFF771FF01F097F801F037
:102CD0003BFC01F0CFFC00224FF400611C48FEF7E2
:102CE0000BFC02F09DFC0020192103464FF480727A
:102CF000CDE9001017A11B4804F0A8F90020182105
:102D000003464FF48072CDE9001017A1194804F072
:102D10009DF90020182103463222CDE9001016A1AA
:102D2000184804F093F90020182103463222CDE917
:102D3000001015A1174804F089F900201821034656
:102D40008022CDE9001014A1164804F07FF91CBDC3
:102D5000000801407072696E7465725F7461736B14
:102D600000000000D95600086465765F7461736BDB
:102D7000000000002D5500086C65645F7461736B82
:102D800000000000895600086B65795F7461736B01
:102D9000000000005156000873797374656D5F740C
:102DA00061736B003558000800B585B000200190B4
:102DB00002900390049000BF3148806940F02000E9
:102DC0002F4988610846806900F02000009000BF0C
:102DD00000BF00BF0846806940F0040088610846D3
:102DE000806900F00400009000BF00BF00BF0846EB
:102DF000806940F0080088610846806900F008009A
:102E0000009000BF00BF00224FF6C3711D48FEF7BF
:102E100073FB00224FF400611B48FEF76DFB10208E
:102E20000190002002900120039001A91648FEF7AE
:102E3000CBF94FF6C370019001200290002003905F
:102E40000220049001A90F48FEF7BEF94FF48070EC
:102E50000190002002900220039001A90A48FEF789
:102E6000B3F94FF40060019001200290002003901C
:102E70000220049001A90448FEF7A6F905B000BDA0
:102E800000100240000C01400008014010B50F483E
:102E90000F4908604FF4827048604FF400410C48BD
:102EA00081600021C160016141614FF40071816165
:102EB0002821C16100210162416281620A21C1624F
:102EC000FFF7E0F808B1FDF7E0FD10BD003001406C
:102ED0003401002010B50B480B4908604FF4E13075
:102EE0004860002108488160C16001610C21416196
:102EF00000218161C161FFF7ADFC08B1FDF7C5FD9F
:102F000010BD0000003801408C01002010B50B48B6
:102F10000B4908604FF4E1304860002108488160A7
:102F2000C16001610C21416100218161C161FFF734
:102F300091FC08B1FDF7A9FD10BD00000044004060
:102F4000D001002000BFFEE700BFFEE710B54FF440
:102F500080710448FEF7C8FA08B1012010BD0020B6
:102F6000FCE700000008014008B508490968C908E5
:102F70004FF47A72B1FBF2F14143009100BF00BF00
:102F800000994A1E00920029F9D108BD10000020C6
:102F9000F8B504460D4616462B46002280212046F1
:102FA000009600F009F828B1606D40F020006065DF
:102FB0000320F8BD0020FCE72DE9F84F04460D463C
:102FC00090461E46DDF82890FEF79CFAA0EB09001B
:102FD000371AFEF797FA82462C480068C0F3CB30C8
:102FE0007843009045E0701C002842D0FEF78AFA32
:102FF000A0EB0A00B84200D2A7BB2068406820F0CE
:10300000E000216848606068B0F5827F0DD1A0685B
:10301000B0F5004F03D0A068B0F5806F05D12068EF
:10302000006820F0400021680860A06AB0F5005FE9
:103030000DD100BF2068006820F4005021680860AE
:103040002068006840F400502168086000BF01203B
:1030500084F8510000BF002084F8500000BF032016
:10306000BDE8F88FFFE7009800B900270098401EE0
:103070000090206880682840A84201D1012000E02B
:1030800000204045AFD10020EAE7000010000020FA
:1030900008B56A4601210948006803F075FA0098EE
:1030A000012809D1009838B14FF0805004490860D8
:1030B000BFF34F8FBFF36F8F08BD0000F0000020FB
:1030C00004ED00E010B500BF502080F31188BFF37D
:1030D0004F8FBFF36F8F00BF04F05CF818B14FF053
:1030E00080500449086000BF002080F3118800BFB1
:1030F00010BD000004ED00E000B593B0282109A840
:10310000FDF785F8142104A8FDF781F80020009050
:103110000190029003900120099000040A90002081
:103120000B9001200D9002201090C10311914FF4DB
:10313000E011129109A8FEF773FD08B1FDF7A5FC97
:103140000F20049002200590002006904FF480602C
:10315000079000200890022104A8FEF709FC08B19E
:10316000FDF793FC02200090800302906846FEF772
:1031700067FB08B1FDF789FC13B000BD7047000084
:1031800010B50248FFF763F910BD000014020020DB
:1031900010B50268184B984208D0B0F1804F05D0A6
:1031A000164B984202D0164B984203D122F070027F
:1031B0004B681A43104B984208D0B0F1804F05D0AD
:1031C0000E4B984202D00E4B984203D122F440722B
:1031D000CB681A4322F080034C6943EA0402026080
:1031E0008B68C3620B688362034B984201D10B6901
:1031F00003630123436110BD002C01400004004023
:103200000008004070B505466C6A0020E085E08447
:103210002046FFF7F7F970BD0168C96821F4907185
:103220000268D1600168496921F0010102685161B9
:10323000016B012905D10168C96821F010010268FC
:10324000D160202180F83E1000210163704710B545
:1032500004462068C06820F040002168C860202033
:1032600084F83D002046FFF758FC002010BDF8B55B
:10327000044694F83E00222869D1A068B0F5805F2A
:103280000CD1206950B90025A66A20684068C0F3B7
:1032900008003080A06A801CA06215E0A56A0026A4
:1032A000A068B0F5805F03D0A06828B9206918B97C
:1032B00020684068287004E02068406800F07F00C3
:1032C0002870A06A401CA062E08D401E80B2E0859C
:1032D000A8BB2068C06820F020002168C860206872
:1032E000C06820F480702168C8602068406920F0C0
:1032F000010021684861202084F83E00206B0128ED
:103300001ED1002020632068C06820F010002168D2
:10331000C8602068006800F0100010280AD100BFC3
:1033200000200090206800680090206840680090AD
:1033300000BF00BFA18D2046FFF763F903E004E062
:103340002046FFF76BFB0020F8BD0020FCE70220C1
:10335000FAE7000070B504462168096921F440517C
:10336000E2681143226811612269A1681143626910
:1033700041EA02052168C96841F20C629143294380
:103380002268D1602168496921F44071A269114322
:10339000226851612D4A2168914202D1FEF7E6FB75
:1033A00001E0FEF7D3FB00EBC00101EB0011626806
:1033B0009200B1FBF2F100EBC00202EB0012636875
:1033C0009B00B2FBF3F26423B2FBF3F202EBC20305
:1033D00003EB0212A1EB8201322202EB0111642203
:1033E000B1FBF2F101F0F00100EBC00202EB0012C0
:1033F00063689B00B2FBF3F26423B2FBF3F201EBD0
:10340000021200EBC00101EB001163689B00B1FBED
:10341000F3F100EBC00303EB00136668B600B3FBE7
:10342000F6F36426B3FBF6F303EBC30606EB0313D4
:10343000A1EB8301322303EB01116423B1FBF3F110
:1034400001F00F0111442268916070BD0038014005
:1034500010B5034699629A85DA8500201864222007
:1034600083F83E0000BF002083F83C0000BF1868CE
:10347000C06840F480701C68E0601868406940F0E3
:1034800001001C6860611868C06840F020001C687A
:10349000E060002010BD014691F83D00212828D1B0
:1034A0008868B0F5805F0BD1086948B90A6A10884E
:1034B000C0F308000B685860086A801C086205E0C9
:1034C0000B6A581C086218780B685860C88C401E3C
:1034D00080B2C88458B90868C06820F080000B68C2
:1034E000D8600868C06840F040000B68D8600020D1
:1034F00070470220FCE72DE9F04104460D461746CF
:103500009846069E21E0701CF8B12EB1FDF7FAFF37
:10351000A0EB0800B04218D92068C06820F4D07031
:103520002168C8602068406920F001002168486176
:10353000202084F83D0084F83E0000BF002084F87D
:103540003C0000BF0320BDE8F081206800682840EF
:10355000A84201D1012000E00020B842D3D00020D1
:10356000F1E7000010B50248FFF74EF810BD00006B
:103570008C01002010B50248FFF746F810BD00008E
:10358000D001002000BFFEE70FB4054B10B503A922
:10359000044A029800F0BCF810BC5DF814FB00006F
:1035A000313C0008F40000200FB4084B10B504A90A
:1035B00002AA039800F0ACF8044602A9002000F02B
:1035C00083F9204610BC5DF814FB0000C9380008E0
:1035D00002480068C0F30220704700000CED00E0D4
:1035E00010B5002804DB0A07130E054A135406E041
:1035F0000A07140E034A00F00F031B1FD45410BD1A
:1036000000E400E018ED00E0EFF311807047EFF305
:1036100005807047EFF3108070472DE9F0414F1E91
:1036200000EBC7010446D1E9000115461E4637F0FC
:1036300006020DD02A463346FCF73BFF7F1E04EB03
:10364000C703D3E90023FCF78DFE37F00602F1D162
:10365000022F25D0042F13D0062F18BFBDE8F0810C
:103660002A463346FCF725FFD4E90A23FCF77AFE05
:103670002A463346FCF71DFFD4E90823FCF772FE07
:103680002A463346FCF715FFD4E90623FCF76AFE09
:103690002A463346FCF70DFFD4E90423FCF762FE0B
:1036A0002A463346FCF705FFD4E90223FCF75AFE0D
:1036B0002A463346FCF7FDFED4E90023BDE8F0417D
:1036C000FCF750BE0022134610460149FCF763BFC9
:1036D0000000F03F0122FDF70CB90022134610460E
:1036E0001146FCF758BF02E008C8121F08C1002AA3
:1036F000FAD170477047002001E001C1121F002A73
:10370000FBD17047014908607047000000010020AC
:103710002DE9FF4F8BB09A460F460546002606E07E
:1037200025280BD052460D9990476D1C761C2878A1
:103730000028F5D10FB03046BDE8F08F0024A04638
:103740000122604900E0044315F8013F203B02FAE2
:1037500003F00842F7D128782E2817D115F8010F69
:1037600044F004042A280ED06FF02F022878A0F12C
:10377000300109290AD808EB880102EB410100EB6E
:1037800001086D1CF2E757F8048B6D1C2878692836
:103790003ED006DC0028CDD063280BD0642804D1AD
:1037A00036E0732810D075284BD052460D999047BB
:1037B000761C85E017F8040B8DF8000000208DF8CA
:1037C0000100E946012003E057F8049B4FF0FF3069
:1037D00061074FF0000401D40AE0641C44450DDA8F
:1037E0008442FADB19F804100029F6D106E0641CC3
:1037F0008442FCDB19F804100029F8D1264404E0C7
:1038000019F8010B52460D999047641EF8D257E003
:1038100001CF4FF00A0B002802DA40422D2102E0CE
:10382000210504D52B218DF82410012103E0E107A7
:1038300005D02021F7E70DF1200908910CE00021C7
:10384000F9E701CF4FF00A0BF9E75946FCF786FF7D
:1038500001F1300209F8012D0028F6D1ADEB090085
:1038600000F1200B600701D44FF00108D84502DDBC
:10387000A8EB0B0000E000208046002406E009A829
:103880005246005D0D999047641C761C089884424E
:10389000F5DB04E0302052460D999047761CB8F1D4
:1038A0000001A8F10108F5DC05E019F8010B52460A
:1038B0000D999047761CBBF10001ABF1010BF4DCD4
:1038C0006D1C34E7092801000A68531C0B60107056
:1038D0007047000070B504460D464FF0FF332A468E
:1038E00021460248FFF7B0F870BD0000D00100206B
:1038F000002002490870024908607047B6000020A5
:103900009800002070B504460D46172C06D1EAB287
:103910004FF400710E48FDF7EFFD17E0162C06D1AD
:10392000EAB24FF480710A48FDF7E6FD0EE0152C6F
:1039300005D1EAB280210648FDF7DEFD06E0132C32
:1039400004D1EAB240210248FDF7D6FD70BD000067
:10395000000C014070B504460D461A2C06D1EAB29F
:103960004FF480611B48FDF7C7FD32E01B2C06D1E8
:10397000EAB24FF400611748FDF7BEFD29E00E2CB6
:1039800006D1EAB24FF480511248FDF7B5FD20E0B0
:10399000202C05D1EAB221020E48FDF7ADFD18E05A
:1039A000212C06D1EAB24FF480410A48FDF7A4FD6C
:1039B0000FE0192C06D1EAB24FF400410548FDF79B
:1039C0009BFD06E00C2C04D1EAB202210148FDF770
:1039D00093FD70BD000C014070B505460C46E2B287
:1039E0004FF400610148FDF787FD70BD00080140FC
:1039F0002DE9F04107463E4656B900BF502080F3FE
:103A00001188BFF34F8FBFF36F8F00BF00BFFEE77A
:103A100013480068864201D100241EE002F03CF900
:103A2000756902F063F90F480068854203D00E48BB
:103A30000068854201D102240FE00C48854205D17F
:103A4000B06A08B9032408E0022406E00848854269
:103A500000D00DB9042400E001242046BDE8F08127
:103A600014000020180000201C0000204C0700203B
:103A7000380700202DE9F14F94B0274812902748CD
:103A800011902748109027480F9000200E900F9813
:103A9000FCF72AFECDE90A014FF07E501199FCF7A0
:103AA00023FC0646FCF720FECDE904011098FCF744
:103AB0001BFECDE9020112991498FCF715FC019048
:103AC000FCF712FE804600F03BFB0646DDE90223D0
:103AD000FCF761FD0446DDE90423FCF743FC0246E4
:103AE0000B46CDE9060100200F49FCF754FDCDE956
:103AF0000801DDE90A23FCF7D6FC00220B4BCDE9D7
:103B00000C01FCF72FFC8246FCF701FE0E900E988C
:103B100015B0BDE8F08F00000060EA46331395430E
:103B200000E07645339388430000F03F0000E03F1B
:103B300010B51149081F00F0B3F8FFF707FA0E4956
:103B4000091F08720846007A012801D188720FE027
:103B50000949091F48680949FCF7F6FD04D202200B
:103B60000549091F887203E000200349091F887274
:103B70000148001F807A10BD983700200000704275
:103B800070B54FF4FA710120FCF76EFB04460CA0EF
:103B9000FFF7FAFC204602F019FA214614A0FFF7BD
:103BA000F3FC02F0AFFD0546294612A0FFF7ECFC3E
:103BB00012A0FFF7E9FC204600F04AF870BD0000B3
:103BC0002D2D2D2D2D2D2D2D2D2D2D2D2D2D2D2032
:103BD000686561703A2D2D2D2D2D2D2D2D2D2D2D1E
:103BE0002D2D2D2D2D2D2D2D2D2D0D0A00000000FC
:103BF000257300006D696E3A25640A002D2D2D2D68
:103C00002D2D2D2D2D2D2D2D2D2D2D2D2D2D2D2DE4
:103C10002D2D2D2D2D2D2D2D2D2D2D2D2D2D2D2DD4
:103C20002D2D2D2D2D2D2D2D2D2D0D0A00000000BB
:103C300038B504460D46E0B200904FF0FF33012244
:103C400069460248FEF700FF204638BD8C0100207F
:103C500010B5002821D0114B0022001F196803E085
:103C6000814203D80A4649680029F9D152B1136844
:103C7000841A9C4204D1006818441060104602E087
:103C8000506000E0186039B102680B1A934203D10A
:103C90000B681A4402604968416010BDF8000020BA
:103CA0002DE9F04F89B006460F4600240025A346B3
:103CB0001CE04A48FDF738F964214848FDF774F8DC
:103CC00018B94648FCF794FF04444448FDF72CF922
:103CD00064214248FDF768F818B94048FCF788FFAE
:103CE00005443E48FDF7B8F90BF1010BBBF10A0F93
:103CF000DFDB0A20B4FBF0F4B5FBF0F52046FCF75F
:103D0000B9FC4FF06632364BCDE90001FCF7D1FB30
:103D10000022344BCDE90201FCF73DFC00224FF0BC
:103D20008043CDE90401FCF7C4FBCDE90601FCF7B3
:103D3000EEFC80462846FCF79DFC4FF06632284B8F
:103D4000CDE90201FCF7B5FB0022264BCDE90401C9
:103D5000FCF721FCCDE90601FCF7D9FC8146484679
:103D6000FCF7C2FC4FF066321D4BCDE90001FCF7B9
:103D70009DFBCDE904011C494846FCF783FA8346C4
:103D8000FCF7B2FCCDE90201DDE90423FCF703FCFA
:103D9000CDE90601FCF7BBFC82464046FCF7A4FCDB
:103DA000124A134BCDE90001FCF77DFB0022114BB9
:103DB000CDE90201FCF7EFFB00220F4BCDE9040136
:103DC000FCF777FBCDE90601FCF775FC3070504637
:103DD000FFF750FE386009B0BDE8F08F0401002005
:103DE00066660A400000B04000401C469A999999C6
:103DF00099990D400000E03F0000594010B5D3E014
:103E000075480068401C74490860C820FDF7C8F96F
:103E10007248007818B171480078012813D170A059
:103E2000FFF7B2FB74480068FCF70EFA84B24FF655
:103E3000FF732246704801687048FEF705FE0120B6
:103E400066490870ABE065480078022803D06348F3
:103E50000078032813D16AA0FFF796FB7348006827
:103E6000FCF7F2F984B24FF6FF7322466F480168FF
:103E70006248FEF7E9FD0320584908708FE0574873
:103E80000078042803D055480078052813D168A08D
:103E9000FFF77AFB6E480068FCF7D6F984B24FF65C
:103EA000FF7322466A4801685448FEF7CDFD05209D
:103EB0004A49087073E049480078062803D047480B
:103EC0000078072813D163A0FFF75EFB68480068FD
:103ED000FCF7BAF984B24FF6FF73224664480168D2
:103EE0004648FEF7B1FD07203C49087057E03B48C3
:103EF0000078082803D0394800780A2816D15DA038
:103F0000FFF742FB62480068FCF79EF984B24FF667
:103F1000FF7322465E4801683848FEF795FD0A2087
:103F20002E49087001205B49087038E02B48007862
:103F30000B2807D029480078092803D027480078A3
:103F40000C2813D154A0FFF71FFB59480068FCF759
:103F50007BF984B24FF6FF73224655480168274823
:103F6000FEF772FD0C201D49087018E01B48007810
:103F70000D2800D119E0194800780E280FD14DA066
:103F8000FFF702FB4A480068FCF75EF984B24FF67F
:103F9000FF732246464801681848FEF755FD0F4852
:103FA00001784CA0FFF7F0FA2AE700BF3948007803
:103FB00018B14EA0FFF7E8FA02E056A0FFF7E4FAC6
:103FC0004FF47A70FDF7ECF800205B49086064213B
:103FD0005A48FCF71CF910BDC4000020B4000020B2
:103FE000424C453AE6ADA3E8BF9BE585A54154E6C2
:103FF000A8A1E5BC8F0A00009C000020D001002091
:10400000424C453AE6ADA3E59CA8E8AEBEE7BDAE9E
:1040100073746174757320E585B3E997ADE78AB66B
:10402000E68081E698BEE7A4BA5C6E00A00000209E
:10403000424C453AE6ADA3E69FA5E8AFA2E78AB6B3
:10404000E68081E698AFE590A6E4B8BA300A0000B1
:10405000A4000020424C453AE6ADA3E69FA5E8AF98
:10406000A2E8AEBEE5A487E5908DE7A7B05C6E0040
:10407000A8000020424C453AE6ADA3E8AEBEE7BD3D
:10408000AEE8AEBEE5A487E5908DE7A7B05C6E0014
:10409000AC000020B5000020424C453AE6ADA3E953
:1040A0008080E587BA4154E6A8A1E5BC8F0A0000EC
:1040B000B0000020424C453A424C45205245534501
:1040C0005420E98080E587BA4154E6A8A1E5BC8F79
:1040D0000A000000675F626C655F696E69745F73F8
:1040E000746570203D2025640A000000E9858DE795
:1040F000BDAEE5AE8CE688902DE8AFB7E9878DE5DB
:1041000090AFE8AEBEE5A487E4BDBFE794A85C6EBF
:1041100000000000E9858DE7BDAEE5AE8CE6889035
:104120002DE58FAFE4BBA5E6ADA3E5B8B8E4BDBF10
:10413000E794A80A00000000B800002030370020F3
:104140002DE9F04DC84A002490B0914205DA21F0E3
:104150000043934201D805D120B110B0BDE8F04D25
:10416000FFF7B8BAB1F5801F1BDA53EA000209D095
:10417000002911DA0120FFF7C5FA10B0BDE8F04DB3
:10418000FFF7ABBA0220FFF7BDFAFFF79BFA10B0BA
:1041900081F00041BDE8F08D6FF035043622FCF768
:1041A000A8FB04EB2152C1F31308B049A2F2FF337C
:1041B000414401F4801282F07F6103EB225281F0CE
:1041C0004051009241EA08010022A94BFCF76BF92B
:1041D000044608F10200A74EC0F313000D467E44CA
:1041E000032867D2D6E900232046FCF7ABFB1ED19B
:1041F0000098002802BFD6E9000110B0BDE8F08D9C
:10420000FCF78EFB07460C469B4A9C4BFCF751F98A
:1042100006460D469A4A9B4B38462146FCF749F91B
:1042200010B032462B46BDE8F04DFCF79BB84FF07E
:104230005532954B20462946FCF73BF90022934B1B
:10424000FCF734F906460F4622462B46104619461F
:10425000FCF72FF932463B46FCF72BF9064600984F
:104260000F46F0B1FCF75CFB80468A46824A834BDE
:10427000FCF71FF932463B46FCF718F922462B465D
:10428000FCF711F905460C467D4A7E4B40465146E7
:10429000FCF70FF910B02A462346BDE8F04DFCF7B5
:1042A00002B90B4610B0324620462946BDE8F04D13
:1042B000FCF7F9B800224FF080432046FCF752F893
:1042C00002460B4620462946FCF765F906460F468E
:1042D0000098FCF725FBCDE9040132463B46104629
:1042E0003946FCF7E6F80C9069480C9A4044019076
:1042F00009910B461046FCF7DCF8824602466548F9
:104300008B46C8F151080B4608F5D728032178449D
:10431000FFF783F952465B46FCF7CBF80A905E48FC
:104320000D9152465B4604217844FFF776F9099BCC
:104330000C9AFCF7BEF8844601980D9B40EA0808E9
:1043400060460A9AFCF70EF883460891B8F1000F10
:104350004EDD4FF0FF3220462946FCF7CAFA2246CE
:104360002B46FCF7A6F8804600988A4660B3DDE944
:104370000401414A414BFCF79CF8099100905A46D0
:1043800040465146089BFBF7EDFF32463B46FCF7A3
:1043900090F8099B009AFBF7E5FF42465346FCF76D
:1043A00085F822462B46FCF77EF804460D46DDE9EB
:1043B0000401334A334BFCF77CF810B022462B46FD
:1043C000BDE8F04DFCF76FB85A464046089BFBF736
:1043D000C9FF32463B46FCF76CF842465346FCF7B1
:1043E00065F810B022462B46BDE8F04DFCF75EB8EC
:1043F000009840B3DDE904011F4A204BFCF759F84F
:1044000080468A465A4620462946089BFCF74BF8C8
:1044100032463B46FCF74DF842465346FCF743F81C
:1044200022462B46FCF73FF804460D46DDE9040121
:10443000134A144BFCF73DF810B022462B46BDE85A
:10444000F04DFCF730B80B465A4620462946FCF79B
:104450002AF832463B46FCF72CF810B022462B4691
:10446000BDE8F04DFCF722B80000F07F645F090062
:104470000000F03F5E350000763C7935EF39EA3DCB
:104480000000E0FE422EE63F5555D53F0000E03FDC
:1044900086EBF9FFF6330000F4330000FDF744F833
:1044A000FEF72AFEFEF780FCFEF714FDFEF7CEFBBA
:1044B000FEF72CFDFEF7EAFC012206490648FEF74E
:1044C0008BFA00F095F8FEF7FDFB00F0B1F800BFA5
:1044D000FEE7000000000020D0010020F0B50B3006
:1044E000154D20F007010024144A0FE003688B42A9
:1044F0000BD38B4205D95E1A43184768C3E900679E
:1045000000E04368136002C004E0021D1068002848
:10451000ECD12046002802D1286808B10020F0BD67
:10452000064A07481060074A121A22F00702C0E93B
:10453000002401202860D7E7FC000020F8000020BC
:10454000A4370020A039002010B500211720FFF764
:10455000D9F900211620FFF7D5F900211520FFF722
:10456000D1F900211320FFF7CDF910BD70B5054634
:10457000002625E000241FE0134810F8241017201F
:10458000FFF7C0F9104800EB840041781620FFF7D0
:10459000B9F90D4800EB840081781520FFF7B2F9D6
:1045A000094800EB8400C1781320FFF7ABF9022023
:1045B000FCF7F6FD601CC4B2082CDDDB701CC6B233
:1045C000AE42D7DB70BD0000C800002010B500214E
:1045D0001720FFF797F900211620FFF793F9002124
:1045E0001520FFF78FF900211320FFF78BF910BD7D
:1045F00010B5FFF70CF848B9FFF70CF830B90B48C5
:104600000068022805D1FEF7FFFF10B16FF0050426
:1046100009E00648006820B9012004490860002428
:1046200001E04FF0FF34204610BD00006400002080
:1046300010B5FEF7ECFF48B9FEF7ECFF30B90C48B7
:104640000068022805D1FEF7DFFF10B16FF0050406
:104650000CE007480068012806D1022004490860E0
:1046600001F054FE002401E04FF0FF34204610BD5D
:104670006400002010B500211120FFF7ADF90121E1
:104680000C20FFF767F900F043F810BD70B5054640
:104690003021284600F032FF0120FFF767FF002499
:1046A00003E0E0B200F0BEFE641C062CF9DB70BD36
:1046B00010B501210C20FFF74DF900F029F8012178
:1046C0001120FFF789F910BD2DE9F04105460E468E
:1046D0002F46FFF7EDFF4FF0000811E0302138467C
:1046E00000F00CFF002406E00420FFF73FFFE0B2DB
:1046F00000F098FE641C062CF6DB303708F1300819
:10470000B045EBDB00F02EF8FFF760FFBDE8F0816D
:1047100010B500211A20FFF71DF900211B20FFF71B
:1047200019F900210E20FFF715F900212020FFF7CD
:1047300011F900212120FFF70DF900211920FFF7C1
:1047400009F910BD00B5BDB0002003E0552101AA54
:104750001154401CF028F9DBF02101A8FFF7B4FF49
:104760003DB000BD10B501210C20FFF7F3F8FFF7B5
:10477000CFFF00211120FFF72FF910BD10B54FF02A
:10478000FF310E48006802F03FFB0DA0FEF7FCFE73
:10479000012011494872FFF7D5FF6420FFF7E6FEBC
:1047A000FFF714FF00200C49487200231A461946EF
:1047B0000248006802F024F910BD0000EC0000205F
:1047C000E5BC80E5A78BE6B58BE8AF95E68993E578
:1047D0008DB05C6E00000000943700202DE9F041A0
:1047E00005460E461648076816480068001D01F089
:1047F0006DF9681C38B936B112480168091D1248B4
:1048000001F03EFA1AE07C190E4800684460BC4290
:1048100007D20C480168091D0C48006801F016FA1F
:104820000CE008480168091D0948006801F00EFA0B
:1048300008480068844201D206480460BDE8F0815F
:1048400028000020140000204C0700201C0000203D
:10485000180000204400002010B5044601F01CFAA6
:1048600024480068401C234908602348006840B978
:10487000214804600846006801280DD100F010FAB4
:104880000AE01E48006838B91B480068C06AE16A3F
:10489000884201D81848046019480068401C18492B
:1048A00008600846006860641649E06A0968884242
:1048B00002D91449E06A0860E16A01EB8101124AF9
:1048C00002EB8100211D01F0DBF901F00FFA0B482A
:1048D000006868B108480068C06AE16A884207D287
:1048E0004FF0805009490860BFF34F8FBFF36F8FBF
:1048F00010BD000024000020140000203000002023
:10490000400000202C0000209C02002004ED00E06C
:1049100008B501F0C1F912480068E8B9114801F082
:1049200085F9114801F082F90E48104908600E48D7
:104930000F49086000200F4B0F4A102100900A20F9
:1049400001F0A2FF064908600846006820B10BA1EB
:104950000348006801F082FA01F0C8F908BD0000C0
:10496000580000206007002074070020500000203D
:104970005400002088070020D8070020546D725191
:104980000000000010B516E001F086F90C48C06880
:10499000C468201D01F09AF80A480068401E0949C1
:1049A000086009480068401E0749086001F09EF948
:1049B000204600F05EF8044800680028E4D110BDED
:1049C00038070020240000202000002070B5044695
:1049D0000D46206C70B1216CE0680844E0606168AD
:1049E000E068884201D32068E0602846226CE168D4
:1049F000FBF7F4FB70BD2DE9F04104460F46154668
:104A00004FF00008A66B206C40B9206860BB60685E
:104A100002F062FC80460020606025E07DB93946E6
:104A2000226CA068FBF7DAFB216CA0680844A06048
:104A3000D4E90110884217D32068A06014E03946F9
:104A4000226CE068FBF7CAFB216CE068401AE0606A
:104A50002168E068884203D2216C6068401AE060F7
:104A6000022D01D106B1761E701CA0634046BDE840
:104A7000F08110B5044694F8590030B9206B01F06C
:104A800053F9204601F050F91AE094F85900012832
:104A900003D1204601F048F912E094F859000228A9
:104AA00001D1012000E0002050B900BF502080F368
:104AB0001188BFF34F8FBFF36F8F00BF00BFFEE7BA
:104AC00010BD01464A6A22B10A6B1268C2F1380071
:104AD00000E00020704700000146084A1268126892
:104AE0000AB9012200E000220A600A6822B9034ADA
:104AF0001268D268106800E0002070475000002063
:104B000030B54FF42053174800F007042CB1C01DF6
:104B100020F00700134C041B1B1B0246124C2260A2
:104B20000024114D6C60D018083820F007000F4C9D
:104B3000206000240D4D2D686C600C4D2D682C609C
:104B40001146441A4C60094C24680C60084D4C68AE
:104B50002C60084D4C682C604FF00044064D2C60D2
:104B600030BD0000300F00206800002070000020E1
:104B700078000020740000207C00002000BFFFF7B8
:104B800001FF064800680128F9D94FF08050044918
:104B90000860BFF34F8FBFF36F8FF0E79C020020D8
:104BA00004ED00E010B504464CB1002060602060C8
:104BB000E06000231A461946204601F021FF10BD8F
:104BC0002DE9F04106460D4617469846069C0DB95C
:104BD000246000E02760E66325640121204601F09F
:104BE000C3FE84F84C80BDE8F0812DE9F05F824679
:104BF0000F4690469B460A9E0C9C4FEA8801A522D0
:104C0000206BFBF7FDFAA8F10100216B01EB800995
:104C100029F0070909F0070008B9012000E0002089
:104C200050B900BF502080F31188BFF34F8FBFF3FE
:104C30006F8F00BF00BFFEE7002507E0795D04F13C
:104C400034004155785D00B902E06D1C102DF5D39C
:104C500000BF002143200155382E00D33726E662DD
:104C6000E66400202065201D00F0EDFF04F118002F
:104C700000F0E9FF2461C6F13800A0616462002001
:104C8000606584F858005A465146484600F0B8FB23
:104C900020600B9808B10B980460BDE8F09F0000FD
:104CA00010B5002407E004EB84010F4A02EB8100F9
:104CB00000F0BCFF641C382CF5D30C4800F0B6FFA4
:104CC0000B4800F0B3FF0B4800F0B0FF0A4800F0BB
:104CD000ADFF0A4800F0AAFF0448094908600448EB
:104CE0000849086010BD00009C020020FC0600205E
:104CF0001007002024070020380700204C07002060
:104D0000180000201C00002010B50146164800E0E5
:104D1000006803688B42FBD30246436813448B420E
:104D200004D143684C682344436001460A464B68FB
:104D300013440468A34211D10C4C03682468A342B5
:104D400008D04B680468646823444B6003681B68A0
:104D50000B6005E0054B1B680B6001E003680B600E
:104D6000884200D0016010BD680000207000002063
:104D70002DE9F04104460D4616461F464FF0000847
:104D800065602461B5420CD8F01BA169884202D34A
:104D90004FF0010811E0211D0948006800F056FF9E
:104DA0000BE0BE4204D2BD4202D34FF0010804E042
:104DB000211D0448006800F049FF4046BDE8F0812D
:104DC000540000205000002070B5054600F064FF3C
:104DD000A86B08B9012400E0002400F087FF2046FA
:104DE00070BD70B5054600F057FFA86BE96B8842AF
:104DF00001D1012400E0002400F078FF204670BDBE
:104E00002DE9F04707460C4690460026206848B337
:104E1000204641684968416000F1080142688A42C1
:104E200002D14168496841604168D1F80C9000BFE7
:104E3000204641684968416000F1080142688A42A1
:104E400002D14168496841604168CD6806EBC600FF
:104E500007EB800143460122284601F069F8761CE1
:104E60004D45E5D13046BDE8F0870000F8B5054670
:104E70000F4616480068C068C468201D00F026FE72
:104E8000E06901281DD1A06941192B463A46204608
:104E9000FFF76EFFA8B1002003462A4601460090A6
:104EA000204602F0C7FB064656B900BF502080F3EB
:104EB0001188BFF34F8FBFF36F8F00BF00BFFEE7B6
:104EC00000BF2046616A8847F8BD000050000020FE
:104ED000F0B587B082E00398002811DA04AE56B925
:104EE00000BF502080F31188BFF34F8FBFF36F8F47
:104EF00000BF00BFFEE7D6E90020B168904700BFC1
:104F0000039800286ADB059C606908B9012000E06D
:104F1000002010B9201D00F0D9FD02A800F0C0F853
:104F2000054603980A2857D2DFE800F00905073143
:104F3000334F0608323400BF00BF00BF00BF0498E3
:104F4000A269811803462A462046FFF711FFE8B1FF
:104F50002046616A8847E069012817D10020009047
:104F60000498A169421800231946204602F062FB0A
:104F7000074657B900BF502080F31188BFF34F8F09
:104F8000BFF36F8F00BF00BFFEE700BF25E000BF8B
:104F900023E000BF0498A061A06908B1012000E0EF
:104FA000002050B900BF502080F31188BFF34F8F0D
:104FB000BFF36F8F00BF00BFFEE7A06941192B460A
:104FC0002A462046FFF7D4FE07E094F82C0010B9DB
:104FD000204600F0A9FE00E000BF00BF002203A9A8
:104FE0000448006801F05CFE00287FF474AF07B04D
:104FF000F0BD000058000020F8B505460C4601F051
:10500000E1F9684600F04CF80646009820BB44B928
:10501000B54206D802F050FA31462846FFF726FF7F
:105020001CE03CB10E480068006808B9012000E0AF
:1050300000200446A91B22460A48006800F024FF0D
:1050400002F03AFA50B94FF0805007490860BFF3B8
:105050004F8FBFF36F8F01E002F02EFAF8BD000012
:10506000540000205800002004ED00E00A490968BF
:10507000096809B9012100E0002121B14FF0FF3199
:10508000064A116006E004490968C968C868034A0D
:1050900041681160704700001800002044000020A3
:1050A00070B5044602F070F805460748006885426E
:1050B00004D200F00BF80120206001E00020206005
:1050C00001480560284670BD600000202DE9F843C6
:1050D00032E024480068C068056822480068C0685B
:1050E000C468201D00F0F2FC2046616A8847E06930
:1050F000012821D1A0694619AE4207D96660246112
:10510000211D1848006800F0A1FD15E000200346AD
:105110002A4601460090204602F08CFA074657B90D
:1051200000BF502080F31188BFF34F8FBFF36F8F04
:1051300000BF00BFFEE700BF0A480068006808B96A
:10514000012000E000200028C3D00648D0F80080ED
:1051500005480068034908600348C0F80080BDE8BE
:10516000F883000050000020540000200246002177
:1051700001E0521C491C1078A528FAD0890888B291
:10518000704700000E480068401C08B9012000E08C
:10519000002050B900BF502080F31188BFF34F8F1B
:1051A000BFF36F8F00BF00BFFEE700BF502080F34A
:1051B0001188BFF34F8FBFF36F8F00BF00BFFEE7B3
:1051C0008000002010B50346002022B903EA010444
:1051D00034B1012004E003EA01048C4200D1012033
:1051E00010BD08B500BF6846FFF776FC04462046B0
:1051F0000099FFF701FFFFF76BFEF4E770B5044677
:1052000000F04AFD94F9455010E0606A08B90120A9
:1052100000E0002038B904F1240002F001F918B1CF
:1052200000F044FF00E003E0681E45B2002DECDC16
:1052300000BFFF2084F8450000F058FD00F02CFD71
:1052400094F9445010E0206908B9012000E00020E2
:1052500048B904F1100002F0E3F808B100F026FFAD
:10526000681E45B200E001E0002DECDC00BFFF202D
:1052700084F8440000F03AFD70BD70B505460E4656
:1052800031462846FAF7E7FF2846FAF7DDFF0446DD
:1052900002E020202855641C0F2CFAD3002028554A
:1052A000281970BD2DE9F04104464FF0000801F0C7
:1052B00089F84648006808B9FFF722FC44480068AE
:1052C000204000286BD1D4B1083404F00700B0B1FD
:1052D00004F00700C0F10800044404F0070008B916
:1052E000012000E0002050B900BF502080F3118859
:1052F000BFF34F8FBFF36F8F00BF00BFFEE7002CDF
:105300004DD034480068844249D8334E3046056851
:1053100001E02E462D686868A04202D22868002865
:10532000F7D12A480068854239D0306800F1080872
:10533000286830606868001B102819D92F1907F0F9
:10534000070008B9012000E0002050B900BF50203C
:1053500080F31188BFF34F8FBFF36F8F00BF00BF83
:10536000FEE76868001B78606C603846FFF7CCFC8D
:10537000184968680968081A1649086008460068EC
:1053800016490968884203D2124800681349086028
:105390000F4968680968084368600020286002F0C7
:1053A0008BF808F0070008B9012000E0002050B990
:1053B00000BF502080F31188BFF34F8FBFF36F8F72
:1053C00000BF00BFFEE74046BDE8F081700000204E
:1053D0007C0000207400002068000020780000207D
:1053E0000648006830B10549096801F15000096DAF
:1053F000491C01600148006870470000140000204B
:10540000001F4FF080730360001F21F00103036051
:10541000001F034B036014380260203870470000FF
:105420008551000810B50446062C64D2DFE804F06C
:1054300003132333435301210E20FEF78BFA40F66A
:10544000C41000F01FFB00210E20FEF783FAC820D5
:1054500000F018FB50E001211B20FEF77BFA40F61C
:10546000C41000F00FFB00211B20FEF773FAC820C8
:1054700000F008FB40E001211A20FEF76BFA40F62D
:10548000C41000F0FFFA00211A20FEF763FAC820CA
:1054900000F0F8FA30E001211920FEF75BFA40F63F
:1054A000C41000F0EFFA00211920FEF753FAC820CB
:1054B00000F0E8FA20E001212120FEF74BFA40F647
:1054C000C41000F0DFFA00212120FEF743FAC820C3
:1054D00000F0D8FA10E001212020FEF73BFA40F658
:1054E000C41000F0CFFA00212020FEF733FAC820C4
:1054F00000F0C8FA00E000BF00BF10BD70B5044660
:105500000D46AAB24FF0FF3321460748FCF754FE80
:1055100000210C20FEF71EFA012000F0B3FA012151
:105520000C20FEF717FA70BD3401002008B50024E6
:1055300046E0FEF7FDFA234800788DF80000214987
:105540004868FBF7A4F8C0B28DF801001D48007A46
:105550008DF802001B48407A8DF80300601CC4B22D
:10556000322C22DD9DF8001017A0FEF70DF89DF8F3
:10557000011018A0FEF708F89DF8021018A0FEF719
:1055800003F89DF803101AA0FDF7FEFF0D48807A7E
:10559000012802D11BA0FDF7F7FF0A48807A0228F4
:1055A00002D11BA0FDF7F0FF00240648407A18B98D
:1055B00004216846FEF78EF9642000F08BFC00BFE2
:1055C000B7E7000094370020706F7765723A256462
:1055D0000A00000074656D703A25640A000000003E
:1055E00070617065725F73746174653A25640A0056
:1055F00070696E7465725F73746174653A25640ACC
:1056000000000000E7BCBAE7BAB8210A00000000B9
:10561000E6B8A9E5BAA6E8BF87E9AB98210A000079
:1056200010B500223021642001F0FFF80549086020
:1056300000F034FF04490860012001F0E5F8034957
:10564000086010BDE8000020F0000020EC00002001
:1056500019E0FDF765FA0446012C04D0022C05D0B0
:10566000032C0AD106E0FFF789F807E00120FEF7D6
:105670007DFF03E0FEF7AAFF00E000BF00BF14209B
:1056800000F028FC00BFE4E7002421E000241148DA
:10569000407A012800D101240E48807A002800DDDC
:1056A000022424B1012C06D0022C0CD107E00120E9
:1056B000FDF782FA08E00220FDF77EFA04E00320FD
:1056C000FDF77AFA00E000BF00BF0A2000F002FCFC
:1056D000DCE70000943700208EB0302102A8FAF7F2
:1056E00096FD6BE04FF0FF3001231A4619460090FB
:1056F0003348006800F05AFF4FF0FF31314800682E
:1057000001F082FB30A0FDF73FFF00250120324968
:105710004872FEF7CDFF41E04FF0FF3202A92F485B
:10572000006801F0BDFAFEF703FA0446ACB902A81E
:10573000FEF7ACFF2948006800F0DCF9002829D109
:10574000FEF7D6F8FFF70EF88C20FEF70FFFFEF7F6
:105750003DFF23A0FDF718FF21E0FFF703F8FEF758
:1057600035FF012C04D11DB921A0FDF70DFF012546
:10577000022C04D11DB924A0FDF706FF012517480E
:10578000006800F0B7F928B926A0FDF7FDFEFEF786
:10579000AFF804E00A2000F09DFB00BFBCE700BFAB
:1057A00000200D49487200231A4619460548006832
:1057B00001F026F9642000F08DFB00BF92E70000A5
:1057C000F0000020EC0000207072696E7420737489
:1057D0006172740A0000000094370020E800002085
:1057E000E68993E58DB0E7BB93E69D9F210A000013
:1057F000E68993E58DB0E5819CE6ADA23AE7BCBAB7
:10580000E7BAB8210A000000E68993E58DB0E5818A
:105810009CE6ADA23AE6B8A9E5BAA6E8BF87E9AB2F
:1058200098210A00E9989FE58897E6B885E7A9BA24
:10583000210A000005E0FEF7A3F940F6B83000F0B9
:1058400049FBF8E770B50446734801680068401CDE
:10585000714A1060714844540546714800780D281B
:1058600071D170A12846FAF7DDFC10B10120704912
:10587000087070A12846FAF7D5FC10B101206C49D8
:10588000087070A12846FAF7CDFC10B101206849D4
:10589000087061480068052834D160480078A52860
:1058A00018D15E484078A52814D15C488078A52896
:1058B00010D15A48C078A5280CD158480079012841
:1058C00000D000BF00205449086064215348FAF713
:1058D0009EFC70BD51480078A62813D14F484078EF
:1058E000A6280FD14D488078A6280BD14B48C07808
:1058F000A62807D100204849086064214748FAF7E4
:1059000086FCE6E74448006830281ADB434800F08C
:10591000A9FD50480068401C4E49086008460068D0
:10592000322807D94C48007820B901204A4908702C
:10593000FDF7AEFB00203849086064213748FAF7CC
:1059400066FC66E0FFE745A12846FAF76BFC0028F5
:1059500050D033480078012803D102203049087024
:1059600040E02F480078032803D104202C49087018
:1059700038E02B48007807280CD13AA12846FAF7DE
:1059800051FC18B10820264908702BE00920244951
:10599000087027E0224800780A2803D10B2020490C
:1059A00008701FE01E4800780C2803D10D201C4908
:1059B000087017E01A4800780E2803D10020184913
:1059C00008700FE01648007805280BD128A128465A
:1059D000FAF728FC18B106201149087002E00320EC
:1059E0000F49087000200C49086064210B48FAF741
:1059F0000EFC6EE721A12846FAF714FC10B10E2028
:105A00000749087004480068642802D3002002494E
:105A1000086000BF5DE70000B800002030370020BC
:105A2000B4000020434F4E4E45435445440000000F
:105A3000BC000020444953434F4E4E454354454417
:105A400000000000444556494345204552524F52FC
:105A50000000000098000020B60000204F4B0D0A07
:105A60000000000052462D4352415A5900000000E8
:105A700041542B5354415455533D30004552524FDD
:105A8000520D0A00F0B504460F4A00231768FD6A5C
:105A900004FB05F74FF47A7CB7FBFCF61768796ACC
:105AA0000FE01768786A88420BD0884202D9471AFB
:105AB0003B4402E06F1A07443B440146B34200D323
:105AC00000E0EEE700BFF0BD1402002001460A69C5
:105AD000D1E901309860D1E90103586050688842EB
