:020000040800F2
:10000000983B002099010008FD2E0008ED2A000809
:10001000F92E0008550A00083935000800000000D4
:1000200000000000000000000000000001010008C6
:10003000590A000800000000450100087930000856
:10004000B3010008B3010008B3010008B3010008C0
:10005000B3010008B3010008B3010008B3010008B0
:10006000B3010008B3010008B3010008B3010008A0
:10007000B3010008B3010008B3010008B301000890
:10008000B3010008B3010008B3010008B301000880
:10009000B3010008B3010008B3010008B301000870
:1000A000B3010008B3010008B3010008B301000860
:1000B000B3010008B301000835310008B30100089E
:1000C000B3010008B3010008B3010008B301000840
:1000D000B30100081935000829350008B3010008EC
:1000E000B3010008B3010008B3010008DFF80CD029
:1000F00000F028FC00480047E1420008983B00203F
:10010000224B19680868B0E8F00F80F30988BFF344
:100110006F8F4FF0000080F311884EF00D0E704786
:100120000000000006480068006880F3088862B696
:1001300061B6BFF34F8FBFF36F8F00DF00BF00BF0B
:1001400008ED00E0EFF30980BFF36F8F0F4B1A68E3
:1001500020E9F00F106008B54FF0500080F31188CF
:10016000BFF34F8FBFF36F8F05F0C6FE4FF0000057
:1001700080F31188BDE8084019680868B0E8F00FFE
:1001800080F30988BFF36F8F704700BF1400002011
:10019000EFF3058070470000064880470648004797
:1001A000FEE7FEE7FEE7FEE7FEE7FEE7FEE7FEE727
:1001B000FEE7FEE731310008ED000008202A04DBED
:1001C000203A21FA02F00021704721FA02F3D040D0
:1001D000C2F12002914008431946704740EA0103EA
:1001E0009B0703D009E008C9121F08C0042AFAD2ED
:1001F00003E011F8013B00F8013B521EF9D27047B1
:10020000D2B201E000F8012B491EFBD27047002258
:10021000F6E710B513460A4604461946FFF7F0FF05
:10022000204610BD30B505462A460B4612F8010B94
:1002300013F8014B08B1A042F8D01CB1002802D03D
:100240006D1CF1E7284630BD421C10F8011B002947
:10025000FBD1801A704780EA010210B502F000431A
:10026000400022D04A001FD0010E01EB1261C0F302
:100270005600C2F3560240F4000042F40002A0FB14
:10028000022000047F39140400D0401C50EA1240C0
:1002900001D44000491EC2B20C0604EBD010401C31
:1002A0004008802A02D003E0002010BD20F00100A9
:1002B000002900DA0020184310BD30B480EA0102A2
:1002C00002F0004530F0004221F0004013D090B120
:1002D000C30DD40DC2F31601C0F31600E41A41F4A5
:1002E000000140F400027D34914201D3641C00E01F
:1002F0004900002C02DA30BC002070474FF40000A7
:100300000023914201D3891A034340084FEA410177
:10031000F7D151B1914202D14FF0004105E002D234
:100320004FF0010101E06FF0010103EBC4502844DC
:1003300030BC00F032BA2DE9FE4F804681EA03005E
:10034000C00F0C46009021F0004123F00045B8EBAF
:100350000200A94105D24046214690461C460B4664
:10036000024623F00040104347D0270DC7F30A0090
:10037000C3F30A510290401A019040286BDAC3F38C
:10038000130040F4801B0098924620B10023D2EB6A
:10039000030A63EB0B0B01985946C0F1400250462B
:1003A00000F0DAF906460D4650465946019A00F02B
:1003B000E2F910EB08006141002487EA115284EA57
:1003C000E7731A4340D0009A62B3019A012A4FEAB8
:1003D000075215DC001B61EB02014FF0004202EAFC
:1003E0000752CDE90042001C41F5801132462B46F0
:1003F00000F019FA03B0BDE8F08F40462146F9E756
:10040000001B61EB0201001C41F5801300185B41E9
:100410002018A2F5001747EB030140EAD570B61982
:100420006D4111E06D084FEA360645EAC0754FEAA6
:100430000752001B61EB0201001C41F580114908C5
:100440004FEA30000019514132462B4603B0BDE857
:10045000F04F00F0D9B90098012240000023D0EB02
:10046000020263EBE073009821464FEAE074B8EBB8
:10047000000061EB0401E9E783F000435BE781F0F2
:10048000004158E72DE9FE4F81EA030404F00044DF
:1004900021F0004100944FF0000B23F0004350EA9C
:1004A00001045ED052EA03045BD0C3F30A54C1F3E3
:1004B0000A552C44A4F2F3340194A0FB0254C1F376
:1004C000130141F48011C3F3130343F4801301FBC0
:1004D000024400FB034E840A970A44EA815447EA27
:1004E0008357A4FB076802958D0A05FB07854FEA31
:1004F000932C04FB0C542705029D4FEA065847EA4B
:100500001637B5EB08056EEB070C870E920E47EA1F
:10051000811742EA8312A7FB0201B6EB0B0164EBE1
:1005200000042B0D43EA0C335E1844EB1C50DA46F2
:100530005146E7FB0201C5F313044FEA0B3343EACC
:1005400014534FEA0432019C43EA0603A4F10C045D
:100550000294009CCDE900B400F065F903B0BDE859
:10056000F08F00200146F9E72DE9F04D81EA030400
:1005700004F0004B21F0004514464FF0000A23F030
:10058000004150EA050220D054EA01021DD0C5F313
:100590000A570246C5F31303C1F31300C1F30A5609
:1005A00040F4801543F48013A7EB0608101BD646D1
:1005B00008F2FD3873EB050002D308F1010801E0F1
:1005C00092185B41B8F1000F03DA00200146BDE844
:1005D000F08D00204FF48011064684460EE0171B74
:1005E00073EB050705D3121B63EB050306434CEAC7
:1005F000010C49084FEA300092185B4150EA0107AC
:10060000EDD152EA030012D082EA040083EA050128
:10061000084305D0101BAB4106D20122002306E09F
:1006200000224FF0004302E06FF0010253101AEB7A
:1006300006004CEB085110EB0A0041EB0B01BDE842
:10064000F04D00F0E1B80EB540F2334102910021C7
:10065000CDE900110A460B4600F0E5F803B000BDF5
:1006600020F00040C10DC0F3160040F400007F29C7
:1006700001DA00207047962903DCC1F19601C840D9
:100680007047963988407047C1F30A5210B5C1F3DC
:10069000130140F2FF3341F480119A4201DA002045
:1006A00010BD40F233439A42A2F2334203DC52427D
:1006B000FFF784FD10BD904010BD00F0004230F007
:1006C00000400AD0C10D01F56071C0F3160042EA86
:1006D0000151C2084007114370470020014670478E
:1006E00001F0004330B421F0004150EA010206D08D
:1006F0000A0DA2F56072C1F31301002A02DC30BCBE
:1007000000207047440F44EAC104C100E01830BC27
:1007100000EBC25000F041B8002801DBC0F10040FE
:10072000002901DBC1F100418842704730B50B461A
:10073000014600202022012409E021FA02F59D4211
:1007400005D303FA02F5491B04FA02F52844151EE5
:10075000A2F10102F1DC30BD202A04DB203A00FACC
:1007600002F1002070479140C2F1200320FA03F308
:10077000194390407047202A06DBCB17203A41FAF4
:1007800002F043EAE07306E041FA02F3D040C2F11E
:10079000200291400843194670470029A8BF7047BE
:1007A000401C490008BF20F00100704710B4B0FAA7
:1007B00080FC00FA0CF050EA010404BF10BC704742
:1007C00049B1CCF1200421FA04F411FA0CF118BF5C
:1007D000012121430843A3EB0C01CB1D4FEA00612B
:1007E0004FEA102042BF002010BC704700EBC350FE
:1007F00010440029A4BF10BC7047401C490008BF2A
:1008000020F0010010BC704710B5141E73F10004F5
:1008100008DA401C41F1000192185B411A4301D1F2
:1008200020F0010010BD2DE9F04D92469B4611B11C
:10083000B1FA81F202E0B0FA80F220329046FFF77E
:100840008BFF04460F4640EA0A0041EA0B0153467B
:100850005A46084313D0114653EA010019D0C8F193
:1008600040025046FFF7AAFC05460E465046594640
:100870004246FFF771FF084305D0012004E02046FF
:100880003946BDE8F08D0020054346EAE0762C436A
:1008900037430A986305E40AA0EB08000022FD0A2A
:1008A00044EA47540A3002D500200146E9E7010531
:1008B00010196941DDE9084500196941BDE8F04DAD
:1008C000A2E770B521F0004303430CD0C1F30A55F1
:1008D0000024D5EB040564EB0403D617AD1AB3412D
:1008E00002DB0020014670BD201841EB025170BDB3
:1008F0000EB5C10F80EAE0700844CA07002140F23B
:1009000033438DE80E000A460B46FFF78CFF03B019
:1009100000BD000030B5041E71F1000404DB4FF08F
:100920000044404264EB0101141E73F1000405DB36
:100930001C464FF00043524263EB04038B4208BF56
:10094000824230BD064C074D06E0E06840F00103EE
:1009500094E8070098471034AC42F6D3FFF7CAFB7F
:10096000B4720008D472000870B5044600252068EF
:10097000806800F0010018B32068806820F0010052
:100980002168886000F0A6FD054613E000F0A2FD96
:10099000401B02280ED92068806800F0010048B191
:1009A000A06A40F01000A062E06A40F00100E0623E
:1009B000012070BD2068806800F001000028E5D1AA
:1009C0000020F6E738B50446002500200090206896
:1009D000806800F0010078BB2068806840F001006A
:1009E00021688860194800681949B0FBF1F000904F
:1009F00002E00098401E009000980028F9D100F015
:100A000069FD054619E000F065FD401B022814D978
:100A10002068806800F0010078B9A06A40F01000FA
:100A2000A062E06A40F00100E06200BF002084F8AC
:100A3000240000BF012038BD05E02068806800F078
:100A400001000028DFD00020F5E7000010000020A2
:100A500040420F0000BFFEE7704772B600BFFEE7DE
:100A600038B5024600230020009000BF92F8240011
:100A7000012801D1022038BD012082F8240000BFE6
:100A80004868072812D21068406B0C79641E04EB8A
:100A900084051F24AC40A0430D796D1E05EB850530
:100AA0000C68AC4020431468606327E048680D2858
:100AB00012D21068006B0C79E41F04EB84051F242C
:100AC000AC40A0430D79ED1F05EB85050C68AC40EB
:100AD00020431468206311E01068C06A0C790D3C53
:100AE00004EB84051F24AC40A0430D790D3D05EBBC
:100AF00085050C68AC4020431468E06208680A2849
:100B000012D31068C0680C780A3C04EB4405072433
:100B1000AC40A0430D780A3D05EB45058C68AC4020
:100B200020431468E0600FE0106800690C7804EB63
:100B300044050724AC40A0430D7805EB45058C68BF
:100B4000AC402043146820610868102802D008686F
:100B5000112827D1174C1068A0421ED11068806858
:100B600000F40000F0B91068806840F400001468D8
:100B7000A0600868102815D10F4800680F4CB0FB22
:100B8000F4F000EB80004000009002E00098401E6E
:100B9000009000980028F9D104E0906A40F020000D
:100BA0009062012300BF002082F8240000BF184695
:100BB00061E70000002401401000002040420F00C7
:100BC00001460868C06C70472DE9F04104460027D3
:100BD00000250026A84614B90120BDE8F081A068D0
:100BE00010B1207D00B100BFA06A30B90020E062E2
:100BF00084F82400204600F089F82046FFF7B4FE70
:100C00000746A06A00F01000002873D1002F71D1B0
:100C1000A06A20F4885040F00200A062E169606898
:100C20000843217B40EA41000643A068B0F5807F7D
:100C300002D0A068012802D14FF4807000E00020AB
:100C40000543207D012811D1207B38B9A069401EC1
:100C50004FF4006141EA4030054307E0A06A40F0EC
:100C60002000A062E06A40F00100E0622068406875
:100C700020F4694028432168486020688068214941
:100C80000840304321688860A068B0F5807F02D0BA
:100C9000A068012802D14FF4807000E00020B0F578
:100CA000807F03D1208A401E4FEA00582068C06A26
:100CB00020F4700040EA08002168C862206880685B
:100CC00011490840B04208D10020E062A06A20F03B
:100CD000020040F00100A06211E0A06A20F00200D2
:100CE00040F01000A062E06A40F00100E0620127DD
:100CF00005E0FFE7A06A40F01000A0620127384637
:100D00006BE70000FDF7E1FFFE0E1FFF10B586B098
:100D10000446002002900390049005901349206837
:100D2000884221D100BF1248806940F40070104908
:100D300088610846806900F40070019000BF00BF20
:100D400000BF0846806940F0040088610846806959
:100D500000F00400019000BF00BF03200290039048
:100D600002A9044800F018FA06B010BD00240140A2
:100D70000010024000080140F8B504460D46002668
:100D800000200090002700F0A5FB06462068806840
:100D900000F4807050B1A06A40F02000A06200BF53
:100DA000002084F8240000BF0120F8BD20684068BE
:100DB00000F4807020BB2068C06A00F47000F8B9AD
:100DC00017E0681CA8B125B100F084FB801BA84285
:100DD0000FD92068006800F0020050B9A06A40F006
:100DE0000400A06200BF002084F8240000BF03209C
:100DF000DBE72068006800F002000028E1D053E043
:100E0000022000F079FC38490968B1FBF0F0216854
:100E10000969364A114091B92168C9689211114097
:100E200069B921680969324A114031B92168C96834
:100E30009211114009B9142117E0292115E0216808
:100E400009692B4A114021B92168C96892111140E2
:100E500041B121680969274A114029B92168C96847
:100E6000114009B9542100E0FC2100FB01F718E012
:100E7000681C98B125B100F02DFB801BA8420DD94C
:100E80000098B8420AD2A06A40F00400A06200BFF5
:100E9000002084F8240000BF032086E70098401C4F
:100EA00000900098B842E3D36FF012002168086008
:100EB000A06A40F40070A0622068806800F460209E
:100EC000B0F5602F0DD1207B58B9A06A20F4807056
:100ED000A062A06A00F4805018B9A06A40F0010036
:100EE000A062002061E70000100000202449922445
:100EF000922449124992240070B50446002500BF8F
:100F000094F82400012801D1022070BD012084F84A
:100F1000240000BF2046FFF755FD0546002D77D180
:100F2000A06A40F20121884340F48070A0623C49ED
:100F30002068884208D13B48006800F4702008B956
:100F4000012002E0002000E0012078B1A06A20F436
:100F50008010A0622068406800F4806000B3A06A3E
:100F600020F4005040F48050A06219E0A06A40F4E0
:100F70008010A0622B49091F2068884203D02849AD
:100F80002068884204D12748006800F4806000E0AF
:100F9000002028B1A06A20F4005040F48050A062E4
:100FA000A06A00F4805020B1E06A20F00600E06200
:100FB00001E00020E06200BF002084F8240000BFB0
:100FC000C01E216808602068806800F46020B0F5C9
:100FD000602F16D112492068884208D11148006854
:100FE00000F4702008B9012002E0002000E0012098
:100FF00038B12068806840F4A000216888600CE067
:1010000006E02068806840F480102168886004E071
:1010100000BF002084F8240000BF284675E70000C8
:10102000002801400424014070B50446002500BF9B
:1010300094F82400012801D1022070BD012084F819
:10104000240000BF2046FFF78FFC05462DB9A06A9B
:1010500020F4885040F00100A06200BF002084F816
:10106000240000BF2846E8E70146002291F821004D
:10107000022808D00420886300BF002081F82000E7
:1010800000BF012070470868006820F00E000B6860
:1010900018600868006820F001000B68186091F87B
:1010A000403001209840CB6B5860012081F821002E
:1010B00000BF002081F8200000BF1046E2E70000DA
:1010C00070B50446002594F82100022803D00420BE
:1010D000A063012548E02068006820F00E00216828
:1010E00008602068006820F00100216808601F493E
:1010F0002068884201D1012026E01C491431206873
:10110000884201D110201FE0184928312068884208
:1011100001D1801518E015493C312068884201D181
:10112000801411E0114950312068884202D14FF4F7
:10113000803009E00D4964312068884202D14FF4C3
:10114000801001E04FF080700849083948600120A4
:1011500084F8210000BF002084F8200000BF606BED
:1011600010B12046616B8847284670BD08000240D8
:1011700070B5044600F0AEF906462546681C10B16D
:1011800004480078054400BF00F0A4F9801BA84281
:10119000FAD370BD0C0000202DE9F8470346002269
:1011A00094466EE14FF0010808FA02F4D1F800808D
:1011B00008EA0400A0427DD1DFF8DCA2D1F8048067
:1011C000A8EB0A09D0453AD014DCB8F1030F50D08F
:1011D00009DCB8F1000F31D0B8F1010F1CD0B8F123
:1011E000020F49D120E0B8F1110F18D0B8F1120F59
:1011F00042D11EE0B9F5881F25D006DCB9F5803F45
:1012000020D0B9F5801F37D11AE0B9F5001F18D0EA
:10121000B9F5041F30D117E0D1F80CC02DE0D1F89A
:101220000C8008F1040C28E0D1F80C8008F1080CBF
:1012300023E0D1F80C8008F10C0C1EE000BF00BFC9
:1012400000BF00BF00BF00BFD1F80880B8F1000F99
:1012500002D14FF0040C0BE0D1F80880B8F1010F77
:1012600003D14FF0080C1C6102E04FF0080C5C61E8
:1012700003E04FF0000C00E000BF00BFFF2801D8E2
:10128000984601E003F104084646FF2802D84FEAD9
:10129000820803E0A2F108084FEA88084746D6F81A
:1012A00000804FF00F0909FA07F928EA09080CFA3B
:1012B00007F900E088E048EA0908C6F80080D1F89C
:1012C000048008F08058B8F1805F7DD100BFDFF85E
:1012D000CC81D8F8188048F00108DFF8C091C9F82F
:1012E0001880C846D8F8188008F00108CDF80080AA
:1012F00000BF00BF4FEAB9384FEA920958F82950A9
:101300004FEA82784FEA18794FF00F0808FA09F887
:1013100025EA0805DFF88881434502D14FF000082F
:1013200016E0DFF88081434502D14FF001080FE05D
:10133000DFF87481434502D14FF0020808E0DFF87E
:101340006C81434502D14FF0030801E04FF00408DF
:101350004FEA82794FEA197908FA09F848EA05054F
:10136000DFF84C814FEA920948F82950D1F80480FF
:1013700008F48038B8F5803F0AD1DFF83881D8F812
:10138000008048EA0008DFF82C91C9F8008009E0E5
:10139000DFF82081D8F8008028EA0008DFF81491EF
:1013A000C9F80080D1F8048008F40038B8F5003F8F
:1013B00010D1DFF8008108F10408D8F8008048EA6D
:1013C0000008DFF8F09000E05AE009F10409C9F8DC
:1013D00000800DE0DFF8DC8008F10408D8F8008018
:1013E00028EA0008DFF8CC9009F10409C9F8008068
:1013F000D1F8048008F48018B8F5801F0ED1DFF80A
:10140000B48008F10808D8F8008048EA0008DFF83E
:10141000A49009F10809C9F800800DE0DFF8948074
:1014200008F10808D8F8008028EA0008DFF884905E
:1014300009F10809C9F80080D1F8048008F40018FF
:10144000B8F5001F0ED1DFF86C8008F10C08D8F851
:10145000008048EA0008DFF85C9009F10C09C9F83F
:1014600000800DE0DFF84C8008F10C08D8F800800F
:1014700028EA0008DFF83C9009F10C09C9F800805F
:10148000521CD1F8008028FA02F8B8F1000F7FF45E
:1014900089AEBDE8F887000000001110001002407E
:1014A00000080140000C0140001001400014014000
:1014B0000800014000040140024693680B400BB154
:1014C000012000E0002070470AB1016101E00B0437
:1014D0000361704701480068704700000400002065
:1014E00003480068034909780844014908607047C7
:1014F000040000200C00002010B50848006840F0EF
:10150000100006490860032000F0E2F80F2000F008
:1015100007F800F05FF8002010BD00000020024036
:101520002DE9F04188B004460027B846002600BFE8
:101530002348C06940F004002149C8610846C069D9
:1015400000F00400019000BF00BF02A903A800F052
:10155000BDFA069F1FB900F0E1FA054602E000F06F
:10156000DDFA45001748B5FBF0F0A0F10108164878
:101570001649086040F2E7311448C160C0F80480A1
:10158000002101618160816100F0D7FE064696B9B5
:101590000E4800F007FF06466EB91E2000F04AF81C
:1015A000102C07D2002221461E2000F053F80848D4
:1015B000046000E00126304608B0BDE8F08100007C
:1015C0000010024040420F00000800400C020020C2
:1015D0000800002008B500BF1448806940F00100F1
:1015E000124988610846806900F00100009000BF40
:1015F00000BF00BF0846C06940F08050C86108467F
:10160000C06900F08050009000BF00BF00220F2191
:10161000901E00F01FF800BF0549486820F0E06008
:1016200040F00070486000BF08BD0000001002409C
:101630000000014001460846002809DB00F01F03B6
:1016400001229A4043099B0003F1E023C3F80021E3
:1016500000BF70472DE9F05F80460D461646002713
:1016600001F07CFF074639462A46334601F0070061
:10167000C0F1070ABAF1040F02D94FF0040A01E0E1
:10168000C0F1070AD14600F1040ABAF1070F02D2ED
:101690004FF0000A01E0A0F1030AD4464FF0010A1E
:1016A0000AFA09FAAAF1010A0AEA020A0AFA0CFA83
:1016B0004FF0010B0BFA0CFBABF1010B0BEA030B28
:1016C0004AEA0B042146404601F050FFBDE8F09F76
:1016D00000BF00F00702064B19684FF6FF031940E0
:1016E000044B0B4343EA0221014B196000BF7047D2
:1016F0000CED00E00000FA052DE9F04385B0064648
:101700003BA30FCB01AC0FC43DA0006800904FF08D
:101710000008002500270024A146012E30D0022E0B
:1017200055D0102E5ED137484468006800F08070B4
:1017300000B301A8C4F38341475C04F4803070B166
:1017400030484068C0F340401DF8008004F4803009
:1017500040B12D48B0FBF8F000FB07F502E02B4844
:1017600007FB00F52748406800F48000B0F5800FC3
:1017700001D1A94603E068000321B0FBF1F932E092
:101780002048046A04F44070B0F5807F05D104F06D
:10179000020010B14FF4004918E004F44070B0F5B5
:1017A000007F07D11748406A00F0020010B149F6E7
:1017B00040490BE004F44070B0F5407F06D1114879
:1017C000006800F4003008B14FF224490BE000F04B
:1017D000B5F90C494968C1F38131491C4900B0FB96
:1017E000F1F900E000BF00BF484605B0BDE8F08356
:1017F00002030405060708090A0B0C0D0E0F101052
:10180000010200000010024000127A0000093D00B1
:10181000F8B5044600260025207800F001000028D5
:101820006BD000274348C06900F0805070B900BFFA
:101830004048C06940F080503E49C8610846C069D0
:1018400000F08050009000BF00BF01273A480068B8
:1018500000F48070B0B93848006840F480703649B0
:101860000860FFF737FE064606E0FFF733FE801BF1
:10187000642801D90320F8BD2F48006800F4807067
:101880000028F2D02B48006A00F440752DB3A088E0
:1018900000F44070A84220D02648006A20F4407529
:1018A000012026490860002008602248056205F0F2
:1018B000010090B1FFF70EFE064608E0FFF70AFEB2
:1018C000801B41F28831884201D90320D3E71948AF
:1018D000006A00F002000028F0D01648006A20F4E8
:1018E00040706168084313490862012F04D108461B
:1018F000C06920F08050C86100BF207800F002006D
:10190000022807D10B48406820F44040A1680843F2
:1019100008494860207800F01000102807D10548D9
:10192000406820F48000E1680843024948600020D4
:10193000A1E7000000100240007000404004424255
:1019400070B504460D460CB9012070BD5A480068B8
:1019500000F00700A8420ED25748006820F00700A8
:101960002843554908600846006800F00700A8426F
:1019700001D00120E9E7207800F0020002281DD103
:10198000207800F00400042805D14C48406840F459
:10199000E0604A494860207800F00800082805D136
:1019A0004648406840F460504449486043484068B5
:1019B00020F0F000A168084340494860207800F01A
:1019C000010078B36068012806D13C48006800F443
:1019D000003090B90120B8E76068022806D1374886
:1019E000006800F0007040B90120AEE7334800689D
:1019F00000F0020008B90120A7E73048406820F055
:101A00000300616808432D494860FFF763FD0646FF
:101A100009E0FFF75FFD801B41F28831884202D95F
:101A2000032092E707E02548406800F00C00616859
:101A3000B0EB810FEDD12048006800F00700A8420C
:101A40000ED91D48006820F0070028431A49086095
:101A50000846006800F00700A84201D0012074E7A2
:101A6000207800F00400042807D11448406820F4CE
:101A7000E060E168084311494860207800F0080000
:101A8000082808D10D48406820F46050216940EAD8
:101A9000C1000A49486000F061F808494968C1F38B
:101AA0000311074A515CC8400649086006480068AF
:101AB000FFF736FD002048E70020024000100240FA
:101AC0000472000810000020080000200F220260AD
:101AD0000D4A526802F0030242600B4A526802F05B
:101AE000F0028260084A526802F4E062C260064A6C
:101AF000526802F46052D2080261044A126802F08D
:101B000007020A60704700000010024000200240F7
:101B100001480068704700001000002000B5FFF782
:101B2000F7FF04494968C1F30221034A515CC840E8
:101B300000BD0000001002401472000800B5FFF75D
:101B4000E7FF04494968C1F3C221034A515CC84018
:101B500000BD00000010024014720008F0B585B00E
:101B60000FF26C0C9CE8E01001A8A0E8E0101CA5A6
:101B70002D68009500210022002300240020194D2B
:101B8000696801F00C05F5B1042D02D0082D19D1BA
:101B900001E0154819E001ADC1F38346AC5D01F4E5
:101BA000803555B10F4D6D68C5F340451DF80520D2
:101BB0000D4D6543B5FBF2F302E00C4D04FB05F35C
:101BC000184602E000BF084800BF00BF05B0F0BDE6
:101BD00002030405060708090A0B0C0D0E0F10106E
:101BE000010200000010024000127A0000093D00CE
:101BF000F8B504460CB90120F8BD207800F00100CA
:101C0000002878D0F848406800F00C0004280CD078
:101C1000F548406800F00C00082811D1F2484068EF
:101C200000F48030B0F5803F0AD1EF48006800F43E
:101C3000003000285FD0606800285CD10120DBE71D
:101C400000BF6068B0F5803F06D1E748006840F407
:101C50008030E549086028E0606858B9E2480068CB
:101C600020F48030E04908600846006820F48020B5
:101C700008601AE06068B0F5A02F0BD1DA48006860
:101C800040F48020D84908600846006840F480305D
:101C900008600AE0D448006820F48030D249086027
:101CA0000846006820F48020086000BF606888B1A2
:101CB000FFF710FC054606E0FFF70CFC401B64280C
:101CC00001D9032098E7C848006800F400300028D4
:101CD000F2D010E0FFF7FEFB054606E0FFF7FAFB47
:101CE000401B642801D9032086E7BF48006800F440
:101CF00000300028F2D1207800F00200022857D1ED
:101D0000B948406800F00C0050B1B748406800F096
:101D10000C00082818D1B448406800F4803098B905
:101D2000B148006800F0020020B12069012801D00C
:101D3000012061E7AC48006820F0F800616940EAE2
:101D4000C100A949086033E02069E8B10120A74932
:101D50000860FFF7BFFB054606E0FFF7BBFB401B33
:101D6000022801D9032047E79F48006800F00200DD
:101D70000028F2D09C48006820F0F800616940EA31
:101D8000C1009949086013E0002098490860FFF7F6
:101D9000A1FB054606E0FFF79DFB401B022801D989
:101DA000032029E79048006800F002000028F2D1E3
:101DB000207800F0080008282DD1A069B8B10120D2
:101DC0008B490860FFF786FB054606E0FFF782FBBC
:101DD000401B022801D903200EE78348406A00F027
:101DE00002000028F2D0012001F098F813E0002052
:101DF0007F490860FFF76EFB054606E0FFF76AFBC8
:101E0000401B022801D90320F6E67748406A00F01B
:101E100002000028F2D1207800F00400042873D1D9
:101E200000277148C06900F0805070B900BF6E484B
:101E3000C06940F080506C49C8610846C06900F034
:101E40008050009000BF00BF01276A48006800F47E
:101E50008070B0B96748006840F4807065490860D8
:101E6000FFF738FB054606E0FFF734FB401B64280C
:101E700001D90320C0E65F48006800F480700028A4
:101E8000F2D000BFE068012806D15748006A40F050
:101E900001005549086227E0E06858B95248006AD5
:101EA00020F00100504908620846006A20F0040052
:101EB000086219E0E06805280BD14B48006A40F041
:101EC0000400494908620846006A40F001000862BF
:101ED0000AE04548006A20F00100434908620846CC
:101EE000006A20F00400086200BFE068A0B1FFF7BC
:101EF000F1FA054609E0FFF7EDFA401B41F288319F
:101F0000884202D9032077E622E03748006A00F0D1
:101F100002000028EFD012E0FFF7DCFA054608E0E7
:101F2000FFF7D8FA401B41F28831884201D90320DB
:101F300062E62D48006A00F002000028F0D1012F6F
:101F400005D12948C06920F080502749C86100BFE9
:101F5000E069C8B32448406800F00C00082860D04D
:101F6000E069022848D1002020490866FFF7B2FA4C
:101F7000054606E0FFF7AEFA401B022801D9032010
:101F80003AE61948006800F000700028F2D1206A93
:101F9000B0F5803F07D11448406820F40030A168B4
:101FA000084311494860D4E9080108430E494968CB
:101FB00021F4741108430C49486001200B4908665C
:101FC000FFF788FA054607E03DE0FFF783FA401B7C
:101FD000022801D903200FE60348006800F00070D2
:101FE0000028F2D02FE00000001002400000424222
:101FF0008004424200700040002014490866FFF748
:1020000069FA054606E0FFF765FA401B022801D988
:102010000320F1E50E48006800F000700028F2D1BE
:1020200011E0E069012800D1E6E50948466806F4B8
:102030008031206A814204D106F47011606A8142C5
:1020400001D00120D8E50020D6E500000000424282
:102050000010024010B504460CB9012010BD606AA2
:1020600038B96068B0F5827F00D105E00021E161F8
:1020700002E00021216161610021A16294F8510018
:1020800028B9002084F85000204600F043F80220D0
:1020900084F851002068006820F040002168086042
:1020A000A08800F48270218901F404410843A189C9
:1020B00001F400610843217C01F002010843217D05
:1020C00001F001010843218B01F400710843217FD5
:1020D00001F0380108432021095D01F08001084327
:1020E000218D01F400510843216808600421A06992
:1020F00001EA1040216848602068C06920F400604F
:102100002168C86100206065012084F8510000202A
:10211000A4E7000010B586B00446002002900390AA
:102120000490059015492068884224D100BF1448C6
:10213000806940F48050124988610846806900F443
:102140008050019000BF00BF00BF0846806940F08A
:10215000040088610846806900F00400019000BF17
:1021600000BFA0200290022003900320059002A946
:102170000448FFF711F806B010BD00000030014020
:1021800000100240000801402DE9F84F044688463F
:1021900016461D464FF0000A00BF94F85000012873
:1021A00002D10220BDE8F88F012084F8500000BF62
:1021B000FFF790F90746B14694F85100012802D084
:1021C0004FF0020AADE0B8F1000F00D016B94FF0A1
:1021D000010AA6E0032084F8510000206065C4F8DD
:1021E0003080A686E686A063A087E08760642064CE
:1021F000A068B0F5004F0BD12068006820F04000C7
:10220000216808602068006840F480402168086008
:102210002068006800F04000402805D02068006871
:1022200040F0400021680860E068B0F5006F2FD1F1
:10223000606810B1B9F1010F09D1206B00882168E5
:10224000C860206B801C2063E08E401EE0861BE08F
:102250002068806800F0020002280AD1206B008804
:102260002168C860206B801C2063E08E401EE086E1
:102270000AE0FFF72FF9C01BA84201D3681C00B980
:1022800015B94FF0030A4CE0E08E0028E0D12EE0B3
:10229000606810B1B9F1010F09D1206B0078216895
:1022A0000873206B401C2063E08E401EE0861BE01C
:1022B0002068806800F0020002280AD1206B0078B4
:1022C00021680873206B401C2063E08E401EE0866E
:1022D0000AE0FFF7FFF8C01BA84201D3681C00B951
:1022E00015B94FF0030A1CE0E08E0028E0D13A4611
:1022F0002946204600F026FE08B120206065A0682F
:1023000050B900BF002000902068C068009020688D
:102310008068009000BF00BF606D08B14FF0010AF7
:1023200000BF012084F8510000BF002084F8500055
:1023300000BF504636E77047704710B504460CB9E9
:10234000012010BD94F83D0028B9002084F83C001D
:10235000204600F025F8022084F83D00211D206869
:1023600000F0F0FE012084F8460000BF84F83E0033
:1023700001213F200155402001554120015500BF5A
:1023800000BF012084F8420043200155442001553C
:102390004520015500BF012084F83D000020D0E712
:1023A00070470000014691F83D00012801D001204E
:1023B0007047022081F83D000868C06840F00100C5
:1023C0000B68D860124B086898420BD00868B0F1CF
:1023D000804F07D00F4B0868984203D00E4B086817
:1023E00098420CD10868806800F00702062A0CD0D9
:1023F0000868006840F001000B68186005E0086894
:10240000006840F001000B6818600020D0E7000071
:10241000002C01400004004000080040704710B547
:10242000044620680069C0F34000D8B12068C06845
:10243000C0F34000B0B16FF00200216808610120D4
:1024400020772068806900F0030018B12046FFF76C
:10245000E5FF05E0204600F0ADF8204600F0ABF8BF
:102460000020207720680069C0F38000D8B1206880
:10247000C068C0F38000B0B16FF00400216808614B
:10248000022020772068806900F4407018B120464F
:10249000FFF7C4FF05E0204600F08CF8204600F06E
:1024A0008AF80020207720680069C0F3C000D8B106
:1024B0002068C068C0F3C000B0B16FF008002168A8
:1024C0000861042020772068C06900F0030018B17B
:1024D0002046FFF7A3FF05E0204600F06BF82046FA
:1024E00000F069F80020207720680069C0F3001030
:1024F000D8B12068C068C0F30010B0B16FF0100010
:1025000021680861082020772068C06900F44070C5
:1025100018B12046FFF782FF05E0204600F04AF898
:10252000204600F048F8002020772068006900F07D
:10253000010058B12068C06800F0010030B16FF0B0
:10254000010021680861204600F036F82068006923
:10255000C0F3C01058B12068C068C0F3C01030B1DB
:102560006FF08000216808612046FFF7E4FE2068D4
:102570000069C0F3801058B12068C068C0F38010B3
:1025800030B16FF0400021680861204600F020F86B
:1025900020680069C0F3401058B12068C068C0F3DB
:1025A000401030B16FF02000216808612046FFF72D
:1025B000C3FE10BD7047704710B50446034920683C
:1025C000884201D1FEF78CFF10BD000000080040DA
:1025D00070477047704700002DE9F84F04462068A7
:1025E00005682068C668206847694FF00009CA4638
:1025F00005F00F09B9F1000F0AD105F0200038B13C
:1026000006F0200020B1204600F00BFEBDE8F88F58
:10261000B9F1000F71D007F0010018B906F49070FD
:1026200000286AD005F0010030B106F4807018B1BE
:10263000206C40F00100206405F0040030B107F088
:10264000010018B1206C40F00200206405F0020087
:1026500030B107F0010018B1206C40F00400206494
:1026600005F0080048B106F0200010B907F001009D
:1026700018B1206C40F008002064206C68B305F0AD
:10268000200028B106F0200010B1204600F0C9FD5E
:1026900020684069C0F3801A206C00F0080010B96F
:1026A000BAF1000F22D0204600F090FD206840696A
:1026B00000F04000B0B12068406920F0400021687F
:1026C0004861A06B50B15648A16B4863A06BFEF700
:1026D000F7FC10B1A06B416B88470CE02046FFF778
:1026E00079FF08E02046FFF775FF04E02046FFF77A
:1026F00071FF0020206489E7FFE7206B012878D173
:1027000005F01000002874D006F01000002870D0EA
:1027100000BF00200090206800680090206840689A
:10272000009000BF00BF2068406900F04000C0B3C7
:10273000A06B006840681FFA80F8B8F1000F2FD036
:10274000A08D40452CDDA4F82E80A06B8069202848
:102750001FD02068C06820F480702168C86020689D
:10276000406920F00100216848612068406920F03C
:10277000400021684861202084F83E00002020634A
:102780002068C06820F010002168C860A06BFEF7C8
:102790006BFCA08DE28D801A81B22046FFF719FFF5
:1027A00034E7FFE7A08DE18D401A1FFA80F8E08D35
:1027B000E8B1B8F1000F1AD02068C06820F490701A
:1027C0002168C8602068406920F0010021684861E4
:1027D000202084F83E00002020632068C06820F09C
:1027E00010002168C86041462046FFF7F2FE0DE761
:1027F000FFE705F0800030B106F0800018B12046F8
:1028000000F023FE02E705F0400030B106F0400082
:1028100018B1204600F0F5FCF8E600BFF6E600002F
:10282000B931000810B504460CB9012010BDA069EB
:1028300000B100E000BF94F83D0028B9002084F802
:102840003C00204600F028F8242084F83D00206851
:10285000C06820F400502168C860204600F054FD94
:102860002068006920F49040216808612068406970
:1028700020F02A00216848612068C06840F40050B8
:102880002168C86000202064202084F83D0084F87E
:102890003E000020CAE7000010B586B004460020C4
:1028A00002900390049005903B492068884237D1FC
:1028B00000BF3A48806940F4804038498861084642
:1028C000806900F48040019000BF00BF00BF08464F
:1028D000806940F0040088610846806900F00400C7
:1028E000019000BF00BF4815029002200390032012
:1028F000059002A92A48FEF74FFC4FF48060029031
:1029000000200390049002A92548FEF745FC002210
:1029100005212520FEF79EFE2520FEF78BFE39E0DF
:1029200020492068884235D100BF1C48C06940F466
:1029300000301A49C8610846C06900F400300190AF
:1029400000BF00BF00BF0846806940F004008861F6
:102950000846806900F00400019000BF00BF042019
:102960000290022003900320059002A90C48FEF774
:1029700013FC0820029000200390049002A908484C
:10298000FEF70AFC002205212620FEF763FE262022
:10299000FEF750FE06B010BD0038014000100240A6
:1029A000000801400044004070B504460D4616463C
:1029B00094F83E00202816D105B10EB9012070BD53
:1029C00000BF94F83C00012801D10220F7E7012064
:1029D00084F83C0000BF0020206332462946204690
:1029E00000F010FDEBE70220E9E7000010B5044617
:1029F00006492068884208D10548007802F0BEFDEB
:102A0000012203490348FFF7CFFF10BD00440040F7
:102A100000000020C80100202DE9F84F04460E46B2
:102A2000174699464FF0000A94F83D0020285AD1E5
:102A300006B117B90120BDE8F88F00BF94F83C003B
:102A4000012801D10220F6E7012084F83C0000BFF4
:102A500000202064212084F83D00FEF73BFD8246E3
:102A6000A784E784A068B0F5805F04D1206910B91D
:102A70000025B04602E035464FF0000800BF0020B8
:102A800084F83C0000BF1BE0534600228021204612
:102A9000CDF8009000F009FD08B10320CBE745B95F
:102AA000B8F80000C0F308002168486008F1020887
:102AB00003E02878216848606D1CE08C401EE084AB
:102AC000E08C0028E0D15346002240212046CDF87A
:102AD000009000F0EAFC08B10320ACE7202084F865
:102AE0003D000020A7E70220A5E7704700BFFEE7F2
:102AF00010B51F48007898B910211E48FEF7DCFC7D
:102B000070B90A20FEF734FB10211A48FEF7D4FCF6
:102B100030B9012016490870FEF7DCFC1649086040
:102B200013480078012821D110211248FEF7C4FC77
:102B3000012811D1FEF7CEFC0F490968401AB0F503
:102B40007A7F04D900200A490870032010BD0020B4
:102B5000074908700120F9E7FEF7BCFC064909683F
:102B6000401AB0F57A7F01D90220EFE70020EDE7A7
:102B70008C000020000801409000002010B50020CB
:102B800000F002F810BD000010B5044634B1012C6D
:102B90000AD0022C0ED0032C15D110E001221146D0
:102BA0000A48FEF791FC0FE0002201210748FEF7DA
:102BB0008BFC09E04FF4FA7000F00AF804E064209E
:102BC00000F006F800E000BF00BF10BD000C01409F
:102BD00010B50446002201210F48FEF775FC20467F
:102BE00002F0BCFF012211460B48FEF76DFC2046A7
:102BF00002F0B4FF002201210748FEF765FC2046E1
:102C000002F0ACFF012211460348FEF75DFC2046AE
:102C100002F0A4FF10BD0000000C01400EB5002022
:102C200000900190029019481949086081151848D0
:102C30008160002101730121017581614FF46021E0
:102C4000C161002012494860022111480161FDF76D
:102C5000BBFF08B1FDF701FF0020009001200190AB
:102C60000020029069460A48FDF7FAFE08B1FDF718
:102C7000F4FE012000900220019069460448FDF70F
:102C8000EFFE08B1FDF7E9FE0EBD00000024014093
:102C9000FC0000201CB5FFF771FF01F041FB01F0C3
:102CA000D5FB00224FF400611A48FEF70DFC47F2F5
:102CB0003050FEF75DFA00F0C3FF02F055FB002034
:102CC000192103464FF48072CDE9001012A1164875
:102CD00003F048FF0020182103464FF48072CDE92D
:102CE000001012A1144803F03DFF002018210346F4
:102CF0005022CDE9001011A1134803F033FF00204A
:102D0000182103468022CDE9001010A1124803F0DB
:102D100029FF1CBD000801407072696E7465725F06
:102D20007461736B00000000215400086465765FD5
:102D30007461736B00000000715200086C65645F81
:102D40007461736B00000000D15300086B65795FFC
:102D50007461736B000000009953000800B585B0E2
:102D60000020019002900390049000BF31488069D8
:102D700040F020002F4988610846806900F020005B
:102D8000009000BF00BF00BF0846806940F004000B
:102D900088610846806900F00400009000BF00BF11
:102DA00000BF0846806940F00800886108468069D5
:102DB00000F00800009000BF00BF00224FF6C37172
:102DC0001D48FEF781FB00224FF400611B48FEF70F
:102DD0007BFB10200190002002900120039001A9AC
:102DE0001648FEF7D9F94FF6C37001900120029002
:102DF000002003900220049001A90F48FEF7CCF9AF
:102E00004FF480700190002002900220039001A9ED
:102E10000A48FEF7C1F94FF40060019001200290CA
:102E2000002003900220049001A90448FEF7B4F9A1
:102E300005B000BD00100240000C01400008014038
:102E400010B50F480F4908604FF4827048604FF486
:102E500000410C4881600021C160016141614FF473
:102E6000007181612821C16100210162416281629A
:102E70000A21C162FFF7EEF808B1FDF7EEFD10BDC3
:102E8000003001402C01002010B50B480B490860B0
:102E90004FF4E1304860002108488160C160016161
:102EA0000C21416100218161C161FFF7BBFC08B1C8
:102EB000FDF7D3FD10BD0000003801408401002063
:102EC00010B50B480B4908604FF4E1304860002111
:102ED00008488160C16001610C214161002181616C
:102EE000C161FFF79FFC08B1FDF7B7FD10BD000001
:102EF00000440040C801002000BFFEE700BFFEE71D
:102F000010B54FF480710448FEF7D6FA08B10120DD
:102F100010BD0020FCE700000008014008B508498A
:102F20000968C9084FF47A72B1FBF2F1414300918C
:102F300000BF00BF00994A1E00920029F9D108BDC8
:102F400010000020F8B504460D4616462B46002218
:102F500080212046009600F009F828B1606D40F00D
:102F6000200060650320F8BD0020FCE72DE9F84F44
:102F700004460D4690461E46DDF82890FEF7AAFA54
:102F8000A0EB0900371AFEF7A5FA82462C48006824
:102F9000C0F3CB307843009045E0701C002842D04D
:102FA000FEF798FAA0EB0A00B84200D2A7BB20684F
:102FB000406820F0E000216848606068B0F5827FDA
:102FC0000DD1A068B0F5004F03D0A068B0F5806FB8
:102FD00005D12068006820F0400021680860A06AE0
:102FE000B0F5005F0DD100BF2068006820F40050EC
:102FF000216808602068006840F40050216808607B
:1030000000BF012084F8510000BF002084F8500068
:1030100000BF0320BDE8F88FFFE7009800B9002744
:103020000098401E0090206880682840A84201D186
:10303000012000E000204045AFD10020EAE7000079
:103040001000002008B56A4601210948006803F015
:103050002DF80098012809D1009838B14FF0805020
:1030600004490860BFF34F8FBFF36F8F08BD0000A6
:10307000F000002004ED00E010B500BF502080F308
:103080001188BFF34F8FBFF36F8F00BF03F00EFEA9
:1030900018B14FF080500449086000BF002080F351
:1030A000118800BF10BD000004ED00E000B593B032
:1030B000282109A8FDF7ABF8142104A8FDF7A7F80B
:1030C00000200090019002900390012009900004DC
:1030D0000A9000200B9001200D9002201090C10357
:1030E00011914FF4E011129109A8FEF781FD08B18A
:1030F000FDF7B3FC0F2004900220059000200690FD
:103100004FF48060079000200890022104A8FEF789
:1031100017FC08B1FDF7A1FC02200090800302908B
:103120006846FEF775FB08B1FDF797FC13B000BDCC
:103130007047000010B50248FFF771F910BD00009C
:103140000C02002010B50268184B984208D0B0F16C
:10315000804F05D0164B984202D0164B984203D1AF
:1031600022F070024B681A43104B984208D0B0F11D
:10317000804F05D00E4B984202D00E4B984203D19F
:1031800022F44072CB681A4322F080034C6943EA70
:10319000040202608B68C3620B688362034B98422F
:1031A00001D10B6903630123436110BD002C014071
:1031B000000400400008004070B505466C6A00201D
:1031C000E085E0842046FFF705FA70BD0168C96814
:1031D00021F490710268D1600168496921F0010110
:1031E00002685161016B012905D10168C96821F0AC
:1031F00010010268D160202180F83E100021016397
:10320000704710B504462068C06820F0400021686F
:10321000C860202084F83D002046FFF766FC0020AF
:1032200010BDF8B5044694F83E00222869D1A06884
:10323000B0F5805F0CD1206950B90025A66A2068DE
:103240004068C0F308003080A06A801CA06215E0CE
:10325000A56A0026A068B0F5805F03D0A06828B9F1
:10326000206918B920684068287004E02068406828
:1032700000F07F002870A06A401CA062E08D401E14
:1032800080B2E085A8BB2068C06820F020002168DB
:10329000C8602068C06820F480702168C860206819
:1032A000406920F0010021684861202084F83E0038
:1032B000206B01281ED1002020632068C06820F008
:1032C00010002168C8602068006800F01000102815
:1032D0000AD100BF0020009020680068009020689C
:1032E0004068009000BF00BFA18D2046FFF771F934
:1032F00003E004E02046FFF779FB0020F8BD002042
:10330000FCE70220FAE7000070B50446216809696D
:1033100021F44051E2681143226811612269A168D9
:103320001143626941EA02052168C96841F20C62F1
:10333000914329432268D1602168496921F4407191
:10334000A2691143226851612D4A2168914202D13C
:10335000FEF7F4FB01E0FEF7E1FB00EBC00101EB3F
:10336000001162689200B1FBF2F100EBC00202EBC7
:10337000001263689B00B2FBF3F26423B2FBF3F22A
:1033800002EBC20303EB0212A1EB8201322202EB39
:1033900001116422B1FBF2F101F0F00100EBC00277
:1033A00002EB001263689B00B2FBF3F26423B2FBF2
:1033B000F3F201EB021200EBC00101EB00116368B4
:1033C0009B00B1FBF3F100EBC00303EB0013666855
:1033D000B600B3FBF6F36426B3FBF6F303EBC306C8
:1033E00006EB0313A1EB8301322303EB01116423EA
:1033F000B1FBF3F101F00F0111442268916070BD3F
:103400000038014010B5034699629A85DA8500209C
:103410001864222083F83E0000BF002083F83C009F
:1034200000BF1868C06840F480701C68E0601868CD
:10343000406940F001001C6860611868C06840F095
:1034400020001C68E060002010BD014691F83D009E
:10345000212828D18868B0F5805F0BD1086948B968
:103460000A6A1088C0F308000B685860086A801C5C
:10347000086205E00B6A581C086218780B685860EF
:10348000C88C401E80B2C88458B90868C06820F053
:1034900080000B68D8600868C06840F040000B6886
:1034A000D860002070470220FCE72DE9F041044677
:1034B0000D4617469846069E21E0701CF8B12EB1C5
:1034C000FEF708F8A0EB0800B04218D92068C068E1
:1034D00020F4D0702168C8602068406920F00100A5
:1034E00021684861202084F83D0084F83E0000BF38
:1034F000002084F83C0000BF0320BDE8F081206874
:1035000000682840A84201D1012000E00020B84214
:10351000D3D00020F1E7000010B50248FFF75CF8B7
:1035200010BD00008401002010B50248FFF754F8D8
:1035300010BD0000C801002000BFFEE70FB4054B1E
:1035400010B503A9044A029800F0A8F810BC5DF871
:1035500014FB0000C53A0008F4000020024800688F
:10356000C0F30220704700000CED00E010B5002809
:1035700004DB0A07130E054A135406E00A07140E6B
:10358000034A00F00F031B1FD45410BD00E400E0F9
:1035900018ED00E0EFF311807047EFF305807047FE
:1035A000EFF3108070472DE9F0414F1E00EBC7018B
:1035B0000446D1E9000115461E4637F006020DD03B
:1035C0002A463346FCF75EFF7F1E04EBC703D3E9B0
:1035D0000023FCF7B0FE37F00602F1D1022F25D010
:1035E000042F13D0062F18BFBDE8F0812A463346BA
:1035F000FCF748FFD4E90A23FCF79DFE2A46334630
:10360000FCF740FFD4E90823FCF795FE2A46334631
:10361000FCF738FFD4E90623FCF78DFE2A46334633
:10362000FCF730FFD4E90423FCF785FE2A46334635
:10363000FCF728FFD4E90223FCF77DFE2A46334637
:10364000FCF720FFD4E90023BDE8F041FCF773BE8E
:103650000022134610460149FCF786BF0000F03FE8
:103660000122FDF72EB90022134610461146FCF741
:103670007BBF02E008C8121F08C1002AFAD17047B8
:103680007047002001E001C1121F002AFBD17047E2
:103690000149086070470000F80000202DE9FF4F45
:1036A0008BB09A460F460546002606E025280BD02B
:1036B00052460D9990476D1C761C28780028F5D14C
:1036C0000FB03046BDE8F08F0024A04601226049CB
:1036D00000E0044315F8013F203B02FA03F00842E2
:1036E000F7D128782E2817D115F8010F44F00404DB
:1036F0002A280ED06FF02F022878A0F13001092976
:103700000AD808EB880102EB410100EB01086D1CAF
:10371000F2E757F8048B6D1C287869283ED006DC48
:103720000028CDD063280BD0642804D136E073285C
:1037300010D075284BD052460D999047761C85E0E5
:1037400017F8040B8DF8000000208DF80100E94601
:10375000012003E057F8049B4FF0FF3061074FF062
:10376000000401D40AE0641C44450DDA8442FADB0B
:1037700019F804100029F6D106E0641C8442FCDB31
:1037800019F804100029F8D1264404E019F8010BB7
:1037900052460D999047641EF8D257E001CF4FF082
:1037A0000A0B002802DA40422D2102E0210504D54F
:1037B0002B218DF82410012103E0E10705D0202101
:1037C000F7E70DF1200908910CE00021F9E701CF9E
:1037D0004FF00A0BF9E75946FCF7A8FF01F1300258
:1037E00009F8012D0028F6D1ADEB090000F1200BFE
:1037F000600701D44FF00108D84502DDA8EB0B00AB
:1038000000E000208046002406E009A85246005D42
:103810000D999047641C761C08988442F5DB04E0FF
:10382000302052460D999047761CB8F10001A8F15E
:103830000108F5DC05E019F8010B52460D99904797
:10384000761CBBF10001ABF1010BF4DC6D1C34E71D
:103850000928010070B504460D464FF0FF332A4693
:1038600021460248FFF7D8F870BD0000C8010020CB
:1038700010B50A48007880B1C82002F06FF90849F5
:1038800008A0FFF75BFE00200A4908606421044895
:10389000FCF7BDFC00200149087010BDBC000020F1
:1038A00028370020636C65616E202D2D2D3E257319
:1038B0000A000000B80000200020024908700249F8
:1038C00008607047B60000209800002070B50446DC
:1038D0000D46172C06D1EAB24FF400710E48FDF7E1
:1038E000F3FD17E0162C06D1EAB24FF480710A48B6
:1038F000FDF7EAFD0EE0152C05D1EAB2802106485D
:10390000FDF7E2FD06E0132C04D1EAB240210248A3
:10391000FDF7DAFD70BD0000000C014070B50446F3
:103920000D461A2C06D1EAB24FF480611B48FDF710
:10393000CBFD32E01B2C06D1EAB24FF400611748F0
:10394000FDF7C2FD29E00E2C06D1EAB24FF48051FA
:103950001248FDF7B9FD20E0202C05D1EAB2210282
:103960000E48FDF7B1FD18E0212C06D1EAB24FF464
:1039700080410A48FDF7A8FD0FE0192C06D1EAB2F4
:103980004FF400410548FDF79FFD06E00C2C04D1E3
:10399000EAB202210148FDF797FD70BD000C01401D
:1039A00070B505460C46E2B24FF400610148FDF7E0
:1039B0008BFD70BD000801402DE9F14F94B0274800
:1039C0001290274811902748109027480F90002008
:1039D0000E900F98FCF771FECDE90A014FF07E5072
:1039E0001199FCF76AFC0646FCF767FECDE9040175
:1039F0001098FCF762FECDE9020112991498FCF7C9
:103A00005CFC0190FCF759FE804600F0BBFA0646CC
:103A1000DDE90223FCF7A8FD0446DDE90423FCF7F9
:103A20008AFC02460B46CDE9060100200F49FCF74F
:103A30009BFDCDE90801DDE90A23FCF71DFD00220D
:103A40000B4BCDE90C01FCF776FC8246FCF748FEF7
:103A50000E900E9815B0BDE8F08F00000060EA46A9
:103A60003313954300E07645339388430000F03FDD
:103A70000000E03F10B51149081F00F033F8FFF7D0
:103A80003FFA0E49091F08720846007A012801D141
:103A900088720FE00949091F48680949FCF73CFE94
:103AA00004D202200549091F887203E0002003495F
:103AB000091F88720148001F807A10BD90370020CE
:103AC0000000704238B504460D46E0B200904FF059
:103AD000FF33012269460248FEF79EFF204638BDAB
:103AE000840100202DE9F04F89B006460F460024DE
:103AF0000025A3461CE04A48FDF7FEF9642148482A
:103B0000FDF73AF918B94648FDF75AF80444444815
:103B1000FDF7F2F964214248FDF72EF918B9404843
:103B2000FDF74EF805443E48FDF77EFA0BF1010B18
:103B3000BBF10A0FDFDB0A20B4FBF0F4B5FBF0F5B4
:103B40002046FCF780FD4FF06632364BCDE9000190
:103B5000FCF798FC0022344BCDE90201FCF704FD90
:103B600000224FF08043CDE90401FCF78BFCCDE946
:103B70000601FCF7B5FD80462846FCF764FD4FF0D2
:103B80006632284BCDE90201FCF77CFC0022264B73
:103B9000CDE90401FCF7E8FCCDE90601FCF7A0FD46
:103BA00081464846FCF789FD4FF066321D4BCDE952
:103BB0000001FCF764FCCDE904011C494846FCF710
:103BC0004AFB8346FCF779FDCDE90201DDE90423D8
:103BD000FCF7CAFCCDE90601FCF782FD82464046AF
:103BE000FCF76BFD124A134BCDE90001FCF744FCD6
:103BF0000022114BCDE90201FCF7B6FC00220F4B6D
:103C0000CDE90401FCF73EFCCDE90601FCF73CFDE3
:103C100030705046FFF7D0FE386009B0BDE8F08F35
:103C2000FC00002066660A400000B04000401C46D0
:103C30009A99999999990D400000E03F00005940E8
:103C400010B5D3E075480068401C74490860C8206E
:103C5000FDF78EFA7248007818B171480078012893
:103C600013D170A0FFF76AFC74480068FCF7ECFA07
:103C700084B24FF6FF732246704801687048FEF721
:103C8000CBFE012066490870ABE065480078022849
:103C900003D063480078032813D16AA0FFF74EFCD5
:103CA00073480068FCF7D0FA84B24FF6FF732246DF
:103CB0006F4801686248FEF7AFFE0320584908705C
:103CC0008FE057480078042803D05548007805282D
:103CD00013D168A0FFF732FC6E480068FCF7B4FA15
:103CE00084B24FF6FF7322466A4801685448FEF7D3
:103CF00093FE05204A49087073E049480078062879
:103D000003D047480078072813D163A0FFF716FCBB
:103D100068480068FCF798FA84B24FF6FF732246B1
:103D2000644801684648FEF777FE07203C49087062
:103D300057E03B480078082803D0394800780A2823
:103D400016D15DA0FFF7FAFB62480068FCF77CFA29
:103D500084B24FF6FF7322465E4801683848FEF78A
:103D60005BFE0A202E49087001205B49087038E08C
:103D70002B4800780B2807D029480078092803D061
:103D8000274800780C2813D154A0FFF7D7FB5948D7
:103D90000068FCF759FA84B24FF6FF732246554883
:103DA00001682748FEF738FE0C201D49087018E00E
:103DB0001B4800780D2800D119E0194800780E281A
:103DC0000FD14DA0FFF7BAFB4A480068FCF73CFA58
:103DD00084B24FF6FF732246464801681848FEF742
:103DE0001BFE0F4801784CA0FFF7A8FB2AE700BF95
:103DF0003948007818B14EA0FFF7A0FB02E056A0AA
:103E0000FFF79CFB4FF47A70FDF7B2F900205B4995
:103E1000086064215A48FCF7FAF910BDC40000207C
:103E2000B4000020424C453AE6ADA3E8BF9BE585CF
:103E3000A54154E6A8A1E5BC8F0A00009C00002023
:103E4000C8010020424C453AE6ADA3E59CA8E8AE87
:103E5000BEE7BDAE73746174757320E585B3E997F1
:103E6000ADE78AB6E68081E698BEE7A4BA5C6E004C
:103E7000A0000020424C453AE6ADA3E69FA5E8AF7E
:103E8000A2E78AB6E68081E698AFE590A6E4B8BAE4
:103E9000300A0000A4000020424C453AE6ADA3E6FB
:103EA0009FA5E8AFA2E8AEBEE5A487E5908DE7A7A1
:103EB000B05C6E00A8000020424C453AE6ADA3E895
:103EC000AEBEE7BDAEE8AEBEE5A487E5908DE7A740
:103ED000B05C6E00AC000020B5000020424C453ABA
:103EE000E6ADA3E98080E587BA4154E6A8A1E5BC28
:103EF0008F0A0000B0000020424C453A424C452059
:103F0000524553455420E98080E587BA4154E6A8DC
:103F1000A1E5BC8F0A000000675F626C655F696E97
:103F200069745F73746570203D2025640A00000089
:103F3000E9858DE7BDAEE5AE8CE688902DE8AFB79C
:103F4000E9878DE590AFE8AEBEE5A487E4BDBFE7A5
:103F500094A85C6E00000000E9858DE7BDAEE5AE7B
:103F60008CE688902DE58FAFE4BBA5E6ADA3E5B860
:103F7000B8E4BDBFE794A80A00000000B800002024
:103F8000283700202DE9F04DC84A002490B0914216
:103F900005DA21F00043934201D805D120B110B0D9
:103FA000BDE8F04DFFF75CBBB1F5801F1BDA53EAAB
:103FB000000209D0002911DA0120FFF769FB10B0D7
:103FC000BDE8F04DFFF74FBB0220FFF761FBFFF7A5
:103FD0003FFB10B081F00041BDE8F08D6FF035047B
:103FE0003622FCF76EFC04EB2152C1F31308B049F2
:103FF000A2F2FF33414401F4801282F07F6103EBAF
:10400000225281F04051009241EA08010022A94B5E
:10401000FCF732FA044608F10200A74EC0F3130081
:104020000D467E44032867D2D6E900232046FCF7DC
:1040300071FC1ED10098002802BFD6E9000110B023
:10404000BDE8F08DFCF754FC07460C469B4A9C4BA0
:10405000FCF718FA06460D469A4A9B4B384621460D
:10406000FCF710FA10B032462B46BDE8F04DFCF7D5
:1040700062B94FF05532954B20462946FCF702FABB
:104080000022934BFCF7FBF906460F4622462B46CF
:1040900010461946FCF7F6F932463B46FCF7F2F9B2
:1040A000064600980F46F0B1FCF722FC80468A468F
:1040B000824A834BFCF7E6F932463B46FCF7DFF9D0
:1040C00022462B46FCF7D8F905460C467D4A7E4B26
:1040D00040465146FCF7D6F910B02A462346BDE8C3
:1040E000F04DFCF7C9B90B4610B0324620462946C0
:1040F000BDE8F04DFCF7C0B900224FF080432046E8
:10410000FCF719F902460B4620462946FCF72CFA23
:1041100006460F460098FCF7EBFBCDE9040132465A
:104120003B4610463946FCF7ADF90C9069480C9AAD
:104130004044019009910B461046FCF7A3F98246D2
:10414000024665488B46C8F151080B4608F5D7284A
:1041500003217844FFF727FA52465B46FCF792F9B1
:104160000A905E480D9152465B4604217844FFF761
:104170001AFA099B0C9AFCF785F9844601980D9B65
:1041800040EA080860460A9AFCF7D5F88346089189
:10419000B8F1000F4EDD4FF0FF3220462946FCF704
:1041A00090FB22462B46FCF76DF9804600988A4624
:1041B00060B3DDE90401414A414BFCF763F9099121
:1041C00000905A4640465146089BFCF7B4F83246E8
:1041D0003B46FCF757F9099B009AFCF7ACF84246BE
:1041E0005346FCF74CF922462B46FCF745F90446AA
:1041F0000D46DDE90401334A334BFCF743F910B0B7
:1042000022462B46BDE8F04DFCF736B95A464046EB
:10421000089BFCF790F832463B46FCF733F94246E0
:104220005346FCF72CF910B022462B46BDE8F04D62
:10423000FCF725B9009840B3DDE904011F4A204B83
:10424000FCF720F980468A465A4620462946089BB4
:10425000FCF712F932463B46FCF714F94246534646
:10426000FCF70AF922462B46FCF706F904460D46F0
:10427000DDE90401134A144BFCF704F910B022469F
:104280002B46BDE8F04DFCF7F7B80B465A462046E2
:104290002946FCF7F1F832463B46FCF7F3F810B03C
:1042A00022462B46BDE8F04DFCF7E9B80000F07F50
:1042B000645F09000000F03F32320000763C79353F
:1042C000EF39EA3D0000E0FE422EE63F5555D53F6E
:1042D0000000E03F86EBF9FFCA300000C830000064
:1042E000FDF70AF9FEF7E2FEFEF738FDFEF7CCFD1A
:1042F000FEF794FCFEF7E4FDFEF7A2FD012206495D
:104300000648FEF751FB00F05FF8FEF7C3FC00F033
:104310007BF800BFFEE7000000000020C80100207D
:1043200010B500211720FFF7D1FA00211620FFF762
:10433000CDFA00211520FFF7C9FA00211320FFF75D
:10434000C5FA10BD70B50546002625E000241FE023
:10435000134810F824101720FFF7B8FA104800EBA4
:10436000840041781620FFF7B1FA0D4800EB840075
:1043700081781520FFF7AAFA094800EB8400C1787C
:104380001320FFF7A3FA0220FCF7F2FE601CC4B270
:10439000082CDDDB701CC6B2AE42D7DB70BD00005E
:1043A000C800002010B500211720FFF78FFA002168
:1043B0001620FFF78BFA00211520FFF787FA00215E
:1043C0001320FFF783FA10BD10B5FFF7E6F848B9E0
:1043D000FFF7E6F830B90B480068022805D1FFF76F
:1043E000D9F810B16FF0050409E00648006820B95B
:1043F000012004490860002401E04FF0FF3420460A
:1044000010BD00006400002010B5FFF7C6F848B9E1
:10441000FFF7C6F830B90C480068022805D1FFF74D
:10442000B9F810B16FF005040CE0074800680128E6
:1044300006D102200449086001F0FAFC002401E0E2
:104440004FF0FF34204610BD6400002010B500215D
:104450001120FFF7A5FA01210C20FFF75FFA00F009
:1044600043F810BD70B505463021284600F0E8FE3F
:104470000120FFF767FF002403E0E0B200F074FEC4
:10448000641C062CF9DB70BD10B501210C20FFF770
:1044900045FA00F029F801211120FFF781FA10BD3B
:1044A0002DE9F04105460E462F46FFF7EDFF4FF090
:1044B000000811E03021384600F0C2FE002406E07A
:1044C0000420FFF73FFFE0B200F04EFE641C062C14
:1044D000F6DB303708F13008B045EBDB00F02EF8A2
:1044E000FFF760FFBDE8F08110B500211A20FFF74B
:1044F00015FA00211B20FFF711FA00210E20FFF70B
:104500000DFA00212020FFF709FA00212120FFF7F2
:1045100005FA00211920FFF701FA10BD00B5BDB062
:10452000002003E0552101AA1154401CF028F9DBBA
:10453000F02101A8FFF7B4FF3DB000BD10B5012187
:104540000C20FFF7EBF9FFF7CFFF00211120FFF759
:1045500027FA10BD10B54FF0FF310F48006802F088
:10456000DFF90EA0FEF7EAFF012012494872FFF7BB
:10457000D5FF6420FFF7E6FEFFF714FF00200D498A
:10458000487200231A4619460348006801F0C4FF28
:1045900009A0FEF7D3FF10BDEC000020E5BC80E5CC
:1045A000A78BE6B58BE8AF95E68993E58DB05C6E99
:1045B000000000008C370020E68993E58DB0E6B559
:1045C0008BE8AF95E7BB93E69D9F0A002DE9F0418C
:1045D00005460E461648076816480068001D01F09B
:1045E00011F9681C38B936B112480168091D124822
:1045F00001F08AF91AE07C190E4800684460BC4258
:1046000007D20C480168091D0C48006801F062F9E6
:104610000CE008480168091D0948006801F05AF9D2
:1046200008480068844201D206480460BDE8F08171
:104630002800002014000020440700201C00002057
:10464000180000204400002010B5044601F068F96D
:1046500024480068401C234908602348006840B98A
:10466000214804600846006801280DD100F010FAC6
:104670000AE01E48006838B91B480068C06AE16A51
:10468000884201D81848046019480068401C18493D
:1046900008600846006860641649E06A0968884254
:1046A00002D91449E06A0860E16A01EB8101124A0B
:1046B00002EB8100211D01F027F901F05BF90B48A5
:1046C000006868B108480068C06AE16A884207D299
:1046D0004FF0805009490860BFF34F8FBFF36F8FD1
:1046E00010BD000024000020140000203000002035
:1046F000400000202C0000209402002004ED00E087
:1047000008B501F00DF912480068E8B9114801F048
:10471000D1F8114801F0CEF80E48104908600E4853
:104720000F49086000200F4B0F4A102100900A200B
:1047300001F036FE064908600846006820B10BA16A
:104740000348006801F0CEF901F014F908BD00003B
:1047500058000020580700206C070020500000205F
:104760005400002080070020D0070020546D7251B3
:104770000000000010B516E001F0D2F80C48C06847
:10478000C468201D01F03EF80A480068401E09492F
:10479000086009480068401E0749086001F0EAF80F
:1047A000204600F05EF8044800680028E4D110BDFF
:1047B00030070020240000202000002070B50446AF
:1047C0000D46206C70B1216CE0680844E0606168BF
:1047D000E068884201D32068E0602846226CE168E6
:1047E000FBF7FCFC70BD2DE9F04104460F46154671
:1047F0004FF00008A66B206C40B9206860BB606871
:1048000002F0F6FA80460020606025E07DB9394666
:10481000226CA068FBF7E2FC216CA0680844A06051
:10482000D4E90110884217D32068A06014E039460B
:10483000226CE068FBF7D2FC216CE068401AE06073
:104840002168E068884203D2216C6068401AE06009
:10485000022D01D106B1761E701CA0634046BDE852
:10486000F08110B5044694F8590030B9206B01F07E
:104870009FF8204601F09CF81AE094F859000128AE
:1048800003D1204601F094F812E094F85900022870
:1048900001D1012000E0002050B900BF502080F37A
:1048A0001188BFF34F8FBFF36F8F00BF00BFFEE7CC
:1048B00010BD01464A6A22B10A6B1268C2F1380083
:1048C00000E00020704700000146084A12681268A4
:1048D0000AB9012200E000220A600A6822B9034AEC
:1048E0001268D268106800E0002070475000002075
:1048F00030B54FF42053174800F007042CB1C01D09
:1049000020F00700134C041B1B1B0246124C2260B4
:104910000024114D6C60D018083820F007000F4CAF
:10492000206000240D4D2D686C600C4D2D682C60AE
:104930001146441A4C60094C24680C60084D4C68C0
:104940002C60084D4C682C604FF00044064D2C60E4
:1049500030BD0000280F00206800002070000020FB
:1049600078000020740000207C00002000BFFFF7CA
:1049700001FF064800680128F9D94FF0805004492A
:104980000860BFF34F8FBFF36F8FF0E794020020F2
:1049900004ED00E010B504464CB1002060602060DA
:1049A000E06000231A461946204601F0B5FD10BD0F
:1049B0002DE9F04106460D4617469846069C0DB96E
:1049C000246000E02760E66325640121204601F0B1
:1049D00057FD84F84C80BDE8F0812DE9F05F8246F8
:1049E0000F4690469B460A9E0C9C4FEA8801A522E2
:1049F000206BFBF705FCA8F10100216B01EB80099E
:104A000029F0070909F0070008B9012000E000209B
:104A100050B900BF502080F31188BFF34F8FBFF310
:104A20006F8F00BF00BFFEE7002507E0795D04F14E
:104A300034004155785D00B902E06D1C102DF5D3AE
:104A400000BF002143200155382E00D33726E662EF
:104A5000E66400202065201D00F039FF04F11800F5
:104A600000F035FF2461C6F13800A06164620020C7
:104A7000606584F858005A465146484600F062FB8B
:104A800020600B9808B10B980460BDE8F09F00000F
:104A900010B5002407E004EB84010F4A02EB81000B
:104AA00000F008FF641C382CF5D30C4800F002FF1E
:104AB0000B4800F0FFFE0B4800F0FCFE0A4800F037
:104AC000F9FE0A4800F0F6FE044809490860044867
:104AD0000849086010BD000094020020F406002080
:104AE000080700201C070020300700204407002092
:104AF000180000201C00002010B50146164800E0F8
:104B0000006803688B42FBD30246436813448B4220
:104B100004D143684C682344436001460A464B680D
:104B200013440468A34211D10C4C03682468A342C7
:104B300008D04B680468646823444B6003681B68B2
:104B40000B6005E0054B1B680B6001E003680B6020
:104B5000884200D0016010BD680000207000002075
:104B60002DE9F04104460D4616461F464FF0000859
:104B700065602461B5420CD8F01BA169884202D35C
:104B80004FF0010811E0211D0948006800F0A2FE65
:104B90000BE0BE4204D2BD4202D34FF0010804E054
:104BA000211D0448006800F095FE4046BDE8F081F4
:104BB000540000205000002070B5054600F0B0FE03
:104BC000A86B08B9012400E0002400F0D3FE2046C1
:104BD00070BD70B5054600F0A3FEA86BE96B884276
:104BE00001D1012400E0002400F0C4FE204670BD85
:104BF000F8B505460F4616480068C068C468201D11
:104C000000F000FEE06901281DD1A06941192B4682
:104C10003A462046FFF7A4FFA8B1002003462A46E3
:104C200001460090204602F091FA064656B900BFB0
:104C3000502080F31188BFF34F8FBFF36F8F00BFF9
:104C400000BFFEE700BF2046616A8847F8BD00004C
:104C500050000020F0B587B082E00398002811DAF8
:104C600004AE56B900BF502080F31188BFF34F8FB8
:104C7000BFF36F8F00BF00BFFEE7D6E90020B16829
:104C8000904700BF039800286ADB059C606908B95B
:104C9000012000E0002010B9201D00F0B3FD02A8A3
:104CA00000F0C0F8054603980A2857D2DFE800F064
:104CB00009050731334F0608323400BF00BF00BF7B
:104CC00000BF0498A269811803462A462046FFF7D0
:104CD00047FFE8B12046616A8847E069012817D19B
:104CE000002000900498A16942180023194620462C
:104CF00002F02CFA074657B900BF502080F3118804
:104D0000BFF34F8FBFF36F8F00BF00BFFEE700BF41
:104D100025E000BF23E000BF0498A061A06908B1AE
:104D2000012000E0002050B900BF502080F311881E
:104D3000BFF34F8FBFF36F8F00BF00BFFEE7A069C7
:104D400041192B462A462046FFF70AFF07E094F850
:104D50002C0010B9204600F02BFE00E000BF00BF81
:104D6000002203A90448006801F026FD00287FF412
:104D700074AF07B0F0BD000058000020F8B505463C
:104D80000C4601F0B1F8684600F04CF80646009871
:104D900020BB44B9B54206D802F01AF9314628467C
:104DA000FFF726FF1CE03CB10E480068006808B918
:104DB000012000E000200446A91B22460A480068A2
:104DC00000F0A6FE02F004F950B94FF080500749F8
:104DD0000860BFF34F8FBFF36F8F01E002F0F8F868
:104DE000F8BD0000540000205800002004ED00E051
:104DF0000A490968096809B9012100E0002121B1C7
:104E00004FF0FF31064A116006E004490968C9689D
:104E1000C868034A4168116070470000180000200C
:104E20004400002070B5044601F03AFF05460748EB
:104E30000068854204D200F00BF80120206001E0F8
:104E40000020206001480560284670BD60000020F9
:104E50002DE9F84332E024480068C068056822481C
:104E60000068C068C468201D00F0CCFC2046616A60
:104E70008847E069012821D1A0694619AE4207D9C7
:104E800066602461211D1848006800F023FD15E0CC
:104E9000002003462A4601460090204602F056F9BB
:104EA000074657B900BF502080F31188BFF34F8FDA
:104EB000BFF36F8F00BF00BFFEE700BF0A48006866
:104EC000006808B9012000E000200028C3D006488F
:104ED000D0F8008005480068034908600348C0F81E
:104EE0000080BDE8F883000050000020540000203E
:104EF0000E480068401C08B9012000E0002050B9AD
:104F000000BF502080F31188BFF34F8FBFF36F8F26
:104F100000BF00BFFEE700BF502080F31188BFF341
:104F20004F8FBFF36F8F00BF00BFFEE780000020F0
:104F300010B50346002022B903EA010434B1012070
:104F400004E003EA01048C4200D1012010BD08B541
:104F500000BF6846FFF7B8FC044620460099FFF7FB
:104F60000DFFFFF777FEF4E770B5044600F0D8FCBC
:104F700094F9455010E0606A08B9012000E0002073
:104F800038B904F1240001F0D7FF18B100F020FE79
:104F900000E003E0681E45B2002DECDC00BFFF20FE
:104FA00084F8450000F0E6FC00F0BAFC94F94450A7
:104FB00010E0206908B9012000E0002048B904F1A0
:104FC000100001F0B9FF08B100F002FE681E45B202
:104FD00000E001E0002DECDC00BFFF2084F844007D
:104FE00000F0C8FC70BD00002DE9F04104464FF010
:104FF000000800F079FF4648006808B9FFF778FC20
:1050000044480068204000286BD1D4B1083404F033
:105010000700B0B104F00700C0F10800044404F038
:10502000070008B9012000E0002050B900BF50205F
:1050300080F31188BFF34F8FBFF36F8F00BF00BFA6
:10504000FEE7002C4DD034480068844249D8334EE6
:105050003046056801E02E462D686868A04202D2FD
:1050600028680028F7D12A480068854239D030687E
:1050700000F10808286830606868001B102819D9FA
:105080002F1907F0070008B9012000E0002050B9EF
:1050900000BF502080F31188BFF34F8FBFF36F8F95
:1050A00000BF00BFFEE76868001B78606C60384690
:1050B000FFF722FD184968680968081A1649086050
:1050C0000846006816490968884203D212480068F9
:1050D000134908600F496868096808436860002040
:1050E000286001F075FF08F0070008B9012000E012
:1050F000002050B900BF502080F31188BFF34F8FBC
:10510000BFF36F8F00BF00BFFEE74046BDE8F081F0
:10511000700000207C000020740000206800002047
:10512000780000200648006830B10549096801F19F
:105130005000096D491C016001480068704700007B
:1051400014000020001F4FF080730360001F21F047
:1051500001030360001F034B036014380260203812
:1051600070470000F14E000810B50446062C64D2CA
:10517000DFE804F003132333435301210E20FEF72D
:10518000CDFB40F6C41000F019FB00210E20FEF705
:10519000C5FBC82000F012FB50E001211B20FEF7E8
:1051A000BDFB40F6C41000F009FB00211B20FEF7F8
:1051B000B5FBC82000F002FB40E001211A20FEF7F9
:1051C000ADFB40F6C41000F0F9FA00211A20FEF7FA
:1051D000A5FBC82000F0F2FA30E001211920FEF70B
:1051E0009DFB40F6C41000F0E9FA00211920FEF7FB
:1051F00095FBC82000F0E2FA20E001212120FEF713
:105200008DFB40F6C41000F0D9FA00212120FEF7F2
:1052100085FBC82000F0D2FA10E001212020FEF723
:105220007DFB40F6C41000F0C9FA00212020FEF7F3
:1052300075FBC82000F0C2FA00E000BF00BF10BD3F
:1052400070B504460D46AAB24FF0FF332146074819
:10525000FCF79AFF00210C20FEF760FB012000F014
:10526000ADFA01210C20FEF759FB70BD2C01002086
:1052700008B5002448E0FEF7FDFB244800788DF8CF
:10528000000022494868FBF7EBF9C0B28DF8010035
:105290001E48007A8DF802001C48407A8DF8030001
:1052A000601CC4B2322C22DD9DF8001018A0FEF75D
:1052B00045F99DF8011019A0FEF740F99DF802107C
:1052C00019A0FEF73BF99DF803101BA0FEF736F975
:1052D0000E48807A012802D11CA0FEF72FF90B4856
:1052E000807A022802D11CA0FEF728F90024074882
:1052F000407A18B904216846FEF7ACFAFEF7B8FA0E
:10530000642000F02BFC00BFB5E700008C370020C4
:10531000706F7765723A25640A00000074656D70DD
:105320003A25640A0000000070617065725F737452
:105330006174653A25640A0070696E7465725F7302
:10534000746174653A25640A00000000E7BCBAE79E
:10535000BAB8210A00000000E6B8A9E5BAA6E8BF7D
:1053600087E9AB98210A000010B5002230216420A3
:1053700000F0E7FF0549086000F022FE04490860DC
:10538000012000F0CDFF0349086010BDE8000020B7
:10539000F0000020EC00002019E0FDF7A9FB044616
:1053A000012C04D0022C05D0032C0AD106E0FFF713
:1053B000D1F807E00120FEF7C5FF03E0FEF7F2FF9A
:1053C00000E000BF00BF142000F0C8FB00BFE4E70E
:1053D000002421E000241148407A012800D1012452
:1053E0000E48807A002800DD022424B1012C06D06A
:1053F000022C0CD107E00120FDF7C6FB08E00220DB
:10540000FDF7C2FB04E00320FDF7BEFB00E000BF98
:1054100000BF0A2000F0A2FBDCE700008C37002070
:105420008EB0302102A8FAF7F2FE6BE04FF0FF30A9
:1054300001231A46194600903348006800F048FEE0
:105440004FF0FF313148006801F06AFA30A0FEF7F2
:1054500075F80025012032494872FFF715F841E040
:105460004FF0FF3202A92F48006801F0A5F9FEF7BE
:1054700001FB0446ACB902A8FEF7F4FF2948006816
:1054800000F0D4F9002829D1FEF716FAFFF756F8F4
:105490008C20FEF757FFFEF785FF23A0FEF74EF89E
:1054A00021E0FFF74BF8FEF77DFF012C04D11DB979
:1054B00021A0FEF743F80125022C04D11DB924A038
:1054C000FEF73CF801251748006800F0AFF928B94D
:1054D00026A0FEF733F8FEF7EFF904E00A2000F00B
:1054E0003DFB00BFBCE700BF00200D494872002310
:1054F0001A4619460548006801F00EF8642000F0CD
:105500002DFB00BF92E70000F0000020EC0000201F
:105510007072696E742073746172740A0000000006
:105520008C370020E8000020E68993E58DB0E7BBCA
:1055300093E69D9F210A0000E68993E58DB0E58101
:105540009CE6ADA23AE7BCBAE7BAB8210A0000006F
:10555000E68993E58DB0E5819CE6ADA23AE6B8A96F
:10556000E5BAA6E8BF87E9AB98210A00E9989FE56C
:105570008897E6B885E7A9BA210A000070B5044605
:10558000734801680068401C714A106071484454B7
:105590000546714800780D2871D170A12846FAF7A8
:1055A00041FE10B101207049087070A12846FAF739
:1055B00039FE10B101206C49087070A12846FAF735
:1055C00031FE10B101206849087061480068052863
:1055D00034D160480078A52818D15E484078A528C5
:1055E00014D15C488078A52810D15A48C078A528E5
:1055F0000CD158480079012800D000BF0020544940
:10560000086064215348FAF702FE70BD51480078E3
:10561000A62813D14F484078A6280FD14D4880784E
:10562000A6280BD14B48C078A62807D100204849AE
:10563000086064214748FAF7EAFDE6E74448006855
:1056400030281ADB434800F09FFC50480068401C9B
:105650004E49086008460068322807D94C4800784F
:1056600020B901204A490870FDF7ECFC00203849B8
:10567000086064213748FAF7CAFD66E0FFE745A1F4
:105680002846FAF7CFFD002850D03348007801288B
:1056900003D102203049087040E02F4800780328E9
:1056A00003D104202C49087038E02B4800780728E3
:1056B0000CD13AA12846FAF7B5FD18B108202649C1
:1056C00008702BE009202449087027E02248007860
:1056D0000A2803D10B20204908701FE01E480078DB
:1056E0000C2803D10D201C49087017E01A480078D7
:1056F0000E2803D10020184908700FE016480078E2
:1057000005280BD128A12846FAF78CFD18B10620F0
:105710001149087002E003200F49087000200C496D
:10572000086064210B48FAF772FD6EE721A1284654
:10573000FAF778FD10B10E20074908700448006898
:10574000642802D300200249086000BF5DE7000022
:10575000B800002028370020B4000020434F4E4EF0
:105760004543544544000000BC00002044495343D5
:105770004F4E4E45435445440000000044455649B1
:105780004345204552524F5200000000980000202F
:10579000B60000204F4B0D0A0000000052462D437A
:1057A00052415A590000000041542B535441545562
:1057B000533D30004552524F520D0A00F0B5044699
:1057C0000F4A00231768FD6A04FB05F74FF47A7C43
:1057D000B7FBFCF61768796A0FE01768786A8842A9
:1057E0000BD0884202D9471A3B4402E06F1A0744A3
:1057F0003B440146B34200D300E0EEE700BFF0BDFA
:105800000C02002001460A69D1E901309860D1E913
:10581000010358605068884201D1886850600020B8
:1058200008611068401E10601068704770B504462B
:1058300054B900BF502080F31188BFF34F8FBFF3DE
:105840006F8F00BF00BFFEE700F06AF8A56B00F0A5
:1058500091F8284670BD0000054909688869044927
:105860000968C96AC1F13801014A1268916170473B
:1058700014000020034B0360034B0B608023136074
:105880007047000070080020CC080020034B036024
:10589000034B0B604FF4807313607047CC0A0020F9
:1058A000280B002070B504460D462946204600F01E
:1058B00096FB70BD00F1080141604FF0FF3181603F
:1058C00000F10801C1600161002101607047002101
:1058D0000161704710B502460B685C1C0CB9106979
:1058E00007E002F1080000E04068446824689C4238
:1058F000FAD944684C604C68A160886041600A61D4
:105900001468641C146010BD42684A6093688B6020
:10591000936859609160086103685B1C036070477D
:1059200000BF502080F31188BFF34F8FBFF36F8FFC
:1059300000BF0E480068401C0C490860084600681B
:10594000012812D10A480068C0B208B9012000E05D
:10595000002050B900BF502080F31188BFF34F8F53
:10596000BFF36F8F00BF00BFFEE7704780000020CD
:1059700004ED00E00D48006850B900BF502080F3EE
:105980001188BFF34F8FBFF36F8F00BF00BFFEE7DB
:1059900006480068401E054908600846006820B9AE
:1059A000002080F3118800BF00BF704780000020F6
:1059B00070B506463546002E3FD0083D2C461F499F
:1059C00060680968084008B1012000E0002050B973
:1059D00000BF502080F31188BFF34F8FBFF36F8F4C
:1059E00000BF00BFFEE7206808B9012000E00020EA
:1059F00050B900BF502080F31188BFF34F8FBFF321
:105A00006F8F00BF00BFFEE70C496068096808405F
:105A100098B1206888B9094960680968884360605E
:105A200000F062FA064960680968084404490860A1
:105A30002046FFF761F801F0CBFA70BD7C00002032
:105A40007400002000204FF0E021086188610648C2
:105A500000684FF47A71B0FBF1F0401E4FF0E02186
:105A600048610720086170471000002070B5FAF700
:105A70008FFB0446102C16D304F1E02090F8F0536D
:105A800015480078854201DB012000E0002050B974
:105A900000BF502080F31188BFF34F8FBFF36F8F8B
:105AA00000BF00BFFEE70D48006800F4E0600C494D
:105AB0000968884201D8012000E0002050B900BFE9
:105AC000502080F31188BFF34F8FBFF36F8F00BF5B
:105AD00000BFFEE770BD0000840000200CED00E078
